:020000040800F2
:10000000505900200D030008713600081132000815
:100010005D340008430600082D420008000000007F
:100020000000000000000000000000004D02000879
:10003000CF0D000800000000A9020008D93A00080E
:1000400027030008270300082703000827030008E8
:1000500027030008270300082703000827030008D8
:1000600027030008270300082703000827030008C8
:10007000950C000827030008A50C000827030008BA
:100080002703000827030008270300086906000863
:10009000490600085906000827030008270300083E
:1000A0002703000827030008270300082703000888
:1000B0002703000827030008270300082703000878
:1000C0002703000827030008270300082703000868
:1000D0002703000827030008270300080D42000833
:1000E0002703000827030008270300082703000848
:1000F0002703000827030008270300082703000838
:100100002703000827030008270300082703000827
:10011000270300082703000827030008C13B000845
:100120002703000827030008270300082703000807
:100130002703000827030008270300089906000882
:10014000790600088906000827030008270300082D
:1001500027030008B50C0008270300081D4200080B
:1001600027030008270300082703000827030008C7
:1001700027030008270300082703000800000000E9
:1001800027030008270300082703000827030008A7
:100190002703000827030008270300082703000897
:1001A00000000000000000002703000800F002F833
:1001B00000F03CF80AA090E8000C82448344AAF1C5
:1001C0000107DA4501D100F031F8AFF2090EBAE8C3
:1001D0000F0013F0010F18BFFB1A43F0010318477B
:1001E000086D0000286D0000103A24BF78C878C15F
:1001F000FAD8520724BF30C830C144BF04680C602D
:10020000704700000023002400250026103A28BF74
:1002100078C1FBD8520728BF30C148BF0B60704778
:100220001FB506F0E8FD1FBD10B510BD00F0D4F9F4
:100230001146FFF7F5FF04F0FBF800F0F2F903B404
:10024000FFF7F2FF03BC00F0F5F900002C4B196832
:100250000868B0E8F04F80F30988BFF36F8F4FF064
:10026000000080F311887047000000000848006813
:10027000006880F308884FF0000080F3148862B6AD
:1002800061B6BFF34F8FBFF36F8F00DF00BF00BFBA
:1002900008ED00E0DFF80C00016841F47001016036
:1002A000704700BF88ED00E0EFF30980BFF36F8F68
:1002B000134B1A681EF0100F08BF20ED108A20E9BA
:1002C000F04F106009B44FF0500080F31188BFF375
:1002D0004F8FBFF36F8F05F0ABF94FF0000080F345
:1002E000118809BC19680868B0E8F04F1EF0100FBB
:1002F00008BFB0EC108A80F30988BFF36F8F704796
:100300001C000020EFF3058070470000094880477B
:1003100009480047FEE7FEE7FEE7FEE7FEE7FEE7E7
:10032000FEE7FEE7FEE7FEE704480549054A064BFF
:1003300070470000AD3B0008AD010008505300209D
:1003400050590020505500205055002053EA020C0F
:1003500000F069802DE9F04B4FF00006002B1FBF25
:10036000B3FA83F503FA05F424FA05F65E4012BFEA
:100370001643B2FA82F502FA05F4C5F120051EBF54
:1003800022FA05FC44EA0C04203556EA044C4FEAF4
:10039000144418BF641C4FF000084FF0000990424D
:1003A00071EB030C39D3002919BFB1FA81F701FAB7
:1003B00007F6B0FA80F700FA07F6C7F120071EBF6C
:1003C00020FA07FC46EA0C062037B6FBF4FCA7EB44
:1003D0000507103F07F01F0BCBF120060CFA0BFBB3
:1003E0002CFA06F644BFB3460026202FA4BF5E4673
:1003F0004FF0000B5BEA060C08BF4FF0010B19EB46
:100400000B09ABFB027C48EB0608C01B06FB02CCC9
:100410000BFB03CC71EB0C01C1E70B4602464146D6
:100420004846BDE8F08B13B54FF000004FF00001D7
:10043000AFF30080BDE81C407047032A40F23080D3
:1004400010F0030C00F0158011F8013BBCF1020F15
:10045000624498BF11F801CB00F8013B38BF11F896
:10046000013BA2F1040298BF00F801CB38BF00F8AD
:10047000013B11F0030300F05780083AC0F00880F8
:1004800051F8043B083A51F804CBA0E80810F5E70E
:10049000121D5CBF51F8043B40F8043BAFF30080F1
:1004A000D20724BF11F8013B11F801CB48BF11F866
:1004B000012B24BF00F8013B00F801CB48BF00F836
:1004C000012B704702F0FF0343EA032242EA024293
:1004D00000F05EB84FF0000200B513469446964611
:1004E000203922BFA0E80C50A0E80C50B1F1200147
:1004F000BFF4F7AF090728BFA0E80C5048BF0CC0F5
:100500005DF804EB890028BF40F8042B08BF704752
:1005100048BF20F8022B11F0804F18BF00F8012BC4
:10052000704770477047704710B5203AC0F00B8095
:10053000B1E81850203AA0E81850B1E81850A0E8E7
:100540001850BFF4F5AF5FEA027C24BFB1E8185041
:10055000A0E8185044BF18C918C0BDE810405FEAB1
:10056000827C24BF51F8043B40F8043B08BF70472D
:10057000D20728BF31F8023B48BF11F8012B28BF32
:1005800020F8023B48BF00F8012B70474FF00002F3
:100590000429C0F0128010F0030C3FF49DAFCCF1A1
:1005A000040CBCF1020F18BF00F8012BA8BF20F803
:1005B000022BA1EB0C01FFF78FBF5FEAC17C24BFC8
:1005C00000F8012B00F8012B48BF00F8012B704701
:1005D00000487047F05200207546FFF7F9FFAE461D
:1005E00005006946534620F00700854618B020B53F
:1005F000FFF79AFEBDE820404FF000064FF00007DD
:100600004FF000084FF0000B21F00701AC46ACE8BA
:10061000C009ACE8C009ACE8C009ACE8C0098D4627
:10062000704710B50446AFF300802046BDE8104087
:10063000FFF705BE01491820ABBEFEE72600020009
:10064000704700BFFEE7000010B5024800F0C3FD90
:1006500010BD0000B000002010B5024800F0BBFD46
:1006600010BD0000B000002010B5024800F0B3FD3E
:1006700010BD0000B000002010B5024800F0ABFD36
:1006800010BD0000D800002010B5024800F0A3FD06
:1006900010BD0000D800002010B5024800F09BFDFE
:1006A00010BD0000D8000020F0B58BB007460C4606
:1006B00015461E4604F0010008B10BB0F0BDC4F3AE
:1006C000400000B1F9E76805000C0190002002909D
:1006D0007005000C039000200490E00806900020B4
:1006E00007900120089009900E200A90C4F3800022
:1006F000059001A9384600F013FC00BFDDE710B5F6
:100700000446204601F08DF82068406940F0020060
:10071000216848612068406940F010002168486104
:1007200010BDF0B587B004460D4617461E4614B9F5
:10073000012007B0F0BD01950020029003900490C5
:1007400005966B463A4601A9204600F044FBF0E7C7
:1007500010B500240FE0C4EB0412144901EB820031
:1007600002F0D6FEC4EB04121049F03101EB820016
:1007700002F0CEFE641C042CEDDB0C48001FD0F808
:10078000E005B0F5FA7F09D20848001FD0F8E0056F
:10079000401C0649091FC1F8E00505E00020034997
:1007A000091F81F8E805087010BD0000D04B00203B
:1007B00010B50848007840B1012805D0022802D1C0
:1007C00000F00AFA04E000BF00BF00F0B5F800BF77
:1007D00000BF10BDCC4B002010B500231A460821E5
:1007E0004348FFF761FF00231A4670214148FFF795
:1007F0005BFF002463E0C4EB04123F4901EB82007D
:100800009FED3E1ADFED3E0A9FED3E0A02F0ABFE81
:10081000C4EB04123849F03101EB82009FED371A26
:10082000DFED390AB7EE000A02F09DFEC4EBC40109
:1008300001EB4102354901EB820000219FED343A82
:10084000DFED2E2A9FED2D2ADFED321A9FED301AB3
:10085000DFED2F0A9FED2E0A03F0C4F8C4EBC401AC
:1008600001EB41022C4901EB820000219FED283A67
:10087000DFED272A9FED292ADFED261A9FED241AA6
:10088000DFED230AB3EE040A03F0ACF8C4EBC401B5
:1008900001EB4102224901EB820000219FED1C3A4D
:1008A000DFED1B2A9FED152ADFED1A1A9FED181AAE
:1008B000DFED170A9FED1B0A03F094F8641C042C6B
:1008C00099DB9FED190A0C48001F80ED420A9FED4D
:1008D000170A80ED510A9FED160A80ED600A9FED20
:1008E000150A80ED6F0A00200349091F087010BD2A
:1008F000B0000020D8000020D04B0020000080462F
:1009000000803B45BE9F994100002043B04D002030
:10091000000000006F12833A004F0020920A8641C7
:100920005050002000007A44BB7D473E163A9D405F
:10093000A9E5A63F31DA693F10B5002438E09FED04
:100940001E0AC4EB04111D4800EB810080ED0C0A67
:100950009FED190AC4EB04111848F03000EB810038
:1009600080ED0B0A9FED140AC4EB04111348F0301C
:1009700000EB810080ED0C0AC4EBC40101EB4102E5
:100980000F4901EB820003F085F8C4EBC40101EBD1
:1009900041020C4901EB820003F07CF8C4EBC40176
:1009A00001EB4102084901EB820003F073F8641C7B
:1009B000042CC4DB10BD000000000000D04B002060
:1009C000B04D0020004F00205050002010B52DEDFC
:1009D000028B0024A5E05648007878B90021C4EBCA
:1009E00004125348001D00EB82008186C4EB041200
:1009F0004F48F43000EB8200818691E0C4EB041292
:100A00004B49091D01EB820191ED0C1AF0EE410AF0
:100A1000C4EB04124649091D01EB820191ED031A52
:100A2000B0EE410AC4EBC40101EB4102414901EBC4
:100A3000820002F01FFEB0EE408AC4EB04123D4972
:100A4000F03901EB820191ED0B1AF0EE410AC4EB93
:100A500004123849F03901EB820191ED021AB0EE2F
:100A6000410AC4EBC40101EB4102334901EB8200AE
:100A700002F000FEC4EB04112E48F03800EB8100B8
:100A800080ED0C0AC4EB04122A49F03901EB820113
:100A900091ED0C1AF0EE410AC4EB04122549F0392D
:100AA00001EB820191ED031AB0EE410AC4EBC401DF
:100AB00001EB4102214901EB820002F0DBFDF0EE87
:100AC000408AC4EB04111A48001D00EB810090F825
:100AD000380028B1BDEEC80A10EE100A00B200E0DE
:100AE0000020C4EB04121249091D01EB8201888623
:100AF000C4EB04110F48F03800EB810090F8380087
:100B000028B1BDEEE80A10EE100A00B200E00020A5
:100B1000C4EB04120749F03901EB8201888600BF5B
:100B2000641C042CFFF657AFBDEC028B10BD000017
:100B3000CC4B0020B04D0020004F00205050002032
:100B400070B51E4890F8E80500B970BD002024E09B
:100B50001B4B93ED750ADFED1B0A20EE200ABDEE5C
:100B6000C00A10EE103A19B2C0EB0014134BF43364
:100B700003EB8403B3F93420C1F30723124D05F8C6
:100B8000103043005B1CE954C2F307230F4D05F8F6
:100B9000103043005B1CEA54401C0428D8DB0823B7
:100BA000094A99010A48FFF7BCFD0823074A4FF498
:100BB000FF710848FFF7B5FD00BFC6E7CC4B00202A
:100BC000CC4F00200000FA45A8000020A000002023
:100BD000B0000020D800002010B52DED028B84B0AD
:100BE000244BD3E901021968DB6801AC0DC4009104
:100BF000002439E0C4EB04111F4800EB810090EDA4
:100C0000020AC4EB04111C4800EB8100D0ED050A78
:100C100030EE600AB0EE408A684600EB8400D0ED0A
:100C2000000A70EEC80AB0EE600A03F0DDFBF0EED9
:100C3000408AC4EB0411104800EB810090ED020AD9
:100C400030EE280AC4EB04110B4800EB810080ED64
:100C50000B0A9FED0A0AC4EB04110748F03800EBB9
:100C6000810080ED0C0A641C042CC3DB04B0BDECD5
:100C7000028B10BD846E0008C04C002000000000F4
:100C800010B500231A4619460148FFF70DFD10BDA7
:100C9000B000002010B5024800F064FE10BD000056
:100CA000F001002010B5024800F05CFE10BD00000D
:100CB0009001002010B5024800F054FE10BD000065
:100CC000500200200146087810381823B0FBF3F2D8
:100CD0000848805CC865032A05D908686FF30900D5
:100CE000001D886503E008686FF309008865886D5A
:100CF00070470000546E0008014600208A6A8B6924
:100D0000CBB932B1012A0DD0022A03D0032A10D167
:100D10000EE000BFCB6A03F08073B3F1807F00D197
:100D2000012007E0CB6AB3F1C07F00D1012001E0D0
:100D300000E000BF34E08B69B3F5005F1AD132B137
:100D4000012A07D0022A03D0032A11D10AE000BFEA
:100D500001200EE0CB6A03F08073B3F1807F00D1F5
:100D6000012006E0CB6AB3F1C07F00D1012000E092
:100D700000BF15E032B1012A05D0022A04D0032AAF
:100D80000CD103E000BF00BF012008E0CB6A03F0F4
:100D90008073B3F1807F00D1012000E000BF00BF6D
:100DA000704730B50468246824F4802405682C60FA
:100DB000046863608468402C04D10468A2600468FD
:100DC000E16003E00468A1600468E26030BD704740
:100DD00072B600BFFEE7F0B504460D461E4694F815
:100DE000207020688368A86800B900E000BF012F68
:100DF00001D0022F7DD103F0806030B903F0006094
:100E000018B903F0805000287ED0C3F3016101209F
:100E100088403060A86860B9B5F800C0E86840EA6A
:100E20004C5C206800F5C07000EB0110C0F800C0F9
:100E30000FE0D5E901C040EACC00D5F80CC040EA8B
:100E40000C00D4F800C00CF5C07C0CEB011CCCF8F5
:100E50000000D5F810C0206800F5C07000EB01104C
:100E6000C0F804C0287D01280ED1206800F5C070AC
:100E700000EB0110406840F4807C206800F5C070F1
:100E800000EB0110C0F804C0D079000692F806C04B
:100E900040EA0C4092F805C040EA0C2092F804C0E9
:100EA00040EA0C00D4F800C00CF5C07C0CEB011C2F
:100EB000CCF80C00D078000692F802C040EA0C4052
:100EC00092F801C040EA0C2092F800C040EA0C0001
:100ED000D4F800C00CF5C07C0CEB011CCCF8080069
:100EE000206800F5C07000EB0110006840F0010CB4
:100EF00001E00FE008E0206800F5C07000EB011091
:100F0000C0F800C00020F0BD606A40F400106062CC
:100F10000120F8E7606A40F4802060620120F2E777
:100F2000F0B504460A4694F82050012D01D0022D58
:100F30007ED1424901F50071086840F00100086067
:100F4000086820F47C5008600868566A40EA062069
:100F50000860107D00F01F06012000FA06F3C86942
:100F60009843C861A1F50071D069C8B9D1F80C02E5
:100F70009843C1F80C02908880B2968940EA0646F0
:100F800001F51070576940F83760108880B21689F3
:100F900040EA064601F51070576900EBC70046604D
:100FA000D069012819D1D1F80C021843C1F80C02FC
:100FB000908880B2168840EA064601F5107057699D
:100FC00040F83760908980B2168940EA064601F5FC
:100FD0001070576900EBC7004660906928B9D1F8D6
:100FE00004029843C1F8040204E0D1F80402184353
:100FF000C1F80402106928B9D1F814029843C1F865
:10100000140204E0D1F814021843C1F81402106A63
:10101000012804D1D1F81C021843C1F81C02D1F8F0
:10102000000220F00100C1F800020020F0BDFFE73F
:10103000606A40F4802060620120F7E700640040AD
:10104000704770B5044694F82050012D01D0022D50
:101050007DD151B92068C06800F0030080B9606A92
:1010600040F400106062012070BD2068006900F04B
:10107000030028B9606A40F4001060620120F3E7C1
:10108000206800F5D87000EB0110006800F0040043
:101090009060906840B9206800F5D87000EB0110AE
:1010A0000068400D106007E0206800F5D87000EB84
:1010B00001100068C0085060206800F5D87000EB8F
:1010C0000110006800F00200D060206800F5D870C0
:1010D00000EB0110406800F00F00082802D3082040
:1010E000106108E0206800F5D87000EB011040683E
:1010F00000F00F001061206800F5D87000EB0110BF
:10110000406800F47F40000A9061206800F5D870C4
:1011100000EB01104068000C5061206800F5D870A9
:1011200000EB011080681870206800F5D87000EBA3
:101130000110806800F47F40000A5870206800F5B4
:10114000D87000EB0110806800F47F0000E03CE004
:10115000000C9870206800F5D87000EB01108068D2
:10116000000ED870206800F5D87000EB0110C06840
:101170001871206800F5D87000EB0110C06800F409
:101180007F40000A5871206800F5D87000EB01100C
:10119000C06800F47F00000C9871206800F5D870DA
:1011A00000EB0110C068000ED87131B92068C0682A
:1011B00040F020002668F06005E02068006940F0FB
:1011C00020002668306100204EE7606A40F48020ED
:1011D0006062012048E72DE9F05F044600252068A1
:1011E00046692068D0F80490206887682068D0F8A5
:1011F0000CA02068D0F810B02068D0F8188006F055
:101200000100002855D007F00100C0B1012021687D
:10121000886007F0020018B1204600F032FB0EE0B3
:1012200007F0040010B145F4006508E007F008007D
:1012300010B145F4805502E0204600F021FB07F490
:101240008070C8B14FF480702168886007F4007026
:1012500018B1204600F017FB0EE007F4806010B1D3
:1012600045F4005508E007F4006010B145F48045EE
:1012700002E0204600F006FB07F48030C8B14FF4CE
:1012800080302168886007F4003018B1204600F0F3
:10129000FCFA0EE007F4802010B145F4004508E0A8
:1012A00007F4002010B145F4803502E0204600F03C
:1012B000EBFA06F0080038B10AF0100020B145F44E
:1012C000007510202168C86006F0040040B10AF0E3
:1012D000080028B108202168C860204600F02EFAD6
:1012E00006F0020038B12068C06800F0030010B1B9
:1012F000204600F025FA06F0400038B10BF010004F
:1013000020B145F4806510202168086106F02000B6
:1013100040B10BF0080028B1082021680861204680
:1013200000F07CFA06F0100038B12068006900F087
:10133000030010B1204600F072FA06F4003040B10C
:1013400009F0100028B1102021684860204600F004
:1013500067FA06F4803040B109F0080028B108208F
:1013600021684860204600F091FA06F4004088B3F6
:1013700009F0040078B306F4807020B108F0010091
:1013800008B145F0010506F4007020B108F0020034
:1013900008B145F0020506F4806020B108F00400B1
:1013A00008B145F0040506F40060A0B108F0700033
:1013B00088B108F07000402817D006DC10280BD048
:1013C00020280CD0302819D10CE0502810D06028EB
:1013D00014D110E01DE019E045F008050FE045F0DC
:1013E00010050CE045F0200509E045F0400506E059
:1013F00045F0800503E045F4807500E000BF00BFC4
:101400002068806920F070002168886104202168CC
:1014100048602DB1606A284360622046FFF710FEE5
:10142000BDE8F09F70B504460CB9012070BD94F87A
:10143000200010B9204600F0AFF82068006840F0A6
:1014400001002168086000F075FD05460DE000F020
:1014500071FD401B0A2808D9606A40F400306062C0
:10146000052084F820000120E0E72068406800F0B3
:1014700001000028EBD02068006820F002002168FD
:10148000086000F057FD05460DE000F053FD401BDD
:101490000A2808D9606A40F400306062052084F8A8
:1014A00020000120C2E72068406800F00200002808
:1014B000EBD1207E012806D12068006840F0800032
:1014C0002168086005E02068006820F0800021683D
:1014D0000860607E012806D12068006840F0400066
:1014E0002168086005E02068006820F0400021685D
:1014F0000860A07E012806D12068006840F0200026
:101500002168086005E02068006820F0200021685C
:101510000860E07E012806D12068006820F01000F5
:101520002168086005E02068006840F0100021682C
:101530000860207F012806D12068006840F008007C
:101540002168086005E02068006820F00800216834
:101550000860607F012806D12068006840F0040020
:101560002168086005E02068006820F00400216818
:101570000860D4E90201084321690843616908430E
:101580006168491E08432168C8610020606201202B
:1015900084F82000002049E710B586B004461421E5
:1015A00001A8FEF797FF5F492068884251D15E4845
:1015B0000068401C5C4908600846006801280FD19B
:1015C00000BF002000905948006840F00070574963
:1015D00008600846006800F00070009000BF00BF7F
:1015E00000BF0020009051481038006840F008000B
:1015F0004E49103908600846006800F00800009065
:1016000000BF00BF03200190022002900020039041
:10161000032004900920059001A9454800F082FBB1
:1016200000220521132000F04DFD132000F036FDAF
:1016300000220521142000F045FD142000F02EFDAD
:1016400000220521152000F03DFD152000F026FDAB
:1016500065E038492068884261D100BF00200090D1
:101660003248006840F080603049086008460068F1
:1016700000F08060009000BF00BF2B480068401C55
:10168000294908600846006801280FD100BF0020E2
:1016900000902648006840F0007024490860084621
:1016A000006800F00070009000BF00BF00BF002085
:1016B00000901E481038006840F002001B491039A5
:1016C00008600846006800F00200009000BF00BFFC
:1016D0004FF440500190022002900020039003201C
:1016E00004900920059001A9134800F01BFB00227B
:1016F00005213F2000F0E6FC3F2000F0CFFC002257
:101700000521402000F0DEFC402000F0C7FC002254
:101710000521412000F0D6FC412000F0BFFC06B0BE
:1017200010BD000000640040080000204038024066
:10173000000C0240006800400004024070470000B6
:1017400010B58AB0044601AB03AA00212046FFF77A
:1017500078FC2E49206888422DD140F2032203985C
:10176000811A904219D005DCA0F2012050B1012865
:101770001FD10CE0012916D0FD291AD101A801F0D2
:101780006FFE17E001A9224801F008FF12E001A94D
:101790001F483C3001F002FF0CE001A91C487830E2
:1017A00001F0FCFE06E001A919483C3801F0F6FE04
:1017B00000E000BF00BF17492068884223D103988A
:1017C000A0F2052030B101280AD002280ED003284B
:1017D00017D110E001A90E48B43001F0DFFE11E08E
:1017E00001A90B48F03001F0D9FE0BE001A90A482D
:1017F00001F0D4FE06E001A907483C3001F0CEFE1E
:1018000000E000BF00BF0AB010BD0000006400404F
:101810000C4C002000680040384D00207047704795
:10182000704770B5044694F82000012822D10220A8
:1018300084F820002068006820F00100216808601A
:1018400000F078FB05460DE000F074FB401B0A2811
:1018500008D9606A40F400306062052084F82000F6
:10186000012070BD2068406800F001000028EBD125
:101870006062F6E7606A40F4002060620120F0E7F1
:10188000704770477047704770477047704770B532
:101890000446A56D00F04EFB064694F8350002287C
:1018A00008D08020606500BF002084F8340000BFAD
:1018B000012070BD2068006820F0160021680860D3
:1018C0002068406920F0800021684861206C08B9D8
:1018D000A06C28B12068006820F00800216808602A
:1018E0002068006820F001002168086010E000F026
:1018F00021FB801B05280BD920206065032084F87C
:10190000350000BF002084F8340000BF0320D0E77A
:101910002068006800F001000028E8D194F85C100D
:101920003F208840A860012084F8350000BF0020D7
:1019300084F8340000BF00BFBBE7014691F83500D2
:10194000022803D08020486501207047052081F8D7
:1019500035000868006820F001000A681060002067
:10196000F3E70000F8B50446002000908C480068BA
:101970004FF41651B0FBF1F7A56D2E6894F85C108A
:1019800008208840304098B12068006800F00400CA
:1019900070B12068006820F004002168086094F8A5
:1019A0005C1008208840A860606D40F00100606510
:1019B00094F85C1001208840304068B1206840698C
:1019C00000F0800040B194F85C1001208840A860CD
:1019D000606D40F00200606594F85C10042088405F
:1019E000304068B12068006800F0020040B194F80F
:1019F0005C1004208840A860606D40F004006065C1
:101A000094F85C1010208840304078B3206800685B
:101A100000F0080050B394F85C1010208840A860D3
:101A20002068006800F4802080B12068006800F41D
:101A3000002028B9206CC8B12046216C884715E0E9
:101A4000A06C98B12046A16C88470FE02068006820
:101A500000F4807028B92068006820F00800216830
:101A60000860206C10B12046216C884794F85C1007
:101A7000202088403040002865D02068006800F0B1
:101A8000100000285FD094F85C1020208840A860E7
:101A900094F83500052828D12068006820F0160049
:101AA000216808602068406920F080002168486152
:101AB000206C08B9A06C28B12068006820F00800EC
:101AC0002168086094F85C103F208840A8600120DD
:101AD00084F8350000BF002084F8340000BF206D7A
:101AE00010B12046216D8847F8BD2068006800F4D9
:101AF000802080B12068006800F4002028B9606C64
:101B000010B12046616C88471DE0E06BD8B12046DB
:101B1000E16B884717E02068006800F4807068B9BE
:101B20002068006820F0100021680860012084F817
:101B3000350000BF002084F8340000BFE06B10B116
:101B40002046E16B8847606D38B3606D00F001009E
:101B5000F0B1052084F835002068006820F001000D
:101B60002168086000BF0098401C0090B84200D96E
:101B700005E02068006800F001000028F3D100BFF4
:101B8000012084F8350000BF002084F8340000BF35
:101B9000E06C10B12046E16C884700BFA4E700006C
:101BA000180000202DE9F0410446002500F0C2F99C
:101BB000074614B90120BDE8F081606A00B100BF9A
:101BC000022084F8350000BF002084F8340000BFF4
:101BD0002068006820F00100216808600AE000F039
:101BE000A9F9C01B052805D920206065032084F8C9
:101BF0003500E0E72068006800F001000028EED121
:101C00002068056821480540D4E901010843E168DE
:101C100008432169084361690843A1690843E169F0
:101C20000843216A08430543606A042803D1D4E9C4
:101C30000B0108430543206805602068456925F0CD
:101C40000705606A0543606A04280DD1A06A054350
:101C5000E06A48B12046FFF74FF828B140206065A0
:101C6000012084F83500A6E7206845612046FFF78B
:101C700029F8064694F85C103F208840B0600020A8
:101C80006065012084F83500002094E73F8010F063
:101C90002DE9F04704460D4616461F464FF0000852
:101CA000D4F8589000BF94F83400012802D10220E3
:101CB000BDE8F087012084F8340000BF94F83500B7
:101CC000012825D1022084F83500002060653B46BC
:101CD000324629462046FFF764F894F85C103F200E
:101CE0008840C9F808002068006840F016002168A4
:101CF0000860206C28B12068006840F00800216866
:101D000008602068006840F001002168086006E073
:101D100000BF002084F8340000BF4FF002084046A6
:101D2000C6E70000F8B502460B4600250024002057
:101D30000021E0E0012606FA01F51E6806EA050426
:101D4000AC4274D11E7906F00306012E04D01E7930
:101D500006F00306022E13D190684F000326BE4002
:101D6000B0434F00DE68BE403043906050680126AB
:101D70008E40B0431E79C6F300168E40304350604B
:101D80001E7906F00306032E09D0D0684F00032603
:101D9000BE40B0434F009E68BE403043D0601E79C5
:101DA00006F00306022E13D1CF0802F1200656F8E2
:101DB00027004E07F70E0F26BE40B0434F07FF0E19
:101DC0001E69BE403043CF0802F1200646F82700C6
:101DD00010684F000326BE40B0431E7906F003068C
:101DE0004F00BE40304310605E6806F44036002E5F
:101DF0001DD000BF00260096414E366846F480464E
:101E00003F4F3E603E46366806F48046009600BF6F
:101E100000BF3C4E8F0856F827008E07370F0F265D
:101E2000BE40B043384EB24202D100262EE061E0FF
:101E3000364EB24201D1012628E0354EB24201D1E0
:101E4000022623E0334EB24201D103261EE0324E79
:101E5000B24201D1042619E0304EB24201D105262A
:101E600014E02F4EB24201D106260FE02D4EB242B1
:101E700001D107260AE02C4EB24201D1082605E026
:101E80002A4EB24201D1092600E00A268F073F0FF1
:101E9000BE4030431B4E8F0846F82700244E306862
:101EA000A0435E6806F4801606B12043204E3060E1
:101EB000361D3068A0435E6806F4001606B1204364
:101EC0001B4E361D30601A4E361F3068A0435E68C8
:101ED00006F4003606B12043154E361F3060361F1B
:101EE0003068A0435E6806F4803606B12043104E89
:101EF000083E3060491C1029FFF41CAFF8BD0000FB
:101F0000443802400838014000000240000402400A
:101F100000080240000C0240001002400014024081
:101F200000180240001C0240002002400024024031
:101F3000083C014001480068704700000C00002088
:101F4000034800680349097808440149086070475C
:101F50000C0000201400002010B50D48006840F46B
:101F600000700B4908600846006840F48060086013
:101F70000846006840F480700860032000F0E0F834
:101F80000F2000F007F800F05FF8002010BD0000FF
:101F9000003C02402DE9F04188B004460027B846D5
:101FA00000BF002001902348006840F02000214934
:101FB00008600846006800F02000019000BF00BFE4
:101FC00002A903A800F0D8F9069F1FB900F0FCF998
:101FD000054602E000F0F8F945001748B5FBF0F0BF
:101FE000A0F1010815481649086040F2E73114488D
:101FF000C160C0F80480002101618160816100F04E
:10200000ABFC064696B90E4800F0DAFC06466EB9FF
:10201000372000F043F8102C07D200222146372049
:1020200000F050F80748046000E00126304608B090
:10203000BDE8F0814038024040420F0000140040EB
:10204000B00200201000002008B500BF0020009062
:102050001148006840F480400F4908600846006855
:1020600000F48040009000BF00BF00BF002000903F
:10207000081F006840F08050091F0860084600688B
:1020800000F08050009000BF00BF00220F21901E82
:1020900000F018F808BD0000443802400146084628
:1020A00000280DDB00BF00BF00F01F0301229A4093
:1020B00043099B0003F1E023C3F8002100BF00BFE8
:1020C00000BF70472DE9F05F80460D461646002799
:1020D00002F060F9074639462A46334601F0070008
:1020E000C0F1070ABAF1040F02D94FF0040A01E067
:1020F000C0F1070AD14600F1040ABAF1070F02D273
:102100004FF0000A01E0A0F1030AD4464FF0010AA3
:102110000AFA09FAAAF1010A0AEA020A0AFA0CFA08
:102120004FF0010B0BFA0CFBABF1010B0BEA030BAD
:102130004AEA0B042146404602F034F9BDE8F09F1C
:1021400000BF00F00702064B19684FF6FF03194065
:10215000044B0B4343EA0221014B196000BF704757
:102160000CED00E00000FA0538B5002400BF0020A7
:1021700000901D48006840F080501B4908600846E8
:10218000006800F08050009000BF00BF0120174998
:102190000864FFF7CFFE044607E0FFF7CBFE001B05
:1021A000B0F57A7F01D9032038BD1148406800F4AA
:1021B0008030B0F5803FF0D101200C494864FFF732
:1021C000B9FE044607E0FFF7B5FE001BB0F57A7FC5
:1021D00001D90320E8E70648406800F40030B0F574
:1021E000003FF0D10020DFE74038024000000E42FF
:1021F0000070004070B504460D460CB9012070BD5A
:102200005848006800F00F00A84209D255490D70E7
:102210000846006800F00F00A84201D00120EEE758
:10222000207800F0020002281DD1207800F0040080
:10223000042805D14C48006840F4E0504A49086041
:10224000207800F00800082805D14748006840F4CD
:102250006040454908604448006820F0F000A168EB
:10226000084341490860207800F00100A8B3606885
:10227000012807D13C4808380068C0F34040B8B98D
:102280000120BCE76068022802D06068032807D1FB
:10229000354808380068C0F3406048B90120AEE70F
:1022A000314808380068C0F3400008B90120A6E7AB
:1022B0002D48006820F00300616808432A4908603F
:1022C000FFF738FE064609E0FFF734FE801B41F2B7
:1022D0008831884202D9032091E707E0224800684C
:1022E00000F00C006168B0EB810FEDD11D48006873
:1022F00000F00F00A84209D91A490D70084600687D
:1023000000F00F00A84201D0012078E7207800F00B
:102310000400042807D11448006820F4E050E16864
:10232000084311490860207800F00800082808D107
:102330000D48006820F46040216940EAC1000A4964
:10234000086000F061F808490968C1F30311074A01
:10235000515CC8400649086006480068FFF71AFE4D
:1023600000204CE7003C0240083802405C6E000848
:1023700018000020100000200F2202600D4A126891
:1023800002F0030242600B4A126802F0F00282601F
:10239000084A126802F4E052C260064A126802F467
:1023A0006042D2080261044A126802F00F020A6019
:1023B0007047000008380240003C024001480068B5
:1023C000704700001800002000B5FFF7F7FF044930
:1023D0000968C1F38221034A515CC84000BD000076
:1023E000083802406C6E000800B5FFF7E7FF0449AB
:1023F0000968C1F34231034A515CC84000BD000086
:10240000083802406C6E00082DE9F04700240025D2
:102410000026A1462548006800F00C0020B10428E1
:1024200005D008283AD105E0DFF8849039E0DFF8DC
:10243000849036E01D48001F006800F03F041B48F0
:10244000001F006800F4800078B11A481749091F7E
:102450000968C1F38811A0FB0170014622460023E0
:102460003846FDF773FF05460EE011480F49091F76
:102470000968C1F38811A0FB0170014622460023C0
:102480003846FDF763FF05460848001F0068C0F3A3
:102490000140401C4600B5FBF6F902E0DFF8109061
:1024A00000BF00BF4846BDE8F08700000838024082
:1024B0000024F400001BB700F8B504460CB9012055
:1024C000F8BD207800F00100002874D0F9480068B9
:1024D00000F00C0004280DD0F648006800F00C0055
:1024E000082813D1F348001F006800F48000B0F5FD
:1024F000800F0BD1EF4808380068C0F34040002837
:1025000059D06068002856D10120D9E700BF606823
:10251000B0F5803F08D1E7480838006840F48030C3
:10252000E449083908601EE06068B0F5A02F0DD1BD
:10253000E0480838006840F48020DE490839086027
:102540000846006840F4803008600CE0D94808383C
:10255000006820F48030D7490839086008460068D0
:1025600020F48020086000BF606890B1FFF7E2FCB3
:10257000054606E0FFF7DEFC401B642801D9032076
:102580009EE7CC4808380068C0F340400028F1D0EE
:1025900011E0FFF7CFFC054606E0FFF7CBFC401B40
:1025A000642801D903208BE7C24808380068C0F3CB
:1025B00040400028F1D1207800F0020002285FD1CD
:1025C000BC48006800F00C0058B1BA48006800F040
:1025D0000C0008281CD1B748001F006800F48000D8
:1025E000B0B9B44808380068C0F3400020B1E068D2
:1025F000012801D0012063E7AE480838006820F0C8
:10260000F800216940EAC100AA490839086037E0AA
:10261000E06800B30120A8490860FFF78BFC05467D
:1026200006E0FFF787FC401B022801D9032047E79B
:10263000A04808380068C0F340000028F1D09D4849
:102640000838006820F0F800216940EAC100994983
:102650000839086014E0002097490860FFF76AFC19
:10266000054606E0FFF766FC401B022801D903205F
:1026700026E7904808380068C0F340000028F1D1F0
:10268000207800F0080008282CD16069A8B101204A
:102690008A490860FFF74EFC054606E0FFF74AFC52
:1026A000401B022801D903200AE782486C300068E9
:1026B000C0F340000028F1D014E000207F490860FA
:1026C000FFF738FC054606E0FFF734FC401B022804
:1026D00001D90320F4E677486C300068C0F340006D
:1026E0000028F1D1207800F00400042870D10027E0
:1026F00070483830006800F0805090B900BF00206A
:1027000000906C483830006840F08050694938319A
:1027100008600846006800F08050009000BF00BFCD
:1027200001276748006800F48070B0B96448006809
:1027300040F4807062490860FFF7FCFB054606E044
:10274000FFF7F8FB401B022801D90320B8E65C48DC
:10275000006800F480700028F2D000BFA068012853
:1027600008D154486830006840F001005149683190
:1027700008601DE0A06805280DD14E48683000684B
:1027800040F004004B49683108600846006840F09A
:10279000010008600CE047486830006820F0010044
:1027A0004449683108600846006820F00400086069
:1027B00000BFA068A8B1FFF7BDFB054609E0FFF721
:1027C000B9FB401B41F28831884202D9032077E6E9
:1027D00026E0384868300068C0F340000028EED09A
:1027E00013E0FFF7A7FB054608E0FFF7A3FB401B3C
:1027F00041F28831884201D9032061E62D486830D2
:102800000068C0F340000028EFD1012F07D129480C
:102810003830006820F0805026493831086000BF09
:10282000A069002845D02348006800F00C00082863
:102830005DD0A069022845D100201F490866FFF736
:1028400079FB054606E0FFF775FB401B022801D91E
:10285000032035E6174808380068C0F340600028B8
:10286000F1D1D4E907010843616A40EA81110122EC
:10287000A06AC2EB500041EA00412C20005D41EA11
:1028800000600C49091F086001200B490866FFF72A
:1028900051FB054606E0FFF74DFB401B022801D91E
:1028A00003200DE6034808380068C0F340600028A4
:1028B000F1D049E00838024000004742800E47420C
:1028C00000700040002021490866FFF733FB0546F1
:1028D00006E0FFF72FFB401B022801D90320EFE59C
:1028E0001B480068C0F340600028F2D12CE0A069CA
:1028F000012800D1E4E51648001D0668A0690128FA
:1029000020D006F48001E06981421BD106F03F012E
:10291000206A814216D147F6C0703040616AB0EB40
:10292000811F0FD106F440310122A06AC2EB500092
:10293000B1EB004F06D106F070612C20005DB1EBC9
:10294000006F01D00120BBE50020B9E5000047423F
:10295000003802407047704710B504460CB901209A
:1029600010BD94F83D0028B9002084F83C002046B2
:1029700000F025F8022084F83D00211D206801F0B8
:1029800027F9012084F8460000BF84F83E000121A9
:102990003F200155402001554120015500BF00BF97
:1029A000012084F842004320015544200155452070
:1029B000015500BF012084F83D000020D0E770479A
:1029C000014691F83D00012801D001207047022006
:1029D00081F83D000868C06840F001000B68D860CD
:1029E0001A4B086898421BD00868B0F1804F17D086
:1029F000174B0868984213D0164B086898420FD0BE
:102A0000154B086898420BD0144B0868984207D0C1
:102A1000134B0868984203D0124B086898420CD1B7
:102A20000868806800F00702062A0CD00868006871
:102A300040F001000B68186005E00868006840F08D
:102A400001000B6818600020C0E700000000014092
:102A50000004004000080040000C00400004014059
:102A60000040014000180040704770B504462068DF
:102A7000C5682068066906F00200022819D105F031
:102A80000200022815D1401F21680861012020772B
:102A90002068806900F0030018B12046FFF7E4FFCA
:102AA00005E0204600F097F8204600F095F8002059
:102AB000207706F00400042819D105F0040004284A
:102AC00015D1C04321680861022020772068806901
:102AD00000F4407018B12046FFF7C6FF05E020461D
:102AE00000F079F8204600F077F80020207706F013
:102AF0000800082819D105F00800082815D1C0439E
:102B000021680861042020772068C06900F0030074
:102B100018B12046FFF7A8FF05E0204600F05BF85B
:102B2000204600F059F80020207706F01000102809
:102B300019D105F01000102815D1C0432168086193
:102B4000082020772068C06900F4407018B1204642
:102B5000FFF78AFF05E0204600F03DF8204600F030
:102B60003BF80020207706F0010048B105F0010095
:102B700030B16FF0010021680861204600F02EF8A6
:102B800006F08000802809D105F08000802805D15A
:102B9000C043216808612046FFF7DCFE06F04000D4
:102BA000402809D105F04000402805D1C0432168E4
:102BB0000861204600F01EF806F02000202809D108
:102BC00005F02000202805D1C04321680861204677
:102BD000FFF7C1FE70BD70477047000010B5044696
:102BE00003492068884201D1FFF7AAF910BD00000F
:102BF0000014004070477047704700002DE9F84FFF
:102C00000446206805682068C668206847694FF058
:102C10000009CA4605F00F09B9F1000F0AD105F005
:102C2000200038B106F0200020B1204601F029F93B
:102C3000BDE8F88FB9F1000F7CD007F0010018B99A
:102C400006F49070002875D005F0010030B106F44C
:102C5000807018B1606C40F00100606405F0040001
:102C600030B107F0010018B1606C40F00200606400
:102C700005F0020030B107F0010018B1606C40F0BF
:102C80000400606405F0080048B106F0200010B9A7
:102C900007F0010018B1606C40F008006064606CDF
:102CA000002846D005F0200028B106F0200010B121
:102CB000204601F0E6F820684069C0F3801A606C95
:102CC00000F0080010B9BAF1000F2DD0204601F035
:102CD0007FF82068406900F04000402820D100BF04
:102CE00000BF2168143151E8001F21F04000216825
:102CF000143141E80002002AF3D100BFE06B50B16B
:102D00007F48E16B0865E06BFEF717FE88B1E06B6A
:102D1000016D88470DE02046FFF76EFF09E009E0EE
:102D20002046FFF769FF04E02046FFF765FF00201B
:102D300060647DE7206B012878D105F01000002841
:102D400074D006F010000028FAD000BF00200090D8
:102D500020680068009020684068009000BF00BFB5
:102D60002068406900F04000402870D1E06B0068A6
:102D700040681FFA80F8B8F1000F58D0A08D404588
:102D800055DDA4F82E80E06BC069B0F5807F43D09C
:102D900000BF00BF21680C3151E8001F21F4807092
:102DA00021680C3141E80002002AF3D100BF00BFC6
:102DB00000BF2168143151E8001F21F00100216893
:102DC000143141E80002002AF3D100BF00BF00BF68
:102DD0002168143151E8001F21F0400021681431AE
:102DE00041E80002002AF3D100BF202084F842000D
:102DF0000020206300BF00BF21680C3151E8001F94
:102E000021F0100021680C3141E80002002AF3D1C2
:102E100000BFE06BFEF73BFD02206063A08DE28DFA
:102E2000801A81B22046FFF7E6FE0EE052E0A08D48
:102E300040450AD1E06BC069B0F5807F05D1022022
:102E40006063A18D2046FFF7D6FEF1E6FFE7A08D77
:102E5000E18D401A1FFA80F8E08DD0B3B8F1000F71
:102E600037D000BF00BF21680C3151E8001F21F4AA
:102E7000907021680C3141E80002002AF3D100BFB4
:102E800000BF00BF2168143151E8001F21F001008C
:102E90002168143141E80002002AF3D100BF20204C
:102EA00084F842000020206300BF00BF21680C317D
:102EB00051E8001F21F0100021680C3141E80002A8
:102EC000002AF3D100BF0220606341462046FFF78D
:102ED00092FEADE605F0800030B106F0800018B13A
:102EE000204601F063F9A3E605F0400030B106F09A
:102EF000400018B1204600F0A1FF99E600BF97E618
:102F0000093D000810B504460CB9012010BDA069A8
:102F100000B100E000BF94F8410028B9002084F817
:102F20004000204600F02AF8242084F84100206860
:102F3000C06820F400502168C860204601F020F8E5
:102F40002068006920F49040216808612068406989
:102F500020F02A00216848612068C06840F40050D1
:102F60002168C86000206064202084F8410084F853
:102F700042000020606300BFC8E7000010B586B0C3
:102F80000446142101A8FDF7A5FA6E49206888427D
:102F900076D100BF002000906B48006840F480208C
:102FA000694908600846006800F48020009000BF6E
:102FB00000BF00BF0020009063481038006840F058
:102FC00008006149103908600846006800F00800F0
:102FD000009000BF00BF4FF44070019002200290AB
:102FE00000200390032004900720059001A9574872
:102FF000FEF798FE5648574908604FF00060486059
:103000004021544881600021C1604FF4806101611A
:10301000002141618161C16101624162FEF7C2FD2F
:1030200008B1FDF7D5FE00BF4A48A063846300BF26
:1030300047483038484908604FF000604860002138
:1030400045488160C1604FF48061016100214161A8
:103050008161C16101624162FEF7A4FD08B1FDF723
:10306000B7FE00BF3C48E063846300BF0022052137
:103070002720FFF727F82720FFF710F860E0FFE789
:103080003649206888425BD100BF002000902E485E
:10309000001D006840F020002B49091D086008460B
:1030A000006800F02000009000BF00BF00BF0020BB
:1030B000009025481038006840F04000224910393F
:1030C00008600846006800F04000009000BF00BFA4
:1030D0004FF48440019002200290002003900320CE
:1030E00004900820059001A91D48FEF71BFE1D480D
:1030F0001D4908604FF02060486040211A488160F7
:103100000021C1604FF48061016100214161816152
:10311000C1614FF48031016200214162FEF742FD3E
:1031200008B1FDF755FE00BF0F48A063846300BFE0
:10313000002205214720FEF7C5FF4720FEF7AEFF1E
:1031400006B010BD0048004040380240000C02406C
:103150005860024090010020F0010020001401405E
:1031600000180240A0640240500200207047000096
:10317000F7B50446154694F8410020283ED1019841
:1031800000B10DB90120FEBD01982062A584E5843F
:1031900000206064212084F841001948A16BC863B5
:1031A0001848A16B08641848A16BC8640020A16B83
:1031B000086501AE23681A1D31682B46A06BFEF727
:1031C00067FD30B110206064202084F841000120A8
:1031D000D9E76FF040002168086000BF00BF216898
:1031E000143151E8001F41F080002168143141E89A
:1031F0000002002AF3D100BF0020C4E70220C2E78A
:103200006B3D0008C33D00081B3D00087047704738
:1032100000BFFEE710B50E480E4908600320486065
:1032200000210C488160C1604FF4102101614FF40E
:10323000401141610021017641768176C1760177A6
:103240004177FEF7EFF808B1FDF7C2FD10BD0000B1
:1032500000640040B000002010B50E480E49086020
:103260000320486000210C488160C1604FF41021A8
:1032700001614FF440114161002101764176817670
:10328000C17601774177FEF7CDF808B1FDF7A0FDD3
:1032900010BD000000680040D800002008B500BF45
:1032A000002000901A48006840F400101849086097
:1032B0000846006800F40010009000BF00BF00BF87
:1032C000002000900846006840F48000086008462E
:1032D000006800F48000009000BF00BF00220521BC
:1032E0000C20FEF7EFFE0C20FEF7D8FE0022052191
:1032F0000E20FEF7E7FE0E20FEF7D0FE002205218D
:103300004520FEF7DFFE4520FEF7C8FE08BD0000A1
:103310003038024010B5074A0021074801F0F6F89E
:1033200006490860064A0021064801F0EFF8064900
:10333000086010BD0C6E0008D93C00080000002099
:10334000306E0008B13C00080400002008B500BF42
:10335000002000902448006840F0400022490860A6
:103360000846006800F04000009000BF00BF00BFAA
:10337000002000900846006840F001000860084600
:10338000006800F00100009000BF00BF00BF0020F7
:1033900000900846006840F0080008600846006891
:1033A00000F00800009000BF00BF00BF00200090A8
:1033B0000846006840F0800008600846006800F099
:1033C0008000009000BF00BF00BF002000900846B2
:1033D000006840F0020008600846006800F0020043
:1033E000009000BF00BF08BD3038024010B50B4848
:1033F0000B4908604FF4E1304860002108488160C3
:10340000C16001610C21416100218161C161FFF74F
:1034100079FD08B1FDF7DCFC10BD0000004800405C
:103420000001002010B50B480B4908604FF4E13053
:103430004860002108488160C16001610C21416140
:1034400000218161C161FFF75DFD08B1FDF7C0FC9E
:1034500010BD0000001401404801002000BFFEE73D
:103460004178027841EA022109B201EE101AC178CE
:10347000827841EA022109B200EE101A41790279FC
:1034800041EA022109B200EE901AF8EEC11A9FED4E
:103490001D2AC1EE822A1C49C1ED752AF8EEC01A18
:1034A0009FED182AC1EE822AC1ED762AF8EEE01AC5
:1034B0009FED142AC1EE822AC1ED772A8179012974
:1034C00004D002290BD0032908D103E001210F4ABF
:1034D000117008E002210D4A117004E000BF0021C4
:1034E0000A4A117000BF00BF0121084A82F8E8159E
:1034F0000021C2F8E0151146D1F8E415491CC2F8C4
:10350000E415704700007A44CC4F0020CC4B0020DB
:1035100010B52DED048B0446E08E322803DAE08EE0
:10352000401CE0861CE094ED080AB0EE408A94ED61
:10353000090AF0EE408A94ED0A0AB0EE409A94ED42
:10354000050AF0EE409A3C212046FCF7C3FF84EDCB
:10355000088AC4ED098A84ED0A9AC4ED059A00BF71
:10356000BDEC048B10BD10B52DED048B0446B0EE00
:10357000409AB0EE608AF0EE418A14B9BDEC048B3B
:1035800010BD3C212046FCF7A5FF84ED089A84ED90
:10359000098AC4ED0A8A00BFF0E7000030B500B127
:1035A00001B930BD0024C486012480F83840048865
:1035B00023B24C780D7844EA05240480CC788D78C9
:1035C00044EA052424B244804C790D7944EA052468
:1035D00024B284808C7984710488E41A22B212F5B2
:1035E000805F03DA8469641C846105E0B2F5805F62
:1035F00002DD8469641E84610588846905EB4434B6
:10360000C46190ED070AF8EEC00A9FED161A80EE2D
:10361000810AF0EE000A20EE200ADFED130A20EE08
:10362000200AD0ED080A80EE201A80ED021AB0F9C7
:10363000024000EE104AB8EEC00ADFED0C0A20EEA0
:10364000200AD0ED080A80EE201A80ED031AB0F9A6
:10365000044000EE104AB8EEC00A80ED040A00BF34
:103660009FE7000000000046DB0F49405077D63D41
:1036700000BFFEE710B52DED028B0446F0EE408A48
:10368000B0EE608A24B99FED0D0ABDEC028B10BD2F
:1036900084ED038A94F8500038B9F0EE480AB0EE91
:1036A000680A204600F092F8EFE7F0EE480AB0EE24
:1036B000680A204600F004F8E7E700000000000078
:1036C00010B52DED0E8B0446F0EE409AB0EE60AAD8
:1036D0003AEE690AB0EE408A94ED110A10EE101A23
:1036E000084603F017FB41EC1B0B18EE100A03F021
:1036F00011FB41EC1D0BB0EE4D0AF0EE6D0A00F02F
:1037000068FEB0EE40CAF0EE60CA53EC1B2B51ECE1
:103710001C0B03F0CFF803D29FED2A0AB0EE408ACB
:1037200094ED000AD4ED050A78EE600A60EE20AA56
:1037300094ED010A20EE080AD4ED0B0A20EE20EAEF
:10374000D4ED050AB0EE001AB0EE480A01EE600AA8
:10375000D4ED060A30EE200AD4ED020A20EE200A4B
:10376000D4ED0C0A60EE20EA3AEE8E0A30EE2E9A84
:1037700094ED0D0AD4ED0E0A30EE600ADFED120A68
:1037800060EE208AB4EEE89AF1EE10FA02DDB0EEB7
:10379000689A0AE0B1EE680AB4EEC09AF1EE10FA47
:1037A00003D2B1EE680AB0EE409A94ED050A84EDBA
:1037B000060A84ED058A84ED048AB0EE490ABDEC60
:1037C0000E8B10BD00000000CDCCCC3D10B52DED12
:1037D000108B84B00446F0EE408AF0EE609A39EE29
:1037E000E80AB0EE408A84ED048AB0EE48AA94ED6F
:1037F000110A10EE101A084603F08CFA41EC1B0B6C
:1038000018EE100A03F086FA41EC1D0BB0EE4D0ADB
:10381000F0EE6D0A00F0DDFDB0EE40CAF0EE60CAD9
:1038200053EC1B2B51EC1C0B03F044F803D29FED1F
:10383000680AB0EE40AA94ED120A10EE101A08467B
:1038400003F068FA41EC1B0B18EE100A03F062FA61
:1038500041EC1C0BB0EE4C0AF0EE6C0A00F0B9FD26
:10386000B0EE40DAF0EE60DA53EC1B2B51EC1D0B9E
:1038700003F020F842D294ED120A10EE101A084616
:1038800003F048FACDE9000118EE100A03F042FAFD
:1038900041EC1D0BB0EE4D0AF0EE6D0A00F099FD03
:1038A000B0EE40CAF0EE60CA9DED000B53EC102B59
:1038B00051EC1C0B02F0A6FE41EC1B0B9FED450BDF
:1038C00053EC102B03F032F841EC1E0B9FED430B31
:1038D00053EC102B03F028F941EC1F0B02F0ACFD68
:1038E000029094ED080ADDED020A68EE200A94EDDC
:1038F0000B1A00EE810A84ED080A03E09FED340AFA
:1039000084ED080A94ED080AD4ED0F0AB4EEE00A3B
:10391000F1EE10FA04DD94ED0F0A84ED080A0CE0D4
:1039200094ED080AD4ED100AB4EEE00AF1EE10FAB4
:1039300003D294ED100A84ED080A94ED070A30EEE4
:10394000680AD4ED0C0A60EE20AA94ED130AF7EE93
:10395000000A30EEC00AD4ED0A0A20EE200AD4EDA7
:10396000130A00EEAA0A84ED0A0A94ED010AD4EDC6
:10397000080A20EE200AD4ED000A00EE8A0AD4EDEF
:10398000020A94ED0A1AB0EE409A00EE819A94ED84
:103990000D0AB4EEC90AF1EE10FA04D294ED0D0A44
:1039A000B0EE409A0AE094ED0E0AB4EEC90AF1EEC8
:1039B00010FA03DD94ED0E0AB0EE409A84ED058A0C
:1039C000C4ED078AB0EE490A04B0BDEC108B10BDFF
:1039D00000000000000000A09999E93F00000000ED
:1039E0000000F03F00B9704780ED000AC0ED010A09
:1039F00080ED021ADFED253AC0ED033ADFED233A00
:103A0000C0ED043ADFED213AC0ED053ADFED1F3A93
:103A1000C0ED063ADFED1D3AC0ED083ADFED1B3A86
:103A2000C0ED093ADFED193AC0ED0A3ADFED173A79
:103A3000C0ED073A80ED0D2AF1EE423AC0ED0E3AA4
:103A4000C0ED0F2AF1EE623AC0ED103A80ED113A66
:103A5000DFED0F3AC0ED123AF6EE003AC0ED133A40
:103A600080F85010C0ED0B1AF5EEC01AF1EE10FA06
:103A700006DDF7EE003A83EEA14A80ED0C4A03E042
:103A8000DFED023AC0ED0C3A00BFACE700000000E9
:103A90000000C84200B970479FED0E0A80ED040A8D
:103AA0009FED0C0A80ED050A9FED0A0A80ED060ADB
:103AB0009FED080A80ED080A9FED060A80ED090ACD
:103AC0009FED040A80ED0A0A9FED020A80ED070AC5
:103AD00000BFE0E70000000010B54FF0E0200069F3
:103AE00002F054FA012801D001F09EFE10BD000042
:103AF00000B593B0302107A8FCF7ECFC142102A814
:103B0000FCF7E8FC00BF002001902648006840F068
:103B10008050244908600846006800F080500190F9
:103B200000BF00BF00BF002001901F48006840F4A4
:103B300040401D4908600846006800F4404001907C
:103B400000BF00BF012007900004089002200D90E4
:103B500041050E9106210F91B4211091022111917E
:103B60000421129107A8FEF7A7FC08B1FDF730F970
:103B7000FEF7FAFA08B1FDF72BF90F2002900220A8
:103B80000390002004904FF4A05005904FF4805013
:103B90000690052102A8FEF72DFB08B1FDF718F9E4
:103BA00013B000BD40380240007000400348006878
:103BB00040F47000014908607047000088ED00E0A3
:103BC00010B50248FEF751FF10BD0000B002002002
:103BD00010B502682B4B98420ED0B0F1804F0BD03D
:103BE000294B984208D0294B984205D0284B98423F
:103BF00002D0284B984203D122F070024B681A433E
:103C0000204B984220D0B0F1804F1DD01E4B9842DF
:103C10001AD01E4B984217D01D4B984214D01D4B02
:103C2000984211D01C4B98420ED01C4B98420BD09E
:103C30001B4B984208D01B4B984205D01A4B984218
:103C400002D01A4B984203D122F44072CB681A4337
:103C500022F080034C6943EA04028B68C3620B685C
:103C60008362084B984202D00A4B984201D10B69FB
:103C70000363036843F004030360012343610260AC
:103C800010BD00000000014000040040000800409A
:103C9000000C00400004014000400140004401408D
:103CA0000048014000180040001C00400020004077
:103CB000FCF792FD4FF4FA7000F0D2FB00BFFCF766
:103CC00047FDFCF775FDFCF781FEFCF739FF01208D
:103CD00000F0C6FBF3E70000084800F0FBFA0848D4
:103CE000FCF70DFD0748FCF70AFDFCF7C9FF00BF14
:103CF00000F09EFA012000F0B3FBF9E74801002034
:103D0000B0000020D800002070B50446A56B00204C
:103D1000E8852846FEF770FF70BD70B506460025A1
:103D2000B46B20684069C0F3C01594F841002128A5
:103D300005D125B10020E084204600F08FF82068EE
:103D40004069C0F3801594F84200222805D125B1BE
:103D50000020E085204600F03BF8606C40F0100049
:103D600060642046FEF748FF70BD70B50546AC6B39
:103D70002868006800F48070F8B90020E08400BF73
:103D800000BF2168143151E8001F21F08000216834
:103D9000143141E80002002AF3D100BF00BF00BF88
:103DA00021680C3151E8001F41F0400021680C31BE
:103DB00041E80002002AF3D102E02046FFF726FA8C
:103DC00070BD70B50446A56B2846FFF720FA70BD9C
:103DD00000BF00BF02680C3252E8002F22F490713D
:103DE00002680C3242E80013002BF3D100BF00BF81
:103DF00000BF0268143252E8002F22F0010102686D
:103E0000143242E80013002BF3D100BF016B0129EB
:103E10000ED100BF00BF02680C3252E8002F22F022
:103E2000100102680C3242E80013002BF3D100BFEE
:103E3000202180F8421000210163704710B504462C
:103E40002068C06820F040002168C860202084F805
:103E500041002046FFF7DAF9002010BD00BF00BF87
:103E600002680C3252E8002F22F0C00102680C32C6
:103E700042E80013002BF3D100BF202180F841104D
:103E80007047F8B504460025002694F84200222821
:103E900073D1A068B0F5805F0BD1206948B9A66ADC
:103EA00020684068C0F308003080A06A801CA062CF
:103EB00014E0A56AA068B0F5805F03D0A06828B9B7
:103EC000206918B920684068287004E020684068BC
:103ED00000F07F002870A06A401CA062E08D401EA8
:103EE00080B2E085002846D12068C06820F020001C
:103EF0002168C8602068C06820F480702168C860AC
:103F00002068406920F0010021684861202084F881
:103F1000420000206063206B012826D1002020632E
:103F200000BF00BF21680C3151E8001F21F01000D4
:103F300021680C3141E80002002AF3D100BF20685B
:103F4000006800F0100010280AD100BF0020009087
:103F500020680068009020684068009000BF00BFA3
:103F6000A18D2046FEF747FE02E02046FFF7FEF84F
:103F70000020F8BD01E00020FBE70220F9E7000087
:103F80002DE9F84F04462068006920F44050E168AC
:103F90000843216808612169A068084361690843F2
:103FA000E169084300902068C06849F20C618843C9
:103FB000009908432168C8602068406920F4407077
:103FC000A16908432168486176492068884203D086
:103FD00075492068884203D1FEF706FA814602E05F
:103FE000FEF7F2F98146E069B0F5004F6CD102208E
:103FF0006168A0FB015003461920A9FB007001462F
:104000002A463846FCF7A2F96421B0FBF1F04FEAEA
:10401000001A02206168A0FB01510B461920A9FB80
:1040200000712A463846FCF791F983460220616800
:10403000A0FB015003461920A9FB00712A4638460F
:10404000FCF784F96421B0FBF1F000EBC00101EB57
:104050000010ABEB8000322101EBC0006421B0FB0B
:10406000F1F000F0F8000AEB400A02206168A0FBC2
:10407000015003461920A9FB007001462A46384624
:10408000FCF764F9834602206168A0FB01500346F7
:104090001920A9FB00712A463846FCF757F964211C
:1040A000B0FBF1F000EBC00101EB0010ABEB8000C6
:1040B000322101EBC0006421B0FBF1F000F00700F9
:1040C0005044216888606AE004206168A0FB0150C8
:1040D00003461920A9FB007001462A463846FCF722
:1040E00035F9824604206168A0FB0150034619207F
:1040F000A9FB007001462A463846FCF727F96421DF
:10410000B0FBF1F000EBC00101EB0010AAEB800066
:10411000322101EB00106421B0FBF1F000F0F00A55
:1041200004206168A0FB017003461920A9FB00511F
:104130003A462846FCF70AF96421B0FBF1F00AEB95
:10414000001A04206168A0FB01510B461920A9FB4D
:1041500000712A463846FCF7F9F883460420616866
:10416000A0FB015003461920A9FB007001462A4616
:104170003846FCF7EBF86421B0FBF1F000EBC0012E
:1041800001EB0010ABEB8000322101EB0010642149
:10419000B0FBF1F000F00F00504421688860BDE8EA
:1041A000F88F00000010014000140140014691F812
:1041B0004100212828D18868B0F5805F0BD10869BB
:1041C00048B90A6A1088C0F308000B685860086A8A
:1041D000801C086205E00B6A581C086218780B689E
:1041E0005860C88C401E80B2C88458B90868C0683E
:1041F00020F080000B68D8600868C06840F040007C
:104200000B68D860002070470220FCE710B5024818
:10421000FEF7F4FC10BD00000001002010B50248BC
:10422000FEF7ECFC10BD00004801002000BFFEE7D7
:1042300000B58DB024480068401C2349086014284C
:1042400001D20DB000BD00201F49086000BF0EE084
:10425000C0EB00121D4931F8221000EE101AB8EE22
:10426000400A05A901EB800181ED000A401C0428E9
:10427000EEDB174890ED750A8DED090AA0F5806018
:1042800090F8E80500EE100AB8EE400A8DED0A0A33
:104290000E48F438D0F8E40500EE100AB8EE400AF3
:1042A0008DED0B0A0BA80AA909AA08ABCDE90032CB
:1042B000CDE9021007AB06AA05A9072000F046F8D1
:1042C00000F00EF800BFBCE79C000020C04C0020AE
:1042D000CC4F00200149086070470000B851002011
:1042E00038B5184890F8340100B938BD002009E00D
:1042F0001449843101EB8002803151F820100968A3
:104300001160401C0F4991F834118142F0DC0EA07D
:10431000006800900B4890F834010A49843101EBA1
:10432000800000990160074890F83401042101EBF6
:1043300080040449224608688431FEF719FF00BF53
:10434000D3E70000B85100200000807F0FB408B50B
:1043500003A8009002980C2801DD0C200290002098
:1043600008E000990A68094941F820200099091DD0
:104370000091401C02998842F3DB0549029881F8BC
:1043800034010020009001B05DF814FBBC52002005
:10439000B851002002480068C0F3022070470000B6
:1043A0000CED00E010B5002804DB0A07130E054AE7
:1043B000135406E00A07140E034A00F00F031B1FF4
:1043C000D45410BD00E400E018ED00E0EFF30580E8
:1043D00070472DED020B019820F0004001909DEDFB
:1043E000000B02B07047000005E0DFED0E0A70EE32
:1043F000600AB0EE600ADFED0C0AB4EEE00AF1EEFE
:1044000010FAF2DC05E0DFED070A70EE200AB0EEEC
:10441000600ADFED060AB4EEE00AF1EE10FAF2D31C
:1044200070470000DB0FC940DB0F4940DB0F49C07C
:10443000FDF792FDFFF75CFBFEF788FFFEF72EFF0E
:10444000FEF7D4FFFEF7E6FEFEF706FFFEF7EAFFF3
:1044500000F016F8FEF75EFF00F028F800BFFEE758
:1044600070B50546FFF7B2FF10B16FF0050404E028
:10447000002415B1284600F0FBFF204670BD000067
:1044800010B5FFF7A3FF10B16FF0050409E006486F
:10449000006820B9012004490860002401E04FF0C1
:1044A000FF34204610BD00006C00002070B5FFF7FF
:1044B0008DFF10B16FF005041FE01148006801285E
:1044C00019D100BF801F0021002804DB0A07130E4A
:1044D0000C4A135406E00A07150E0B4A00F00F03AE
:1044E0001B1FD55400BF00BF02200549086001F022
:1044F0003BF8002401E04FF0FF34204670BD00007F
:104500006C00002000E400E018ED00E02DE9FF471A
:1045100080468946144600200390FFF757FF002885
:104520004ED1B8F1000F4BD0802618258246471E89
:1045300044B3206808B1D4F800A0A06900B1A5690F
:104540002DB1382D03D8207900F0010018B10020DA
:1045500004B0BDE8F087606908B160698608A068AA
:1045600040B1E0685C2805D3206918B1606908B1E2
:10457000012708E0A06830B9E06820B9206910B9C7
:10458000002700E00027012F0CD12169A0684B46CD
:104590003246CDE9005102905146404601F098FC68
:1045A00003900DE067B903A8B2B24B465146CDE97E
:1045B0000050404601F05AFC012801D00020039031
:1045C0000398C5E72DE9F04105460E4616480768F1
:1045D00016480068001D00F0C3FD681C38B936B1EC
:1045E00012480168091D124800F010FE1AE07C19FB
:1045F0000E4800684460BC4207D20C480168091D9F
:104600000C48006800F0E8FD0CE008480168091D4E
:104610000948006800F0E0FD08480068844201D2C3
:1046200006480460BDE8F081300000201C00002036
:10463000E807002024000020200000204C0000207B
:1046400010B5044600F0EEFD24480068401C2349E4
:1046500008602348006840B92148046008460068A3
:1046600001280DD100F0FCF90AE01E48006838B9B5
:104670001B480068C06AE16A884201D81848046093
:1046800019480068401C18490860084600686064C2
:104690001649E06A0968884202D91449E06A08604C
:1046A000E16A01EB8101124A02EB8100211D00F059
:1046B000ADFD00F0E1FD0B48006868B108480068F6
:1046C000C06AE16A884207D24FF080500949086009
:1046D000BFF34F8FBFF36F8F10BD00002C00002081
:1046E0001C0000203800002048000020340000207A
:1046F0003803002004ED00E008B500F093FD1248F7
:104700000068E8B9114800F057FD114800F054FD69
:104710000E48104908600E480F49086000200F4BF2
:104720000F4A102100900A2001F098F8064908600D
:104730000846006820B10BA10348006800F05CFE49
:1047400000F09AFD08BD000060000020FC0700207A
:1047500010080020580000205C00002024080020E1
:1047600074080020546D72510000000010B516E06E
:1047700000F058FD0C48C068C468201D00F0F0FC33
:104780000A480068401E0949086009480068401E40
:104790000749086000F070FD204600F05FF804480B
:1047A00000680028E4D110BDD40700202C000020B0
:1047B0002800002070B504460D46206C70B1216CB5
:1047C000E0680144E160D4E90210884201D3216825
:1047D000E1602846226CE168FBF72FFE70BD2DE9F1
:1047E000F04104460F4615464FF00008A66B206CBA
:1047F00048B9206800282CD1A06801F07FFC8046D1
:104800000020A06025E07DB93946226C6068FBF786
:1048100014FE216C606808446060D4E9010188429C
:1048200017D32068606014E03946226CE068FBF71B
:1048300004FE216CE068411AE1602168E06888426A
:1048400003D2216CA068411AE160022D01D106B1AA
:10485000761E701CA0634046BDE8F08110B504468A
:1048600094F8590030B9206B00F024FD204600F088
:1048700021FD1AE094F85900012803D1204600F0E8
:1048800019FD12E094F85900022801D1012000E03E
:10489000002050B900BF502080F31188BFF34F8F24
:1048A000BFF36F8F00BF00BFFEE710BD0146084A8F
:1048B000126812680AB9012200E000220A600A6840
:1048C00022B9034A1268D268106800E000207047DD
:1048D0005800002030B54FF47053174800F007041B
:1048E0002CB1C01D20F00700134C041B1B1B0246FB
:1048F000124C22600024114D6C60D018083820F052
:1049000007000F4C206000240D4D2D686C600C4D8D
:104910002D682C601146441A4C60094C24680C60C8
:10492000084D4C682C60084D4C682C604FF00044DA
:10493000064D2C6030BD0000CC0F00207000002020
:1049400078000020800000207C0000208C000020E7
:1049500000BFFFF70BFF064800680128F9D94FF0A8
:10496000805004490860BFF34F8FBFF36F8FF0E7AB
:104970003803002004ED00E02DE9F04106460D4625
:1049800017469846069C0DB9246000E02760E66350
:1049900025640121204600F0D1FF84F84C80BDE859
:1049A000F0812DE9F05F82460E4690469B460A9FB5
:1049B0000C9C4FEA8801A522206BFBF783FDA8F130
:1049C0000100216B01EB800929F0070909F00700BC
:1049D00008B9012000E0002050B900BF502080F34A
:1049E0001188BFF34F8FBFF36F8F00BF00BFFEE78B
:1049F00086B1002507E0715D04F134004155705D1A
:104A000000B902E06D1C102DF5D300BF002143203A
:104A1000015502E0002084F83400382F00D33727F6
:104A2000E762E76400202065201D00F0D2FB04F15E
:104A3000180000F0CEFB2461C7F13800A061646269
:104A40000020606584F858005A465146484600F0F8
:104A500071FB20600B9808B10B980460BDE8F09FD3
:104A600010B5002407E004EB84010F4A02EB81003B
:104A700000F0A2FB641C382CF5D30C4800F09CFB22
:104A80000B4800F099FB0B4800F096FB0A4800F039
:104A900093FB0A4800F090FB044809490860044869
:104AA0000849086010BD0000380300209807002066
:104AB000AC070020C0070020D4070020E807002032
:104AC000200000202400002010B50146164800E018
:104AD000006803688B42FBD30246436813448B4251
:104AE00004D143684C682344436001460A464B683E
:104AF00013440468A34211D10C4C03682468A342F8
:104B000008D04B680468646823444B6003681B68E2
:104B10000B6005E0054B1B680B6001E003680B6050
:104B2000884200D0016010BD700000207800002095
:104B30002DE9F04104460D4616461F464FF0000889
:104B400065602461B5420CD8F01BA169884202D38C
:104B50004FF0010811E0211D0948006800F03CFBFE
:104B60000BE0BE4204D2BD4202D34FF0010804E084
:104B7000211D0448006800F02FFB4046BDE8F0818D
:104B80005C0000205800002070B5054600F04AFB8C
:104B9000A86B08B9012400E0002400F06DFB20465A
:104BA00070BD70B5054600F03DFBA86BE96B88420F
:104BB00001D1012400E0002400F05EFB204670BD1E
:104BC000F8B505460F461A480068C068C468201D3D
:104BD00000F0C6FA94F8280000F00400E8B1A069DB
:104BE00041192B463A462046FFF7A2FFD8B10020D4
:104BF00003462A4601460090204601F0DBFB0646AC
:104C000056B900BF502080F31188BFF34F8FBFF318
:104C10006F8F00BF00BFFEE705E094F8280020F08A
:104C2000010084F828002046216A8847F8BD00006A
:104C300058000020F0B587B0A0E00398002811DAF2
:104C400004AE56B900BF502080F31188BFF34F8FD8
:104C5000BFF36F8F00BF00BFFEE7D6E90020B16849
:104C6000904700BF03980028E6DB059C606908B9FF
:104C7000012000E0002010B9201D00F071FA02A808
:104C800000F0DEF8054603980A2875D2DFE800F048
:104C900009050739416306083A4200BF00BF00BF5B
:104CA00000BF94F8280040F0010084F82800049820
:104CB000A269811803462A462046FFF739FFF8B15A
:104CC0002046216A884794F8280000F00400B8B113
:104CD000002000900498A16942180023194620463C
:104CE00001F068FB074657B900BF502080F31188D8
:104CF000BFF34F8FBFF36F8F00BF00BFFEE700BF52
:104D00003BE000BF94F8280020F0010084F8280060
:104D100033E000BF94F8280040F0010084F8280038
:104D20000498A061A06908B1012000E0002050B9FA
:104D300000BF502080F31188BFF34F8FBFF36F8FF8
:104D400000BF00BFFEE7A06941192B462A46204656
:104D5000FFF7EEFE11E094F8280000F0020018B909
:104D6000204600F0A7FA05E094F8280020F00100A2
:104D700084F8280001E0FFE700BF00BF002203A97C
:104D80000448006800F078FF00287FF456AF07B0B1
:104D9000F0BD000060000020F8B505460C4600F0AC
:104DA0003FFC684600F04CF80646009820BB44B92A
:104DB000B54206D801F040FA31462846FFF700FF19
:104DC0001CE03CB10E480068006808B9012000E012
:104DD00000200446A91B22460A48006800F022FB76
:104DE00001F02AFA50B94FF0805007490860BFF32C
:104DF0004F8FBFF36F8F01E001F01EFAF8BD000086
:104E00005C0000206000002004ED00E00A49096811
:104E1000096809B9012100E0002121B14FF0FF31FB
:104E2000064A116006E004490968C968C868034A6F
:104E30004168116070470000200000204C000020F5
:104E400070B5044601F0B2F805460748006885428F
:104E500004D200F00BF80120206001E00020206067
:104E600001480560284670BD680000202DE9F84320
:104E700034E025480068C068056823480068C068B9
:104E8000C468201D00F06CF92046216A884794F818
:104E9000280000F0040008B3A0694619AE4207D903
:104EA00066602461211D1848006800F095F915E03E
:104EB000002003462A4601460090204601F07AFA77
:104EC000074657B900BF502080F31188BFF34F8FBA
:104ED000BFF36F8F00BF00BFFEE700BF0A48006846
:104EE000006808B9012000E000200028C1D0064871
:104EF000D0F8008005480068034908600348C0F8FE
:104F00000080BDE8F8830000580000205C0000200D
:104F10000E480068401C08B9012000E0002050B98C
:104F200000BF502080F31188BFF34F8FBFF36F8F06
:104F300000BF00BFFEE700BF502080F31188BFF321
:104F40004F8FBFF36F8F00BF00BFFEE790000020C0
:104F500008B500BF6846FFF7A9FC04462046009943
:104F6000FFF71AFFFFF766FEF4E770B5044600F09E
:104F700059F994F9455010E0606A08B9012000E041
:104F8000002038B904F1240001F00AF918B100F04A
:104F9000A9FA00E003E0681E45B2002DECDC00BF7A
:104FA000FF2084F8450000F067F900F03BF994F920
:104FB000445010E0206908B9012000E0002048B901
:104FC00004F1100001F0ECF808B100F08BFA681E53
:104FD00045B200E001E0002DECDC00BFFF2084F8CA
:104FE000440000F049F970BD2DE9F04104464FF04E
:104FF000000800F015FB4948006808B9FFF76AFC93
:10500000474800682040002870D1D4B1083404F02B
:105010000700B0B104F00700C0F10800044404F038
:10502000070008B9012000E0002050B900BF50205F
:1050300080F31188BFF34F8FBFF36F8F00BF00BFA6
:10504000FEE7002C52D03748006884424ED8364ED6
:105050003046056801E02E462D686868A04202D2FD
:1050600028680028F7D12D48006885423ED0306876
:1050700000F10808286830606868001B102819D9FA
:105080002F1907F0070008B9012000E0002050B9EF
:1050900000BF502080F31188BFF34F8FBFF36F8F95
:1050A00000BF00BFFEE76868001B78606C60384690
:1050B000FFF70AFD1B4968680968081A1949086062
:1050C0000846006819490968884203D215480068F3
:1050D000164908601249686809680843686000203A
:1050E000286013480068401C1149086001F0A4F8CA
:1050F00008F0070008B9012000E0002050B900BF07
:10510000502080F31188BFF34F8FBFF36F8F00BF24
:1051100000BFFEE74046BDE8F081000078000020B7
:105120008C0000207C000020700000208000002007
:1051300084000020001F4FF080730360001F21F0E7
:1051400001030360001F054B036014380260001F59
:105150006FF002030360203870470000114F000811
:1051600001460A69D1E901309860D1E9010358602C
:105170005068884201D1886850600020086110683A
:10518000401E106010687047034B0360034B0B60B8
:10519000802313607047000014090020700900206C
:1051A000034B0360034B0B604FF480731360704735
:1051B000700B0020CC0B002000F1080141604FF083
:1051C000FF31816000F10801C160016100210160CF
:1051D000704700210161704710B502460B685C1CE6
:1051E0000CB9106907E002F1080000E0406844686B
:1051F00024689C42FAD944684C604C68A16088607D
:1052000041600A611468641C146010BD42684A6001
:1052100093688B60936859609160086103685B1CB8
:105220000360704700BF502080F31188BFF34F8F99
:10523000BFF36F8F00BF0E480068401C0C49086028
:1052400008460068012812D10A480068C0B208B9AF
:10525000012000E0002050B900BF502080F31188E9
:10526000BFF34F8FBFF36F8F00BF00BFFEE77047E4
:105270009000002004ED00E00D48006850B900BF28
:10528000502080F31188BFF34F8FBFF36F8F00BFA3
:1052900000BFFEE706480068401E05490860084652
:1052A000006820B9002080F3118800BF00BF70475C
:1052B0009000002070B506463546002E44D0083DCB
:1052C0002C46224960680968084008B1012000E0C6
:1052D000002050B900BF502080F31188BFF34F8FDA
:1052E000BFF36F8F00BF00BFFEE7206808B9012041
:1052F00000E0002050B900BF502080F31188BFF3B8
:105300004F8FBFF36F8F00BF00BFFEE70F4960688C
:1053100009680840C0B12068B0B90C4960680968E4
:105320008843606000F07CF90949606809680844B6
:10533000074908602046FFF7C7FB06480068401C85
:105340000449086000F078FF70BD00008C00002068
:105350007C0000208800002000204FF0E021086140
:105360008861064800684FF47A71B0FBF1F0401E86
:105370004FF0E021486107200861704718000020C5
:1053800070B5FAF7BFFF0446102C16D304F1E020E5
:1053900090F8F05315480078854201DB012000E0C9
:1053A000002050B900BF502080F31188BFF34F8F09
:1053B000BFF36F8F00BF00BFFEE70D48006800F429
:1053C000E0600C490968884201D8012000E0002013
:1053D00050B900BF502080F31188BFF34F8FBFF347
:1053E0006F8F00BF00BFFEE770BD0000940000207B
:1053F0000CED00E098000020024600200BE0084B76
:1054000053F8303033B9064B43F8301003EBC00388
:105410005A6002E0401C0828F1D300BF704700002A
:10542000F80200202DE9F04105460E4617462C46AD
:10543000FFF7F8FE94F94400401C10B9002084F8EE
:10544000440094F94500401C10B9002084F8450040
:10545000FFF712FFA06B28B93A46314604F1240049
:1054600000F062F82046FFF780FDBDE8F081000003
:1054700070B504460025D4B11248006808B901206F
:1054800000E0002050B900BF502080F31188BFF326
:105490004F8FBFF36F8F00BF00BFFEE700F0C0F873
:1054A00000212046FFF78EF800F0C6FE05463DB904
:1054B0004FF0805004490860BFF34F8FBFF36F8FE8
:1054C00070BD00005400002004ED00E003490968AD
:1054D00001600349096841607047000044000020F2
:1054E0003000002001200149086070474000002082
:1054F00070B504460D4654B900BF502080F31188A2
:10550000BFF34F8FBFF36F8F00BF00BFFEE70548AB
:10551000016818312046FFF75FFE01212846FFF79A
:1055200051F870BD1C00002070B505460E461446AB
:1055300055B900BF502080F31188BFF34F8FBFF3E0
:105540006F8F00BF00BFFEE706480168183128468C
:10555000FFF75CFE0CB14FF0FF3621463046FFF7F7
:1055600031F870BD1C00002010B586B000200590F9
:10557000049003AA04A905A8FFF706FE0022DDE9AE
:1055800004101346CDE9002102901EA11F48039A82
:1055900000F09EFC1E4908600846006808B101241E
:1055A00000E00024012C02D100F0C8FE0446012CCA
:1055B00015D100BF502080F31188BFF34F8FBFF388
:1055C0006F8F00BF4FF0FF30124908600120124971
:1055D000086000201149086000F072F810E0601CBB
:1055E00008B1012000E0002050B900BF502080F336
:1055F0001188BFF34F8FBFF36F8F00BF00BFFEE76F
:1056000006B010BD49444C45000000005149000857
:10561000500000204C000020380000203000002006
:1056200002480068401C014908607047540000208F
:105630001E48006818B101201D49086034E00020B0
:105640001B4908601B4801680CE051B900BF50209D
:1056500080F31188BFF34F8FBFF36F8F00BF00BF80
:10566000FEE7491E01EB8100134A52F8200008B9F9
:10567000012000E000200028E7D101EB81020E4B61
:1056800003EB820042685268426000F108024368FE
:10569000934202D14268526842604268D268074B26
:1056A0001A600448016000BF7047000054000020E9
:1056B0004000002034000020380300201C0000209F
:1056C0001CB5524800685249884201D0012000E0D0
:1056D000002050B900BF502080F31188BFF34F8FD6
:1056E000BFF36F8F00BF00BFFEE74848006848491E
:1056F000491E884201D0012000E0002050B900BFBF
:10570000502080F31188BFF34F8FBFF36F8F00BF1E
:1057100000BFFEE73F49084600780190FF200A4697
:1057200010700846007800909DF8000000F0F0002E
:105730009DF80020904201D1012000E0002050B9E6
:1057400000BF502080F31188BFF34F8FBFF36F8FDE
:1057500000BF00BFFEE79DF8000000F050002E4A99
:10576000107007202D4A106009E02C480068401E88
:105770002A4A10609DF800004006000E00909DF837
:10578000000000F080008028EFD024480068C0F1BD
:105790000700042801D1012000E0002050B900BF1B
:1057A000502080F31188BFF34F8FBFF36F8F00BF7E
:1057B00000BFFEE7194800680002184A1060104652
:1057C000008800F4E0601060124A019810700F48E1
:1057D0002030006840F470000C4920310860084611
:1057E000006840F070400860FFF7B6FD00200C49EB
:1057F0000860FAF74FFD0B48006840F04040094947
:105800000860FAF733FD00201CBD000000ED00E049
:1058100071C20F4100E400E09400002098000020D5
:105820009000002034EF00E010B500BF502080F35E
:105830001188BFF34F8FBFF36F8F00BF00F0BCFB29
:1058400018B14FF080500449086000BF002080F379
:10585000118800BF10BD000004ED00E02DE9F84301
:1058600080460E4617461D46DDF82090B8F1000F21
:1058700001D0012000E0002050B900BF502080F38B
:105880001188BFF34F8FBFF36F8F00BF00BFFEE7DC
:105890000DB1012000E0002050B900BF502080F37E
:1058A0001188BFF34F8FBFF36F8F00BF00BFFEE7BC
:1058B00007B10EB1012000E0002050B900BF502018
:1058C00080F31188BFF34F8FBFF36F8F00BF00BF0E
:1058D000FEE707B90EB9012000E0002050B900BF73
:1058E000502080F31188BFF34F8FBFF36F8F00BF3D
:1058F00000BFFEE7502000900098502801D1012001
:1059000000E0002050B900BF502080F31188BFF3A1
:105910004F8FBFF36F8F00BF00BFFEE700BF2C4665
:105920004CB1012084F846004B463A463146404689
:105930000094FFF721F82046BDE8F88370B50546CE
:105940000E462C4654B900BF502080F31188BFF397
:105950004F8FBFF36F8F00BF00BFFEE7FFF762FC02
:10596000D4E90F12206801FB0200A0600020A063B0
:1059700020686060E06B401E226C216800FB021111
:10598000E160FF2084F8440084F845009EB9206956
:1059900008B9012000E00020A8B904F1100000F0CF
:1059A000FFFB80B14FF0805009490860BFF34F8F73
:1059B000BFF36F8F07E004F11000FFF7FDFB04F168
:1059C0002400FFF7F9FBFFF757FC012070BD000032
:1059D00004ED00E02DE9FF4383B0064688461D46EE
:1059E0004FF00009344654B900BF502080F31188AD
:1059F000BFF34F8FBFF36F8F00BF00BFFEE7B8F15B
:105A0000000F01D1206C08B9012000E0002050B93E
:105A100000BF502080F31188BFF34F8FBFF36F8F0B
:105A200000BF00BFFEE7022D02D1E06B012801D1CB
:105A3000012000E0002050B900BF502080F3118801
:105A4000BFF34F8FBFF36F8F00BF00BFFEE700F0C3
:105A50009DFA08B9059808B9012000E0002050B966
:105A600000BF502080F31188BFF34F8FBFF36F8FBB
:105A700000BF00BFFEE700BFFFF7D4FBA06BE16BE8
:105A8000884201D3022D28D12A4641462046FEF7FE
:105A9000A6FE0746606A08B9012000E0002068B948
:105AA00004F1240000F07CFB88B14FF080503249B3
:105AB0000860BFF34F8FBFF36F8F08E03FB14FF027
:105AC00080502D490860BFF34F8FBFF36F8FFFF7F2
:105AD000D3FB012007B0BDE8F083059818B9FFF7A4
