:020000040800F2
:10000000985800200D030008712F00089D2C00084F
:10001000652E00080107000889370008000000006D
:100020000000000000000000000000004D02000879
:10003000EF0A000800000000A902000825300008AF
:1000400027030008270300082703000827030008E8
:1000500027030008270300082703000827030008D8
:1000600027030008270300082703000827030008C8
:10007000C509000827030008D50900082703000860
:1000800027030008270300082703000825070008A6
:1000900005070008150700082703000827030008C4
:1000A0002703000827030008270300082703000888
:1000B0002703000827030008270300082703000878
:1000C0002703000827030008270300082703000868
:1000D00027030008270300082703000879370008D2
:1000E0002703000827030008270300082703000848
:1000F0002703000827030008270300082703000838
:100100002703000827030008270300082703000827
:100110002703000827030008270300080D31000803
:100120002703000827030008270300082703000807
:1001300027030008270300082703000855070008C5
:1001400035070008450700082703000827030008B3
:1001500027030008270300082703000827030008D7
:1001600027030008270300082703000827030008C7
:1001700027030008270300082703000800000000E9
:1001800027030008270300082703000827030008A7
:100190002703000827030008270300082703000897
:1001A00000000000000000002703000800F002F833
:1001B00000F03CF80AA090E8000C82448344AAF1C5
:1001C0000107DA4501D100F031F8AFF2090EBAE8C3
:1001D0000F0013F0010F18BFFB1A43F0010318477B
:1001E000AC580000CC580000103A24BF78C878C141
:1001F000FAD8520724BF30C830C144BF04680C602D
:10020000704700000023002400250026103A28BF74
:1002100078C1FBD8520728BF30C148BF0B60704778
:100220001FB505F0EFFB1FBD10B510BD00F0D0F9F4
:100230001146FFF7F5FF03F048FB00F0EEF903B4B9
:10024000FFF7F2FF03BC00F0F5F900002C4B196832
:100250000868B0E8F04F80F30988BFF36F8F4FF064
:10026000000080F311887047000000000848006813
:10027000006880F308884FF0000080F3148862B6AD
:1002800061B6BFF34F8FBFF36F8F00DF00BF00BFBA
:1002900008ED00E0DFF80C00016841F47001016036
:1002A000704700BF88ED00E0EFF30980BFF36F8F68
:1002B000134B1A681EF0100F08BF20ED108A20E9BA
:1002C000F04F106009B44FF0500080F31188BFF375
:1002D0004F8FBFF36F8F04F087FC4FF0000080F367
:1002E000118809BC19680868B0E8F04F1EF0100FBB
:1002F00008BFB0EC108A80F30988BFF36F8F704796
:100300001C000020EFF3058070470000094880477B
:1003100009480047FEE7FEE7FEE7FEE7FEE7FEE7E7
:10032000FEE7FEE7FEE7FEE704480549054A064BFF
:1003300070470000F9300008AD0100089852002015
:1003400098580020985400209854002053EA020C3A
:1003500000F069802DE9F04B4FF00006002B1FBF25
:10036000B3FA83F503FA05F424FA05F65E4012BFEA
:100370001643B2FA82F502FA05F4C5F120051EBF54
:1003800022FA05FC44EA0C04203556EA044C4FEAF4
:10039000144418BF641C4FF000084FF0000990424D
:1003A00071EB030C39D3002919BFB1FA81F701FAB7
:1003B00007F6B0FA80F700FA07F6C7F120071EBF6C
:1003C00020FA07FC46EA0C062037B6FBF4FCA7EB44
:1003D0000507103F07F01F0BCBF120060CFA0BFBB3
:1003E0002CFA06F644BFB3460026202FA4BF5E4673
:1003F0004FF0000B5BEA060C08BF4FF0010B19EB46
:100400000B09ABFB027C48EB0608C01B06FB02CCC9
:100410000BFB03CC71EB0C01C1E70B4602464146D6
:100420004846BDE8F08B13B54FF000004FF00001D7
:10043000AFF30080BDE81C407047032A40F23080D3
:1004400010F0030C00F0158011F8013BBCF1020F15
:10045000624498BF11F801CB00F8013B38BF11F896
:10046000013BA2F1040298BF00F801CB38BF00F8AD
:10047000013B11F0030300F05780083AC0F00880F8
:1004800051F8043B083A51F804CBA0E80810F5E70E
:10049000121D5CBF51F8043B40F8043BAFF30080F1
:1004A000D20724BF11F8013B11F801CB48BF11F866
:1004B000012B24BF00F8013B00F801CB48BF00F836
:1004C000012B704702F0FF0343EA032242EA024293
:1004D00000F05EB84FF0000200B513469446964611
:1004E000203922BFA0E80C50A0E80C50B1F1200147
:1004F000BFF4F7AF090728BFA0E80C5048BF0CC0F5
:100500005DF804EB890028BF40F8042B08BF704752
:1005100048BF20F8022B11F0804F18BF00F8012BC4
:10052000704770477047704710B5203AC0F00B8095
:10053000B1E81850203AA0E81850B1E81850A0E8E7
:100540001850BFF4F5AF5FEA027C24BFB1E8185041
:10055000A0E8185044BF18C918C0BDE810405FEAB1
:10056000827C24BF51F8043B40F8043B08BF70472D
:10057000D20728BF31F8023B48BF11F8012B28BF32
:1005800020F8023B48BF00F8012B70474FF00002F3
:100590000429C0F0128010F0030C3FF49DAFCCF1A1
:1005A000040CBCF1020F18BF00F8012BA8BF20F803
:1005B000022BA1EB0C01FFF78FBF5FEAC17C24BFC8
:1005C00000F8012B00F8012B48BF00F8012B704701
:1005D000754600F02BF8AE4605006946534620F0FC
:1005E0000700854618B020B5FFF79EFEBDE8204005
:1005F0004FF000064FF000074FF000084FF0000BDF
:1006000021F00701AC46ACE8C009ACE8C009ACE891
:10061000C009ACE8C0098D46704710B50446AFF379
:1006200000802046BDE81040FFF709BE0048704733
:100630003452002001491820ABBEFEE7260002001C
:10064000704700004178027841EA022109B201EEC8
:10065000101AC178827841EA022109B200EE101A1C
:100660004179027941EA022109B200EE901AB8EE0E
:10067000C12ADFED212AC2EE221AB0EE002A61EE75
:10068000821A1E49C1ED001AF8EEC01ADFED1A2ACF
:1006900081EEA22AF0EE001A62EE211AC1ED011AD3
:1006A000B8EEE02ADFED142AC2EE221AB0EE082AD4
:1006B00061EE821AC1ED021A8179104A82F8DC15C6
:1006C000114691F8DC15012904D002290DD0032927
:1006D0000AD104E00021094A82F8DD150AE001216F
:1006E000064A82F8DD1505E000BF0221034A82F8C0
:1006F000DD1500BF00BF704700803B45144B002054
:1007000000BFFEE710B5024800F051FB10BD00002D
:10071000A000002010B5024800F049FB10BD000009
:10072000A000002010B5024800F041FB10BD000001
:10073000A000002010B5024800F039FB10BD0000F9
:10074000C800002010B5024800F031FB10BD0000C9
:10075000C800002010B5024800F029FB10BD0000C1
:10076000C8000020F0B58BB007460C4615461E4663
:1007700004F0010008B10BB0F0BDC4F3400000B1BB
:10078000F9E76805000C0190002002907005000C4C
:10079000039000200490E0080690002007900120BC
:1007A000089009900E200A90C4F38000059001A9DA
:1007B000384600F0A1F900BFDDE710B50446204639
:1007C00000F0DFFD2068406940F0020021684861C8
:1007D0002068406940F010002168486110BD0000A9
:1007E0000948D0F8E005B0F5FA7F07D20648D0F8FE
:1007F000E005401C0449C1F8E00503E0002002497F
:1008000081F8E40570470000144B002010B5002467
:100810001BE0C4EB0412354901EB82009FED341A52
:10082000DFED340A9FED340A02F01EFBC4EB041224
:100830002E49F03101EB82009FED301ADFED300AD6
:10084000B7EE000A02F010FB641C042CE1DB00246C
:1008500049E0C4EBC40101EB41022A4901EB8200EB
:1008600000219FED293ADFED222A9FED212ADFEDBD
:10087000271A9FED251ADFED240A9FED230A02F0C7
:1008800079FBC4EBC40101EB4102214901EB820079
:1008900000219FED1D3ADFED1F2A9FED1E2ADFED9F
:1008A0001B1A9FED191ADFED180A9FED170A02F0C7
:1008B00061FBC4EBC40101EB4102174901EB82006B
:1008C00000219FED113ADFED0D2A9FED0C2ADFED9F
:1008D0000F1A9FED0D1ADFED0C0A9FED0B0A02F0C7
:1008E00049FB601CC4B2042CB3DB10BD204B0020BC
:1008F0000000804600803B45BE9F99410060EA466B
:100900000000A043004D0020000000006F12833A59
:10091000504E0020920A0642A04F002070B50446B7
:100920000D462068A0F2012030B1012809D002282C
:100930000DD0032817D110E029460C4802F0AEFA7A
:1009400011E0294609483C3002F0A8FA0BE029469C
:100950000648783002F0A2FA05E029460348B43090
:1009600002F09CFA00BF00BF70BD0000204B0020C9
:1009700070B504460D462068A0F2052030B101286C
:1009800009D002280DD0032817D110E029460C48C1
:1009900002F084FA11E0294609483C3002F07EFA60
:1009A0000BE029460648783002F078FA05E029463F
:1009B0000348B43002F072FA00BF00BF70BD0000FF
:1009C000104C002010B5024800F07CFD10BD000066
:1009D0009801002010B5024800F074FD10BD000021
:1009E000380100200146087810381823B0FBF3F2D4
:1009F0000848805CC865032A05D908686FF30900B8
:100A0000001D886503E008686FF309008865886D3C
:100A100070470000585A0008014600208A6A8B6916
:100A2000CBB932B1012A0DD0022A03D0032A10D14A
:100A30000EE000BFCB6A03F08073B3F1807F00D17A
:100A4000012007E0CB6AB3F1C07F00D1012001E0B3
:100A500000E000BF34E08B69B3F5005F1AD132B11A
:100A6000012A07D0022A03D0032A11D10AE000BFCD
:100A700001200EE0CB6A03F08073B3F1807F00D1D8
:100A8000012006E0CB6AB3F1C07F00D1012000E075
:100A900000BF15E032B1012A05D0022A04D0032A92
:100AA0000CD103E000BF00BF012008E0CB6A03F0D7
:100AB0008073B3F1807F00D1012000E000BF00BF50
:100AC000704730B50468246824F4802405682C60DD
:100AD000046863608468402C04D10468A2600468E0
:100AE000E16003E00468A1600468E26030BD704723
:100AF00072B600BFFEE70000F0B504460A4694F85F
:100B00002050012D01D0022D7ED1424901F5007106
:100B1000086840F001000860086820F47C50086014
:100B20000868566A40EA06200860107D00F01F063B
:100B3000012000FA06F3C8699843C861A1F5007165
:100B4000D069C8B9D1F80C029843C1F80C0290885A
:100B500080B2968940EA064601F51070576940F860
:100B60003760108880B2168940EA064601F5107099
:100B7000576900EBC7004660D069012819D1D1F848
:100B80000C021843C1F80C02908880B2168840EA23
:100B9000064601F51070576940F83760908980B2B9
:100BA000168940EA064601F51070576900EBC70048
:100BB0004660906928B9D1F804029843C1F804024C
:100BC00004E0D1F804021843C1F80402106928B9FE
:100BD000D1F814029843C1F8140204E0D1F81402C9
:100BE0001843C1F81402106A012804D1D1F81C027C
:100BF0001843C1F81C02D1F8000220F00100C1F82E
:100C000000020020F0BDFFE7606A40F480206062CF
:100C10000120F7E700640040704770B5044694F87F
:100C20002050012D01D0022D7DD151B92068C0681E
:100C300000F0030080B9606A40F400106062012097
:100C400070BD2068006900F0030028B9606A40F4B4
:100C5000001060620120F3E7206800F5D87000EB17
:100C60000110006800F004009060906840B92068AE
:100C700000F5D87000EB01100068400D106007E02F
:100C8000206800F5D87000EB01100068C0085060C3
:100C9000206800F5D87000EB0110006800F0020039
:100CA000D060206800F5D87000EB0110406800F0BB
:100CB0000F00082802D30820106108E0206800F522
:100CC000D87000EB0110406800F00F001061206840
:100CD00000F5D87000EB0110406800F47F40000A76
:100CE0009061206800F5D87000EB01104068000C9E
:100CF0005061206800F5D87000EB01108068187012
:100D0000206800F5D87000EB0110806800F47F4087
:100D1000000A5870206800F5D87000EB0110806858
:100D200000F47F0000E03CE0000C9870206800F5C3
:100D3000D87000EB01108068000ED870206800F5B4
:100D4000D87000EB0110C0681871206800F5D870E9
:100D500000EB0110C06800F47F40000A5871206861
:100D600000F5D87000EB0110C06800F47F00000CA3
:100D70009871206800F5D87000EB0110C068000E73
:100D8000D87131B92068C06840F020002668F06052
:100D900005E02068006940F02000266830610020EE
:100DA0004EE7606A40F480206062012048E72DE948
:100DB000F05F04460025206846692068D0F804905A
:100DC000206887682068D0F80CA02068D0F810B0A0
:100DD0002068D0F8188006F00100002855D007F0F0
:100DE0000100C0B101202168886007F0020018B13D
:100DF000204600F0F6FA0EE007F0040010B145F4CA
:100E0000006508E007F0080010B145F4805502E0E5
:100E1000204600F0E5FA07F48070C8B14FF4807006
:100E20002168886007F4007018B1204600F0DBFAF2
:100E30000EE007F4806010B145F4005508E007F4B7
:100E4000006010B145F4804502E0204600F0CAFA87
:100E500007F48030C8B14FF480302168886007F40F
:100E6000003018B1204600F0C0FA0EE007F48020F0
:100E700010B145F4004508E007F4002010B145F436
:100E8000803502E0204600F0AFFA06F0080038B1E5
:100E90000AF0100020B145F4007510202168C860E8
:100EA00006F0040040B10AF0080028B108202168CB
:100EB000C860204600F02EFA06F0020038B1206823
:100EC000C06800F0030010B1204600F025FA06F0DB
:100ED000400038B10BF0100020B145F480651020BF
:100EE0002168086106F0200040B10BF0080028B12D
:100EF000082021680861204600F040FA06F0100042
:100F000038B12068006900F0030010B1204600F0FD
:100F100036FA06F4003040B109F0100028B1102074
:100F200021684860204600F02BFA06F4803040B17A
:100F300009F0080028B1082021684860204600F028
:100F400055FA06F4004088B309F0040078B306F4BB
:100F5000807020B108F0010008B145F0010506F4E9
:100F6000007020B108F0020008B145F0020506F457
:100F7000806020B108F0040008B145F0040506F4D3
:100F80000060A0B108F0700088B108F0700040283F
:100F900017D006DC10280BD020280CD0302819D10F
:100FA0000CE0502810D0602814D110E01DE019E0AA
:100FB00045F008050FE045F010050CE045F0200570
:100FC00009E045F0400506E045F0800503E045F402
:100FD000807500E000BF00BF2068806920F07000CD
:100FE000216888610420216848602DB1606A284327
:100FF00060622046FFF710FEBDE8F09F70B5044622
:101000000CB9012070BD94F8200010B9204600F002
:10101000AFF82068006840F001002168086000F027
:1010200039FD05460DE000F035FD401B0A2808D9C2
:10103000606A40F400306062052084F820000120DE
:10104000E0E72068406800F001000028EBD020684D
:10105000006820F002002168086000F01BFD0546D2
:101060000DE000F017FD401B0A2808D9606A40F423
:1010700000306062052084F820000120C2E720686B
:10108000406800F002000028EBD1207E012806D144
:101090002068006840F080002168086005E0206852
:1010A000006820F0800021680860607E012806D179
:1010B0002068006840F040002168086005E0206872
:1010C000006820F0400021680860A07E012806D159
:1010D0002068006840F020002168086005E0206872
:1010E000006820F0200021680860E07E012806D119
:1010F0002068006820F010002168086005E0206882
:10110000006840F0100021680860207F012806D1A7
:101110002068006840F008002168086005E0206849
:10112000006820F0080021680860607F012806D16F
:101130002068006840F004002168086005E020682D
:10114000006820F0040021680860D4E90201084327
:1011500021690843616908436168491E08432168A1
:10116000C86100206062012084F82000002049E767
:1011700010B586B00446142101A8FFF7ABF95F490A
:101180002068884251D15E480068401C5C49086074
:101190000846006801280FD100BF00200090594880
:1011A000006840F00070574908600846006800F089
:1011B0000070009000BF00BF00BF002000905148A9
:1011C0001038006840F008004E49103908600846A1
:1011D000006800F00800009000BF00BF03200190ED
:1011E0000220029000200390032004900920059023
:1011F00001A9454800F046FB00220521132000F01C
:1012000011FD132000F0FAFC00220521142000F04B
:1012100009FD142000F0F2FC00220521152000F049
:1012200001FD152000F0EAFC65E03849206888429D
:1012300061D100BF002000903248006840F080601B
:10124000304908600846006800F08060009000BFE8
:1012500000BF2B480068401C294908600846006808
:1012600001280FD100BF002000902648006840F000
:101270000070244908600846006800F00070009083
:1012800000BF00BF00BF002000901E48103800685B
:1012900040F002001B49103908600846006800F061
:1012A0000200009000BF00BF4FF4405001900220A8
:1012B000029000200390032004900920059001A9CA
:1012C000134800F0DFFA002205213F2000F0AAFCBD
:1012D0003F2000F093FC00220521402000F0A2FCFA
:1012E000402000F08BFC00220521412000F09AFCF8
:1012F000412000F083FC06B010BD000000640040F7
:101300000800002040380240000C02400068004005
:10131000000402407047000010B58AB0044601ABDB
:1013200003AA00212046FFF778FC00201249C1F8EB
:10133000E0050398B0F5407F03D101A8FFF782F9DB
:1013400018E00398B0F5007F08D90398B0F5017F45
:1013500004D801A903A8FFF7E1FA0BE00398B0F560
:10136000017F07D90398B0F5027F03D801A903A82C
:10137000FFF7FEFA0AB010BD144B0020704770470B
:10138000704770B5044694F82000012822D102204D
:1013900084F820002068006820F0010021680860BF
:1013A00000F078FB05460DE000F074FB401B0A28B6
:1013B00008D9606A40F400306062052084F820009B
:1013C000012070BD2068406800F001000028EBD1CA
:1013D0006062F6E7606A40F4002060620120F0E796
:1013E000704770477047704770477047704770B5D7
:1013F0000446A56D00F04EFB064694F83500022821
:1014000008D08020606500BF002084F8340000BF51
:10141000012070BD2068006820F016002168086077
:101420002068406920F0800021684861206C08B97C
:10143000A06C28B12068006820F0080021680860CE
:101440002068006820F001002168086010E000F0CA
:1014500021FB801B05280BD920206065032084F820
:10146000350000BF002084F8340000BF0320D0E71F
:101470002068006800F001000028E8D194F85C10B2
:101480003F208840A860012084F8350000BF00207C
:1014900084F8340000BF00BFBBE7014691F8350077
:1014A000022803D08020486501207047052081F87C
:1014B00035000868006820F001000A68106000200C
:1014C000F3E70000F8B50446002000908C4800685F
:1014D0004FF41651B0FBF1F7A56D2E6894F85C102F
:1014E00008208840304098B12068006800F004006F
:1014F00070B12068006820F004002168086094F84A
:101500005C1008208840A860606D40F001006065B4
:1015100094F85C1001208840304068B12068406930
:1015200000F0800040B194F85C1001208840A86071
:10153000606D40F00200606594F85C100420884003
:10154000304068B12068006800F0020040B194F8B3
:101550005C1004208840A860606D40F00400606565
:1015600094F85C1010208840304078B32068006800
:1015700000F0080050B394F85C1010208840A86078
:101580002068006800F4802080B12068006800F4C2
:10159000002028B9206CC8B12046216C884715E08E
:1015A000A06C98B12046A16C88470FE020680068C5
:1015B00000F4807028B92068006820F008002168D5
:1015C0000860206C10B12046216C884794F85C10AC
:1015D000202088403040002865D02068006800F056
:1015E000100000285FD094F85C1020208840A8608C
:1015F00094F83500052828D12068006820F01600EE
:10160000216808602068406920F0800021684861F6
:10161000206C08B9A06C28B12068006820F0080090
:101620002168086094F85C103F208840A860012081
:1016300084F8350000BF002084F8340000BF206D1E
:1016400010B12046216D8847F8BD2068006800F47D
:10165000802080B12068006800F4002028B9606C08
:1016600010B12046616C88471DE0E06BD8B1204680
:10167000E16B884717E02068006800F4807068B963
:101680002068006820F0100021680860012084F8BC
:10169000350000BF002084F8340000BFE06B10B1BB
:1016A0002046E16B8847606D38B3606D00F0010043
:1016B000F0B1052084F835002068006820F00100B2
:1016C0002168086000BF0098401C0090B84200D913
:1016D00005E02068006800F001000028F3D100BF99
:1016E000012084F8350000BF002084F8340000BFDA
:1016F000E06C10B12046E16C884700BFA4E7000011
:10170000180000202DE9F0410446002500F0C2F940
:10171000074614B90120BDE8F081606A00B100BF3E
:10172000022084F8350000BF002084F8340000BF98
:101730002068006820F00100216808600AE000F0DD
:10174000A9F9C01B052805D920206065032084F86D
:101750003500E0E72068006800F001000028EED1C5
:101760002068056821480540D4E901010843E16883
:1017700008432169084361690843A1690843E16995
:101780000843216A08430543606A042803D1D4E969
:101790000B0108430543206805602068456925F072
:1017A0000705606A0543606A04280DD1A06A0543F5
:1017B000E06A48B12046FFF72FF928B14020606564
:1017C000012084F83500A6E7206845612046FFF730
:1017D00009F9064694F85C103F208840B06000206C
:1017E0006065012084F83500002094E73F8010F008
:1017F0002DE9F04704460D4616461F464FF00008F7
:10180000D4F8589000BF94F83400012802D1022087
:10181000BDE8F087012084F8340000BF94F835005B
:10182000012825D1022084F83500002060653B4660
:10183000324629462046FFF744F994F85C103F20D1
:101840008840C9F808002068006840F01600216848
:101850000860206C28B12068006840F0080021680A
:1018600008602068006840F001002168086006E018
:1018700000BF002084F8340000BF4FF0020840464B
:10188000C6E70000F8B502460B46002500240020FC
:101890000021E0E0012606FA01F51E6806EA0504CB
:1018A000AC4274D11E7906F00306012E04D01E79D5
:1018B00006F00306022E13D190684F000326BE40A7
:1018C000B0434F00DE68BE40304390605068012650
:1018D0008E40B0431E79C6F300168E4030435060F0
:1018E0001E7906F00306032E09D0D0684F000326A8
:1018F000BE40B0434F009E68BE403043D0601E796A
:1019000006F00306022E13D1CF0802F1200656F886
:1019100027004E07F70E0F26BE40B0434F07FF0EBD
:101920001E69BE403043CF0802F1200646F827006A
:1019300010684F000326BE40B0431E7906F0030630
:101940004F00BE40304310605E6806F44036002E03
:101950001DD000BF00260096414E366846F48046F2
:101960003F4F3E603E46366806F48046009600BF14
:1019700000BF3C4E8F0856F827008E07370F0F2602
:10198000BE40B043384EB24202D100262EE061E0A4
:10199000364EB24201D1012628E0354EB24201D185
:1019A000022623E0334EB24201D103261EE0324E1E
:1019B000B24201D1042619E0304EB24201D10526CF
:1019C00014E02F4EB24201D106260FE02D4EB24256
:1019D00001D107260AE02C4EB24201D1082605E0CB
:1019E0002A4EB24201D1092600E00A268F073F0F96
:1019F000BE4030431B4E8F0846F82700244E306807
:101A0000A0435E6806F4801606B12043204E306085
:101A1000361D3068A0435E6806F4001606B1204308
:101A20001B4E361D30601A4E361F3068A0435E686C
:101A300006F4003606B12043154E361F3060361FBF
:101A40003068A0435E6806F4803606B12043104E2D
:101A5000083E3060491C1029FFF41CAFF8BD00009F
:101A600044380240083801400000024000040240AF
:101A700000080240000C0240001002400014024026
:101A800000180240001C02400020024000240240D6
:101A9000083C014001480068704700000C0000202D
:101AA0000348006803490978084401490860704701
:101AB0000C0000201400002010B50D48006840F410
:101AC00000700B4908600846006840F480600860B8
:101AD0000846006840F480700860032000F0E0F8D9
:101AE0000F2000F007F800F05FF8002010BD0000A4
:101AF000003C02402DE9F04188B004460027B8467A
:101B000000BF002001902348006840F020002149D8
:101B100008600846006800F02000019000BF00BF88
:101B200002A903A800F0D8F9069F1FB900F0FCF93C
:101B3000054602E000F0F8F945001748B5FBF0F063
:101B4000A0F1010815481649086040F2E731144831
:101B5000C160C0F80480002101618160816100F0F2
:101B6000ABFC064696B90E4800F0DAFC06466EB9A4
:101B7000372000F043F8102C07D2002221463720EE
:101B800000F050F80748046000E00126304608B035
:101B9000BDE8F0814038024040420F000014004090
:101BA000F80100201000002008B500BF00200090C0
:101BB0001148006840F480400F49086008460068FA
:101BC00000F48040009000BF00BF00BF00200090E4
:101BD000081F006840F08050091F08600846006830
:101BE00000F08050009000BF00BF00220F21901E27
:101BF00000F018F808BD00004438024001460846CD
:101C000000280DDB00BF00BF00F01F0301229A4037
:101C100043099B0003F1E023C3F8002100BF00BF8C
:101C200000BF70472DE9F05F80460D46164600273D
:101C300001F02CFE074639462A46334601F00700DC
:101C4000C0F1070ABAF1040F02D94FF0040A01E00B
:101C5000C0F1070AD14600F1040ABAF1070F02D217
:101C60004FF0000A01E0A0F1030AD4464FF0010A48
:101C70000AFA09FAAAF1010A0AEA020A0AFA0CFAAD
:101C80004FF0010B0BFA0CFBABF1010B0BEA030B52
:101C90004AEA0B042146404601F000FEBDE8F09FF1
:101CA00000BF00F00702064B19684FF6FF0319400A
:101CB000044B0B4343EA0221014B196000BF7047FC
:101CC0000CED00E00000FA0538B5002400BF00204C
:101CD00000901D48006840F080501B49086008468D
:101CE000006800F08050009000BF00BF012017493D
:101CF0000864FFF7CFFE044607E0FFF7CBFE001BAA
:101D0000B0F57A7F01D9032038BD1148406800F44E
:101D10008030B0F5803FF0D101200C494864FFF7D6
:101D2000B9FE044607E0FFF7B5FE001BB0F57A7F69
:101D300001D90320E8E70648406800F40030B0F518
:101D4000003FF0D10020DFE74038024000000E42A3
:101D50000070004070B504460D460CB9012070BDFE
:101D60005848006800F00F00A84209D255490D708C
:101D70000846006800F00F00A84201D00120EEE7FD
:101D8000207800F0020002281DD1207800F0040025
:101D9000042805D14C48006840F4E0504A490860E6
:101DA000207800F00800082805D14748006840F472
:101DB0006040454908604448006820F0F000A16890
:101DC000084341490860207800F00100A8B360682A
:101DD000012807D13C4808380068C0F34040B8B932
:101DE0000120BCE76068022802D06068032807D1A0
:101DF000354808380068C0F3406048B90120AEE7B4
:101E0000314808380068C0F3400008B90120A6E74F
:101E10002D48006820F00300616808432A490860E3
:101E2000FFF738FE064609E0FFF734FE801B41F25B
:101E30008831884202D9032091E707E022480068F0
:101E400000F00C006168B0EB810FEDD11D48006817
:101E500000F00F00A84209D91A490D700846006821
:101E600000F00F00A84201D0012078E7207800F0B0
:101E70000400042807D11448006820F4E050E16809
:101E8000084311490860207800F00800082808D1AC
:101E90000D48006820F46040216940EAC1000A4909
:101EA000086000F061F808490968C1F30311074AA6
:101EB000515CC8400649086006480068FFF71AFEF2
:101EC00000204CE7003C024008380240605A0008FD
:101ED00018000020100000200F2202600D4A126836
:101EE00002F0030242600B4A126802F0F0028260C4
:101EF000084A126802F4E052C260064A126802F40C
:101F00006042D2080261044A126802F00F020A60BD
:101F10007047000008380240003C02400148006859
:101F2000704700001800002000B5FFF7F7FF0449D4
:101F30000968C1F38221034A515CC84000BD00001A
:101F400008380240705A000800B5FFF7E7FF04495F
:101F50000968C1F34231034A515CC84000BD00002A
:101F600008380240705A00082DE9F0470024002587
:101F70000026A1462548006800F00C0020B1042886
:101F800005D008283AD105E0DFF8849039E0DFF881
:101F9000849036E01D48001F006800F03F041B4895
:101FA000001F006800F4800078B11A481749091F23
:101FB0000968C1F38811A0FB017001462246002385
:101FC0003846FEF7C3F905460EE011480F49091FD0
:101FD0000968C1F38811A0FB017001462246002365
:101FE0003846FEF7B3F905460848001F0068C0F3FD
:101FF0000140401C4600B5FBF6F902E0DFF8109006
:1020000000BF00BF4846BDE8F08700000838024026
:102010000024F400001BB700F8B504460CB90120F9
:10202000F8BD207800F00100002874D0F94800685D
:1020300000F00C0004280DD0F648006800F00C00F9
:10204000082813D1F348001F006800F48000B0F5A1
:10205000800F0BD1EF4808380068C0F340400028DB
:1020600059D06068002856D10120D9E700BF6068C8
:10207000B0F5803F08D1E7480838006840F4803068
:10208000E449083908601EE06068B0F5A02F0DD162
:10209000E0480838006840F48020DE4908390860CC
:1020A0000846006840F4803008600CE0D9480838E1
:1020B000006820F48030D749083908600846006875
:1020C00020F48020086000BF606890B1FFF7E2FC58
:1020D000054606E0FFF7DEFC401B642801D903201B
:1020E0009EE7CC4808380068C0F340400028F1D093
:1020F00011E0FFF7CFFC054606E0FFF7CBFC401BE5
:10210000642801D903208BE7C24808380068C0F36F
:1021100040400028F1D1207800F0020002285FD171
:10212000BC48006800F00C0058B1BA48006800F0E4
:102130000C0008281CD1B748001F006800F480007C
:10214000B0B9B44808380068C0F3400020B1E06876
:10215000012801D0012063E7AE480838006820F06C
:10216000F800216940EAC100AA490839086037E04F
:10217000E06800B30120A8490860FFF78BFC054622
:1021800006E0FFF787FC401B022801D9032047E740
:10219000A04808380068C0F340000028F1D09D48EE
:1021A0000838006820F0F800216940EAC100994928
:1021B0000839086014E0002097490860FFF76AFCBE
:1021C000054606E0FFF766FC401B022801D9032004
:1021D00026E7904808380068C0F340000028F1D195
:1021E000207800F0080008282CD16069A8B10120EF
:1021F0008A490860FFF74EFC054606E0FFF74AFCF7
:10220000401B022801D903200AE782486C3000688D
:10221000C0F340000028F1D014E000207F4908609E
:10222000FFF738FC054606E0FFF734FC401B0228A8
:1022300001D90320F4E677486C300068C0F3400011
:102240000028F1D1207800F00400042870D1002784
:1022500070483830006800F0805090B900BF00200E
:1022600000906C483830006840F08050694938313F
:1022700008600846006800F08050009000BF00BF72
:1022800001276748006800F48070B0B964480068AE
:1022900040F4807062490860FFF7FCFB054606E0E9
:1022A000FFF7F8FB401B022801D90320B8E65C4881
:1022B000006800F480700028F2D000BFA0680128F8
:1022C00008D154486830006840F001005149683135
:1022D00008601DE0A06805280DD14E4868300068F0
:1022E00040F004004B49683108600846006840F03F
:1022F000010008600CE047486830006820F00100E9
:102300004449683108600846006820F0040008600D
:1023100000BFA068A8B1FFF7BDFB054609E0FFF7C5
:10232000B9FB401B41F28831884202D9032077E68D
:1023300026E0384868300068C0F340000028EED03E
:1023400013E0FFF7A7FB054608E0FFF7A3FB401BE0
:1023500041F28831884201D9032061E62D48683076
:102360000068C0F340000028EFD1012F07D12948B1
:102370003830006820F0805026493831086000BFAE
:10238000A069002845D02348006800F00C00082808
:102390005DD0A069022845D100201F490866FFF7DB
:1023A00079FB054606E0FFF775FB401B022801D9C3
:1023B000032035E6174808380068C0F3406000285D
:1023C000F1D1D4E907010843616A40EA8111012291
:1023D000A06AC2EB500041EA00412C20005D41EAB6
:1023E00000600C49091F086001200B490866FFF7CF
:1023F00051FB054606E0FFF74DFB401B022801D9C3
:1024000003200DE6034808380068C0F34060002848
:10241000F1D049E00838024000004742800E4742B0
:1024200000700040002021490866FFF733FB054695
:1024300006E0FFF72FFB401B022801D90320EFE540
:102440001B480068C0F340600028F2D12CE0A0696E
:10245000012800D1E4E51648001D0668A06901289E
:1024600020D006F48001E06981421BD106F03F01D3
:10247000206A814216D147F6C0703040616AB0EBE5
:10248000811F0FD106F440310122A06AC2EB500037
:10249000B1EB004F06D106F070612C20005DB1EB6E
:1024A000006F01D00120BBE50020B9E500004742E4
:1024B000003802407047704710B504460CB901203F
:1024C00010BD94F83D0028B9002084F83C00204657
:1024D00000F025F8022084F83D00211D206800F05E
:1024E0001DFE012084F8460000BF84F83E00012153
:1024F0003F200155402001554120015500BF00BF3C
:10250000012084F842004320015544200155452014
:10251000015500BF012084F83D000020D0E770473E
:10252000014691F83D00012801D0012070470220AA
:1025300081F83D000868C06840F001000B68D86071
:102540001A4B086898421BD00868B0F1804F17D02A
:10255000174B0868984213D0164B086898420FD062
:10256000154B086898420BD0144B0868984207D066
:10257000134B0868984203D0124B086898420CD15C
:102580000868806800F00702062A0CD00868006816
:1025900040F001000B68186005E00868006840F032
:1025A00001000B6818600020C0E700000000014037
:1025B0000004004000080040000C004000040140FE
:1025C0000040014000180040704770B50446206884
:1025D000C5682068066906F00200022819D105F0D6
:1025E0000200022815D1401F2168086101202077D0
:1025F0002068806900F0030018B12046FFF7E4FF6F
:1026000005E0204600F097F8204600F095F80020FD
:10261000207706F00400042819D105F004000428EE
:1026200015D1C043216808610220207720688069A5
:1026300000F4407018B12046FFF7C6FF05E02046C1
:1026400000F079F8204600F077F80020207706F0B7
:102650000800082819D105F00800082815D1C04342
:1026600021680861042020772068C06900F0030019
:1026700018B12046FFF7A8FF05E0204600F05BF800
:10268000204600F059F80020207706F010001028AE
:1026900019D105F01000102815D1C0432168086138
:1026A000082020772068C06900F4407018B12046E7
:1026B000FFF78AFF05E0204600F03DF8204600F0D5
:1026C0003BF80020207706F0010048B105F001003A
:1026D00030B16FF0010021680861204600F02EF84B
:1026E00006F08000802809D105F08000802805D1FF
:1026F000C043216808612046FFF7DCFE06F0400079
:10270000402809D105F04000402805D1C043216888
:102710000861204600F01EF806F02000202809D1AC
:1027200005F02000202805D1C0432168086120461B
:10273000FFF7C1FE70BD70477047000010B504463A
:1027400003492068884201D1FFF7AAF910BD0000B3
:102750000014004070477047704700002DE9F84FA3
:102760000446206805682068C668206847694FF0FD
:102770000009CA4605F00F09B9F1000F0AD105F0AA
:10278000200038B106F0200020B1204600F02FFED6
:10279000BDE8F88FB9F1000F7CD007F0010018B93F
:1027A00006F49070002875D005F0010030B106F4F1
:1027B000807018B1606C40F00100606405F00400A6
:1027C00030B107F0010018B1606C40F002006064A5
:1027D00005F0020030B107F0010018B1606C40F064
:1027E0000400606405F0080048B106F0200010B94C
:1027F00007F0010018B1606C40F008006064606C84
:10280000002846D005F0200028B106F0200010B1C5
:10281000204600F0ECFD20684069C0F3801A606C2F
:1028200000F0080010B9BAF1000F2DD0204600F0DA
:1028300085FD2068406900F04000402820D100BF9D
:1028400000BF2168143151E8001F21F040002168C9
:10285000143141E80002002AF3D100BFE06B50B10F
:102860007F48E16B0865E06BFEF717FE88B1E06B0F
:10287000016D88470DE02046FFF76EFF09E009E093
:102880002046FFF769FF04E02046FFF765FF0020C0
:1028900060647DE7206B012878D105F010000028E6
:1028A00074D006F010000028FAD000BF002000907D
:1028B00020680068009020684068009000BF00BF5A
:1028C0002068406900F04000402870D1E06B00684B
:1028D00040681FFA80F8B8F1000F58D0A08D40452D
:1028E00055DDA4F82E80E06BC069B0F5807F43D041
:1028F00000BF00BF21680C3151E8001F21F4807037
:1029000021680C3141E80002002AF3D100BF00BF6A
:1029100000BF2168143151E8001F21F00100216837
:10292000143141E80002002AF3D100BF00BF00BF0C
:102930002168143151E8001F21F040002168143152
:1029400041E80002002AF3D100BF202084F84200B1
:102950000020206300BF00BF21680C3151E8001F38
:1029600021F0100021680C3141E80002002AF3D167
:1029700000BFE06BFEF73BFD02206063A08DE28D9F
:10298000801A81B22046FFF7E6FE0EE052E0A08DED
:1029900040450AD1E06BC069B0F5807F05D10220C7
:1029A0006063A18D2046FFF7D6FEF1E6FFE7A08D1C
:1029B000E18D401A1FFA80F8E08DD0B3B8F1000F16
:1029C00037D000BF00BF21680C3151E8001F21F44F
:1029D000907021680C3141E80002002AF3D100BF59
:1029E00000BF00BF2168143151E8001F21F0010031
:1029F0002168143141E80002002AF3D100BF2020F1
:102A000084F842000020206300BF00BF21680C3121
:102A100051E8001F21F0100021680C3141E800024C
:102A2000002AF3D100BF0220606341462046FFF731
:102A300092FEADE605F0800030B106F0800018B1DE
:102A4000204600F069FEA3E605F0400030B106F034
:102A5000400018B1204600F0A7FC99E600BF97E6B9
:102A60007532000810B504460CB9012010BDA069EC
:102A700000B100E000BF94F8410028B9002084F8BC
:102A80004000204600F02AF8242084F84100206805
:102A9000C06820F400502168C860204600F026FD80
:102AA0002068006920F4904021680861206840692E
:102AB00020F02A00216848612068C06840F4005076
:102AC0002168C86000206064202084F8410084F8F8
:102AD00042000020606300BFC8E7000010B586B068
:102AE0000446142101A8FDF7F5FC3D492068884201
:102AF00074D100BF002000903A48006840F4802064
:102B0000384908600846006800F48020009000BF43
:102B100000BF00BF0020009032481038006840F02D
:102B200008003049103908600846006800F00800C5
:102B3000009000BF00BF4FF440700190022002904F
:102B400000200390032004900720059001A9264847
:102B5000FEF798FE2548264908604FF0006048605F
:102B60004021234881600021C1604FF480610161F0
:102B7000002141618161C16101624162FEF7C2FDD4
:102B800008B1FDF7B5FF00BF1948A063846300BF1B
:102B900016483038174908604FF00060486000213F
:102BA00014488160C1604FF480610161002141617E
:102BB0008161C16101624162FEF7A4FD08B1FDF7C8
:102BC00097FF00BF0B48E063846300BF002205212C
:102BD0002720FFF727F82720FFF710F806B010BDD1
:102BE0000048004040380240000C0240586002405B
:102BF000380100209801002070470000F7B5044616
:102C0000154694F8410020283ED1019800B10DB935
:102C10000120FEBD01982062A584E5840020606447
:102C2000212084F841001948A16BC8631848A16BA2
:102C300008641848A16BC8640020A16B086501AE48
:102C400023681A1D31682B46A06BFEF7D1FD30B109
:102C500010206064202084F841000120D9E76FF043
:102C600040002168086000BF00BF2168143151E8AE
:102C7000001F41F080002168143141E80002002A61
:102C8000F3D100BF0020C4E70220C2E7D73200081A
:102C90002F330008873200087047704700BFFEE7F7
:102CA00010B50E480E4908600320486000210C480A
:102CB0008160C1604FF4102101614FF44011416106
:102CC0000021017641768176C17601774177FEF762
:102CD00095F908B1FDF70CFF10BD0000006400403D
:102CE000A000002010B50E480E490860032048607F
:102CF00000210C488160C1604FF4102101614FF444
:102D0000401141610021017641768176C1760177DB
:102D10004177FEF773F908B1FDF7EAFE10BD000038
:102D200000680040C800002008B500BF00200090E7
:102D30000E48006840F400100C490860084600681E
:102D400000F40010009000BF00BF002205210C20FD
:102D5000FEF768FF0C20FEF751FF002205210E2030
:102D6000FEF760FF0E20FEF749FF08BD3038024035
:102D700010B5074A0021074800F03AFE06490860EE
:102D8000064A0021064800F033FE0649086010BDDF
:102D9000105A00080D32000800000020345A0008C4
:102DA000FD3100080400002008B500BF002000909D
:102DB0001D48006840F001001B4908600846006893
:102DC00000F00100009000BF00BF00BF0020009095
:102DD0000846006840F0080008600846006800F0F7
:102DE0000800009000BF00BF00BF00200090084610
:102DF000006840F0800008600846006800F080002D
:102E0000009000BF00BF00BF00200090084600688F
:102E100040F0020008600846006800F002000090E0
:102E200000BF00BF08BD00003038024010B50B489D
:102E30000B4908604FF4E130486000210848816088
:102E4000C16001610C21416100218161C161FFF715
:102E500009FE08B1FDF74CFE10BD0000004800401F
:102E6000F000002000BFFEE710B52DED048B0446F6
:102E7000B0EE409AB0EE608AF0EE418A14B9BDEC33
:102E8000048B10BD3C212046FDF724FB84ED089AFD
:102E900084ED098AC4ED0A8A00BFF0E730B500B1BD
:102EA00001B930BD0024C486012480F8384004886C
:102EB00023B24C780D7844EA05240480CC788D78D0
:102EC00044EA052424B244804C790D7944EA05246F
:102ED00024B284808C7984710488E41A22B212F5B9
:102EE000805F03DA8469641C846105E0B2F5805F69
:102EF00002DD8469641E84610588846905EB4434BD
:102F0000C46190ED070AF8EEC00A9FED161A80EE34
:102F1000810AF0EE000A20EE200ADFED130A20EE0F
:102F2000200AD0ED080A80EE201A80ED021AB0F9CE
:102F3000024000EE104AB8EEC00ADFED0C0A20EEA7
:102F4000200AD0ED080A80EE201A80ED031AB0F9AD
:102F5000044000EE104AB8EEC00A80ED040A00BF3B
:102F60009FE7000000000046DB0F49405077D63D48
:102F700000BFFEE700B9704780ED000AC0ED010A0E
:102F800080ED021ADFED253AC0ED033ADFED233A7A
:102F9000C0ED043ADFED213AC0ED053ADFED1F3A0E
:102FA000C0ED063ADFED1D3AC0ED083ADFED1B3A01
:102FB000C0ED093ADFED193AC0ED0A3ADFED173AF4
:102FC000C0ED073A80ED0D2AF1EE423AC0ED0E3A1F
:102FD000C0ED0F2AF1EE623AC0ED103A80ED113AE1
:102FE000DFED0F3AC0ED123AF6EE003AC0ED133ABB
:102FF00080F85010C0ED0B1AF5EEC01AF1EE10FA81
:1030000006DDF7EE003A83EEA14A80ED0C4A03E0BC
:10301000DFED023AC0ED0C3A00BFACE70000000063
:103020000000C84210B54FF0E020006902F08AFAB3
:10303000012801D001F0D4FE10BD000000B593B00E
:10304000302107A8FDF746FA142102A8FDF742FA3D
:1030500000BF002001902648006840F080502449BD
:1030600008600846006800F08050019000BF00BF73
:1030700000BF002001901F48006840F440401D49F7
:1030800008600846006800F44040019000BF00BF9F
:10309000012007900004089002200D9041050E9138
:1030A00006210F91B4211091022111910421129156
:1030B00007A8FEF7B1FF08B1FDF71AFDFEF704FE01
:1030C00008B1FDF715FD0F200290022003900020AB
:1030D00004904FF4A05005904FF4805006900521C5
:1030E00002A8FEF737FE08B1FDF702FD13B000BDE0
:1030F00040380240007000400348006840F470000F
:10310000014908607047000088ED00E010B50248F2
:10311000FFF75BFA10BD0000F801002010B502684F
:103120002B4B98420ED0B0F1804F0BD0294B9842D8
:1031300008D0294B984205D0284B984202D0284B02
:10314000984203D122F070024B681A43204B9842F8
:1031500020D0B0F1804F1DD01E4B98421AD01E4B8C
:10316000984217D01D4B984214D01D4B984211D055
:103170001C4B98420ED01C4B98420BD01B4B9842D4
:1031800008D01B4B984205D01A4B984202D01A4BDC
:10319000984203D122F44072CB681A4322F0800394
:1031A0004C6943EA04028B68C3620B688362084B74
:1031B000984202D00A4B984201D10B69036303681D
:1031C00043F00403036001234361026010BD00006B
:1031D000000001400004004000080040000C0040D6
:1031E000000401400040014000440140004801400B
:1031F00000180040001C004000200040FDF706FBC6
:1032000000BF012000F077FBFBE700001648FDF748
:10321000D4FA1648FDF7D1FA154800F0D7FA40F273
:10322000FF734FF4407200210F48FDF79BFA4FF4F3
:10323000FE634FF4007208210B48FDF793FA4FF438
:10324000FE6340F2FF1270210848FDF78BFA00F090
:103250007BFB044600BFFDF7C3FA00F097FA641C3D
:10326000204600F057FBF6E7A0000020C800002031
:10327000F000002070B50446A56B0020E8852846C4
:10328000FFF76AFA70BD70B506460025B46B20687A
:103290004069C0F3C01594F84100212805D125B13B
:1032A0000020E084204600F08FF820684069C0F3D9
:1032B000801594F84200222805D125B10020E08530
:1032C000204600F03BF8606C40F01000606420463F
:1032D000FFF742FA70BD70B50546AC6B2868006810
:1032E00000F48070F8B90020E08400BF00BF2168BE
:1032F000143151E8001F21F080002168143141E8A9
:103300000002002AF3D100BF00BF00BF21680C31CA
:1033100051E8001F41F0400021680C3141E80002F3
:10332000002AF3D102E02046FFF7B6FC70BD70B56D
:103330000446A56B2846FFF7B0FC70BD00BF00BF78
:1033400002680C3252E8002F22F4907102680C32AD
:1033500042E80013002BF3D100BF00BF00BF02689A
:10336000143252E8002F22F001010268143242E8C0
:103370000013002BF3D100BF016B01290ED100BF58
:1033800000BF02680C3252E8002F22F010010268E0
:103390000C3242E80013002BF3D100BF202180F84B
:1033A000421000210163704710B504462068C068D0
:1033B00020F040002168C860202084F841002046A9
:1033C000FFF76AFC002010BD00BF00BF02680C328E
:1033D00052E8002F22F0C00102680C3242E80013CC
:1033E000002BF3D100BF202180F841107047F8B5C1
:1033F00004460025002694F84200222873D1A068D4
:10340000B0F5805F0BD1206948B9A66A2068406892
:10341000C0F308003080A06A801CA06214E0A56A96
:10342000A068B0F5805F03D0A06828B9206918B9FA
:1034300020684068287004E02068406800F07F0041
:103440002870A06A401CA062E08D401E80B2E0851A
:10345000002846D12068C06820F020002168C8609C
:103460002068C06820F480702168C86020684069C6
:1034700020F0010021684861202084F842000020EB
:103480006063206B012826D10020206300BF00BFAD
:1034900021680C3151E8001F21F0100021680C3127
:1034A00041E80002002AF3D100BF2068006800F064
:1034B000100010280AD100BF00200090206800688A
:1034C000009020684068009000BF00BFA18D20469A
:1034D000FFF741F902E02046FFF78EFB0020F8BD20
:1034E00001E00020FBE70220F9E700002DE9F84F9A
:1034F00004462068006920F44050E16808432168D0
:1035000008612169A068084361690843E1690843CB
:1035100000902068C06849F20C6188430099084314
:103520002168C8602068406920F44070A1690843A0
:103530002168486176492068884203D0754920682F
:10354000884203D1FEF700FD814602E0FEF7ECFC65
:103550008146E069B0F5004F6CD102206168A0FBA4
:10356000015003461920A9FB007001462A4638463F
:10357000FCF7ECFE6421B0FBF1F04FEA001A0220E8
:103580006168A0FB01510B461920A9FB00712A4676
:103590003846FCF7DBFE834602206168A0FB015041
:1035A00003461920A9FB00712A463846FCF7CEFED7
:1035B0006421B0FBF1F000EBC00101EB0010ABEBBC
:1035C0008000322101EBC0006421B0FBF1F000F07B
:1035D000F8000AEB400A02206168A0FB0150034694
:1035E0001920A9FB007001462A463846FCF7AEFEBA
:1035F000834602206168A0FB015003461920A9FB05
:1036000000712A463846FCF7A1FE6421B0FBF1F0B8
:1036100000EBC00101EB0010ABEB8000322101EBAD
:10362000C0006421B0FBF1F000F0070050442168B5
:1036300088606AE004206168A0FB015003461920FD
:10364000A9FB007001462A463846FCF77FFE8246F9
:1036500004206168A0FB015003461920A9FB0070FB
:1036600001462A463846FCF771FE6421B0FBF1F0B2
:1036700000EBC00101EB0010AAEB8000322101EB4E
:1036800000106421B0FBF1F000F0F00A0420616842
:10369000A0FB017003461920A9FB00513A462846B9
:1036A000FCF754FE6421B0FBF1F00AEB001A042091
:1036B0006168A0FB01510B461920A9FB00712A4645
:1036C0003846FCF743FE834604206168A0FB0150A6
:1036D00003461920A9FB007001462A463846FCF72C
:1036E00035FE6421B0FBF1F000EBC00101EB0010EE
:1036F000ABEB8000322101EB00106421B0FBF1F054
:1037000000F00F00504421688860BDE8F88F000089
:103710000010014000140140014691F841002128A9
:1037200028D18868B0F5805F0BD1086948B90A6A6A
:103730001088C0F308000B685860086A801C086293
:1037400005E00B6A581C086218780B685860C88C32
:10375000401E80B2C88458B90868C06820F0800054
:103760000B68D8600868C06840F040000B68D860FB
:10377000002070470220FCE710B50248FEF7EEFF7C
:1037800010BD0000F000002000BFFEE708B50D48A6
:103790000068401C0B490860142800D208BD0020B6
:1037A000084908600848A0F13C03A0F17802A0F1A4
:1037B000B4010090042000F045F800F00DF800BFBF
:1037C000ECE700009C000020F04B0020014908605D
:1037D00070470000FC50002038B5184890F83401BC
:1037E00000B938BD002009E01449843101EB8002A2
:1037F000803151F8201009681160401C0F4991F880
:1038000034118142F0DC0EA0006800900B4890F863
:1038100034010A49843101EB8000009901600748B6
:1038200090F83401042101EB800404492246086821
:103830008431FFF7E3F900BFD3E70000FC5000201C
:103840000000807F0FB408B503A8009002980C28F0
:1038500001DD0C200290002008E000990A68094967
:1038600041F820200099091D0091401C02998842CE
:10387000F3DB0549029881F834010020009001B083
:103880005DF814FB00520020FC5000200248006844
:10389000C0F30220704700000CED00E010B50028D6
:1038A00004DB0A07130E054A135406E00A07140E38
:1038B000034A00F00F031B1FD45410BD00E400E0C6
:1038C00018ED00E0EFF305807047FEF7F5F8FFF71D
:1038D000B5FBFFF769FAFFF727FAFFF7A7FAFFF73B
:1038E000DFF9FFF7FFF900F03DF8FFF741FA00F0CC
:1038F0004FF800BFFEE770B50546FFF7E3FF10B1D4
:103900006FF0050404E0002415B1284601F022F808
:10391000204670BDF8B50646FFF7D4FF10B16FF032
:1039200005050FE0002501F01DFE00900098341AF7
:1039300034B1E00F20B92146684601F039F801E0C2
:103940006FF003052846F8BD10B5FFF7BBFF18B1AF
:1039500001F00EFE044602E001F004FE044620469B
:1039600010BD000010B5FFF7ADFF10B16FF00504FA
:1039700009E00648006820B90120044908600024D5
:1039800001E04FF0FF34204610BD00006C00002025
:1039900070B5FFF797FF10B16FF005041FE01148F5
:1039A0000068012819D100BF801F0021002804DB16
:1039B0000A07130E0C4A135406E00A07150E0B4AA9
:1039C00000F00F031B1FD55400BF00BF02200549A4
:1039D000086001F0A5F8002401E04FF0FF34204614
:1039E00070BD00006C00002000E400E018ED00E075
:1039F0002DE9FF4780468946144600200390FFF7D3
:103A000061FF00284ED1B8F1000F4BD08026182559
:103A10008246471E44B3206808B1D4F800A0A069CC
:103A200000B1A5692DB1382D03D8207900F001002F
:103A300018B1002004B0BDE8F087606908B1606982
:103A40008608A06840B1E0685C2805D3206918B1F9
:103A5000606908B1012708E0A06830B9E06820B9C2
:103A6000206910B9002700E00027012F0CD121693F
:103A7000A0684B463246CDE900510290514640467F
:103A800001F002FD03900DE067B903A8B2B24B4606
:103A90005146CDE90050404601F0C4FC012801D058
:103AA000002003900398C5E72DE9F04105460E4636
:103AB0001648076816480068001D00F0C3FD681C22
:103AC00038B936B112480168091D124800F010FEDD
:103AD0001AE07C190E4800684460BC4207D20C48CA
:103AE0000168091D0C48006800F0E8FD0CE008487A
:103AF0000168091D0948006800F0E0FD08480068F9
:103B0000844201D206480460BDE8F0813000002004
:103B10001C0000203007002024000020200000208E
:103B20004C00002010B5044600F0EEFD244800686B
:103B3000401C234908602348006840B921480460BC
:103B40000846006801280DD100F0FCF90AE01E4883
:103B5000006838B91B480068C06AE16A884201D829
:103B60001848046019480068401C18490860084655
:103B7000006860641649E06A0968884202D91449FD
:103B8000E06A0860E16A01EB8101124A02EB810000
:103B9000211D00F0ADFD00F0E1FD0B48006868B1AB
:103BA00008480068C06AE16A884207D24FF0805036
:103BB00009490860BFF34F8FBFF36F8F10BD00003E
:103BC0002C0000201C0000203800002048000020AD
:103BD000340000208002002004ED00E008B500F071
:103BE00093FD12480068E8B9114800F057FD1148EC
:103BF00000F054FD0E48104908600E480F49086057
:103C000000200F4B0F4A102100900A2001F002F90A
:103C1000064908600846006820B10BA10348006807
:103C200000F05CFE00F09AFD08BD0000600000207E
:103C30004407002058070020580000205C000020A6
:103C40006C070020BC070020546D7251000000007A
:103C500010B516E000F058FD0C48C068C468201D7F
:103C600000F0F0FC0A480068401E09490860094855
:103C70000068401E0749086000F070FD204600F013
:103C80005FF8044800680028E4D110BD1C0700203C
:103C90002C0000202800002070B504460D46206C42
:103CA00070B1216CE0680144E160D4E902108842FF
:103CB00001D32168E1602846226CE168FCF7BDFB76
:103CC00070BD2DE9F04104460F4615464FF000083F
:103CD000A66B206C48B9206800282CD1A06801F0A0
:103CE000F3FC80460020A06025E07DB93946226CB7
:103CF0006068FCF7A2FB216C606808446060D4E94E
:103D00000101884217D32068606014E03946226CB4
:103D1000E068FCF792FB216CE068411AE1602168E1
:103D2000E068884203D2216CA068411AE160022D4C
:103D300001D106B1761E701CA0634046BDE8F0813B
:103D400010B5044694F8590030B9206B00F024FDFA
:103D5000204600F021FD1AE094F85900012803D113
:103D6000204600F019FD12E094F85900022801D114
:103D7000012000E0002050B900BF502080F31188DE
:103D8000BFF34F8FBFF36F8F00BF00BFFEE710BDC3
:103D90000146084A126812680AB9012200E00022AE
:103DA0000A600A6822B9034A1268D268106800E003
:103DB000002070475800002030B54FF4705317486A
:103DC00000F007042CB1C01D20F00700134C041BA9
:103DD0001B1B0246124C22600024114D6C60D0184F
:103DE000083820F007000F4C206000240D4D2D688E
:103DF0006C600C4D2D682C601146441A4C60094CC7
:103E000024680C60084D4C682C60084D4C682C6090
:103E10004FF00044064D2C6030BD0000140F002010
:103E20007000002078000020800000207C0000202E
:103E30008C00002000BFFFF70BFF06480068012838
:103E4000F9D94FF0805004490860BFF34F8FBFF39A
:103E50006F8FF0E78002002004ED00E02DE9F041D3
:103E600006460D4617469846069C0DB9246000E0AC
:103E70002760E66325640121204601F03BF884F8C1
:103E80004C80BDE8F0812DE9F05F82460E469046F9
:103E90009B460A9F0C9C4FEA8801A522206BFCF7E9
:103EA00011FBA8F10100216B01EB800929F0070942
:103EB00009F0070008B9012000E0002050B900BF58
:103EC000502080F31188BFF34F8FBFF36F8F00BF77
:103ED00000BFFEE786B1002507E0715D04F1340004
:103EE0004155705D00B902E06D1C102DF5D300BF87
:103EF00000214320015502E0002084F83400382FCF
:103F000000D33727E762E76400202065201D00F01A
:103F1000D2FB04F1180000F0CEFB2461C7F1380099
:103F2000A06164620020606584F858005A465146DA
:103F3000484600F071FB20600B9808B10B980460B4
:103F4000BDE8F09F10B5002407E004EB84010F4AA0
:103F500002EB810000F0A2FB641C382CF5D30C4866
:103F600000F09CFB0B4800F099FB0B4800F096FB1F
:103F70000A4800F093FB0A4800F090FB0448094906
:103F8000086004480849086010BD00008002002055
:103F9000E0060020F4060020080700201C0700208F
:103FA00030070020200000202400002010B501462A
:103FB000164800E0006803688B42FBD30246436862
:103FC00013448B4204D143684C6823444360014648
:103FD0000A464B6813440468A34211D10C4C036891
:103FE0002468A34208D04B680468646823444B608B
:103FF00003681B680B6005E0054B1B680B6001E064
:1040000003680B60884200D0016010BD7000002082
:10401000780000202DE9F04104460D4616461F4663
:104020004FF0000865602461B5420CD8F01BA1690F
:10403000884202D34FF0010811E0211D09480068B1
:1040400000F03CFB0BE0BE4204D2BD4202D34FF075
:10405000010804E0211D0448006800F02FFB4046E1
:10406000BDE8F0815C0000205800002070B50546D6
:1040700000F04AFBA86B08B9012400E0002400F01E
:104080006DFB204670BD70B5054600F03DFBA86B8A
:10409000E96B884201D1012400E0002400F05EFBBE
:1040A000204670BDF8B505460F461A480068C0683E
:1040B000C468201D00F0C6FA94F8280000F004003F
:1040C000E8B1A06941192B463A462046FFF7A2FF06
:1040D000D8B1002003462A4601460090204601F050
:1040E0004FFC064656B900BF502080F31188BFF33D
:1040F0004F8FBFF36F8F00BF00BFFEE705E094F85E
:10410000280020F0010084F828002046216A884712
:10411000F8BD000058000020F0B587B0A0E003987B
:10412000002811DA04AE56B900BF502080F3118880
:10413000BFF34F8FBFF36F8F00BF00BFFEE7D6E91D
:104140000020B168904700BF03980028E6DB059C7B
:10415000606908B9012000E0002010B9201D00F0BE
:1041600071FA02A800F0DEF8054603980A2875D215
:10417000DFE800F009050739416306083A4200BF4D
:1041800000BF00BF00BF94F8280040F0010084F891
:1041900028000498A269811803462A462046FFF7A2
:1041A00039FFF8B12046216A884794F8280000F0CA
:1041B0000400B8B1002000900498A16942180023BF
:1041C0001946204601F0DCFB074657B900BF5020D6
:1041D00080F31188BFF34F8FBFF36F8F00BF00BF15
:1041E000FEE700BF3BE000BF94F8280020F001008C
:1041F00084F8280033E000BF94F8280040F0010064
:1042000084F828000498A061A06908B1012000E0AA
:10421000002050B900BF502080F31188BFF34F8FAA
:10422000BFF36F8F00BF00BFFEE7A06941192B46A7
:104230002A462046FFF7EEFE11E094F8280000F031
:10424000020018B9204600F0A7FA05E094F828000B
:1042500020F0010084F8280001E0FFE700BF00BF64
:10426000002203A90448006800F0E2FF00287FF460
:1042700056AF07B0F0BD000060000020F8B505465D
:104280000C4600F0A9FC684600F04CF80646009881
:1042900020BB44B9B54206D801F0B4FA31462846ED
:1042A000FFF700FF1CE03CB10E480068006808B949
:1042B000012000E000200446A91B22460A480068AD
:1042C00000F022FB01F09EFA50B94FF080500749F0
:1042D0000860BFF34F8FBFF36F8F01E001F092FAD8
:1042E000F8BD00005C0000206000002004ED00E04C
:1042F0000A490968096809B9012100E0002121B1D2
:104300004FF0FF31064A116006E004490968C968A8
:10431000C868034A4168116070470000200000200F
:104320004C00002070B5044601F01CF90546074812
:104330000068854204D200F00BF80120206001E003
:104340000020206001480560284670BD68000020FC
:104350002DE9F84334E025480068C0680568234823
:104360000068C068C468201D00F06CF92046216A0E
:10437000884794F8280000F0040008B3A0694619A3
:10438000AE4207D966602461211D1848006800F01C
:1043900095F915E0002003462A4601460090204684
:1043A00001F0EEFA074657B900BF502080F311889C
:1043B000BFF34F8FBFF36F8F00BF00BFFEE700BF9B
:1043C0000A480068006808B9012000E000200028C1
:1043D000C1D00648D0F8008005480068034908604D
:1043E0000348C0F80080BDE8F883000058000020B2
:1043F0005C0000200E480068401C08B9012000E065
:10440000002050B900BF502080F31188BFF34F8FB8
:10441000BFF36F8F00BF00BFFEE700BF502080F3E7
:104420001188BFF34F8FBFF36F8F00BF00BFFEE750
:104430009000002008B500BF6846FFF7A9FC0446BD
:1044400020460099FFF71AFFFFF766FEF4E770B504
:10445000044600F059F994F9455010E0606A08B933
:10446000012000E0002038B904F1240001F07EF9B9
:1044700018B100F013FB00E003E0681E45B2002D08
:10448000ECDC00BFFF2084F8450000F067F900F085
:104490003BF994F9445010E0206908B9012000E08C
:1044A000002048B904F1100001F060F908B100F0F3
:1044B000F5FA681E45B200E001E0002DECDC00BF1B
:1044C000FF2084F8440000F049F970BD2DE9F04167
:1044D00004464FF0000800F07FFB4948006808B927
:1044E000FFF76AFC474800682040002870D1D4B12B
:1044F000083404F00700B0B104F00700C0F1080070
:10450000044404F0070008B9012000E0002050B97D
:1045100000BF502080F31188BFF34F8FBFF36F8F20
:1045200000BF00BFFEE7002C52D03748006884422D
:104530004ED8364E3046056801E02E462D68686834
:10454000A04202D228680028F7D12D480068854291
:104550003ED0306800F10808286830606868001BA9
:10456000102819D92F1907F0070008B9012000E019
:10457000002050B900BF502080F31188BFF34F8F47
:10458000BFF36F8F00BF00BFFEE76868001B786055
:104590006C603846FFF70AFD1B4968680968081A0D
:1045A000194908600846006819490968884203D219
:1045B0001548006816490860124968680968084388
:1045C00068600020286013480068401C114908609A
:1045D00001F018F908F0070008B9012000E00020F8
:1045E00050B900BF502080F31188BFF34F8FBFF345
:1045F0006F8F00BF00BFFEE74046BDE8F0810000BE
:10460000780000208C0000207C000020700000203A
:104610008000002084000020001F4FF080730360A2
:10462000001F21F001030360001F054B03601438D5
:104630000260001F6FF00203036020387047000023
:10464000F543000801460A69D1E901309860D1E9D3
:10465000010358605068884201D18868506000208A
:1046600008611068401E106010687047034B0360BB
:10467000034B0B6080231360704700005C08002030
:10468000B8080020034B0360034B0B604FF48073AA
:1046900013607047B80A0020140B002000F10801D5
:1046A00041604FF0FF31816000F10801C16001619C
:1046B00000210160704700210161704710B502467A
:1046C0000B685C1C0CB9106907E002F1080000E0FF
:1046D0004068446824689C42FAD944684C604C683D
:1046E000A160886041600A611468641C146010BD98
:1046F00042684A6093688B60936859609160086172
:1047000003685B1C0360704700BF502080F3118872
:10471000BFF34F8FBFF36F8F00BF0E480068401C80
:104720000C49086008460068012812D10A48006850
:10473000C0B208B9012000E0002050B900BF5020ED
:1047400080F31188BFF34F8FBFF36F8F00BF00BF9F
:10475000FEE770479000002004ED00E00D4800687F
:1047600050B900BF502080F31188BFF34F8FBFF3C3
:104770006F8F00BF00BFFEE706480068401E054976
:1047800008600846006820B9002080F3118800BF47
:1047900000BF70479000002070B506463546002ED9
:1047A00044D0083D2C46224960680968084008B199
:1047B000012000E0002050B900BF502080F3118894
:1047C000BFF34F8FBFF36F8F00BF00BFFEE72068BE
:1047D00008B9012000E0002050B900BF502080F34C
:1047E0001188BFF34F8FBFF36F8F00BF00BFFEE78D
:1047F0000F49606809680840C0B12068B0B90C4929
:10480000606809688843606000F0E6F909496068FB
:1048100009680844074908602046FFF7C7FB0648B7
:104820000068401C0449086000F0ECFF70BD000007
:104830008C0000207C0000208800002000204FF029
:10484000E02108618861064800684FF47A71B0FB86
:10485000F1F0401E4FF0E0214861072008617047E9
:104860001800002070B5FBF74DFD0446102C16D340
:1048700004F1E02090F8F05315480078854201DB00
:10488000012000E0002050B900BF502080F31188C3
:10489000BFF34F8FBFF36F8F00BF00BFFEE70D4820
:1048A000006800F4E0600C490968884201D80120E2
:1048B00000E0002050B900BF502080F31188BFF302
:1048C0004F8FBFF36F8F00BF00BFFEE770BD0000CA
:1048D000940000200CED00E098000020024600202B
:1048E0000BE0084B53F8303033B9064B43F8301027
:1048F00003EBC0035A6002E0401C0828F1D300BF5C
:1049000070470000400200202DE9F04105460E46A8
:1049100017462C46FFF7F8FE94F94400401C10B9E6
:10492000002084F8440094F94500401C10B9002090
:1049300084F84500FFF712FFA06B28B93A463146CC
:1049400004F1240000F0CCF82046FFF780FDBDE81C
:10495000F081000070B504460025D4B1124800680B
:1049600008B9012000E0002050B900BF502080F3BA
:104970001188BFF34F8FBFF36F8F00BF00BFFEE7FB
:1049800000F02AF900212046FFF78EF800F03AFFE8
:1049900005463DB94FF0805004490860BFF34F8F82
:1049A000BFF36F8F70BD00005400002004ED00E0E5
:1049B0002DE9F04704460F464FF0000954B900BFF7
:1049C000502080F31188BFF34F8FBFF36F8F00BF6C
:1049D00000BFFEE70FB1012000E0002050B900BF8A
:1049E000502080F31188BFF34F8FBFF36F8F00BF4C
:1049F00000BFFEE72048006808B9012000E0002061
:104A000050B900BF502080F31188BFF34F8FBFF320
:104A10006F8F00BF00BFFEE700F0DEF817480668A2
:104A20002068C5192068B04207D92068A8420BD970
:104A3000B54209D94FF0010906E02068A84201D823
:104A4000B54201D94FF001092560B9F1000F03D03B
:104A5000A81B0021FFF728F800F0D4FE8046B8F12B
:104A6000000F07D14FF0805005490860BFF34F8F0A
:104A7000BFF36F8FBDE8F0875400002030000020A6
:104A800004ED00E0034909680160034909684160D9
:104A90007047000044000020300000200120014940
:104AA000086070474000002070B504460D4654B9B8
:104AB00000BF502080F31188BFF34F8FBFF36F8F7B
:104AC00000BF00BFFEE70548016818312046FFF728
:104AD000F5FD01212846FEF7E7FF70BD1C00002010
:104AE00070B505460E46144655B900BF502080F3F8
:104AF0001188BFF34F8FBFF36F8F00BF00BFFEE77A
:104B00000648016818312846FFF7F2FD0CB14FF056
:104B1000FF3621463046FEF7C7FF70BD1C0000205F
:104B200010B586B000200590049003AA04A905A83A
:104B3000FFF79CFD0022DDE904101346CDE90021BA
:104B400002901EA11F48039A00F09EFC1E490860B7
:104B50000846006808B1012400E00024012C02D1BD
:104B600000F0D2FE0446012C15D100BF502080F386
:104B70001188BFF34F8FBFF36F8F00BF4FF0FF302F
:104B8000124908600120124908600020114908609C
:104B900000F072F810E0601C08B1012000E0002075
:104BA00050B900BF502080F31188BFF34F8FBFF37F
:104BB0006F8F00BF00BFFEE706B010BD49444C45F3
:104BC00000000000353E0008500000204C0000208E
:104BD000380000203000002002480068401C0149D5
:104BE00008607047540000201E48006818B101207A
:104BF0001D49086034E000201B4908601B4801681B
:104C00000CE051B900BF502080F31188BFF34F8FE3
:104C1000BFF36F8F00BF00BFFEE7491E01EB8100AD
:104C2000134A52F8200008B9012000E000200028B3
:104C3000E7D101EB81020E4B03EB82004268526820
:104C4000426000F108024368934202D14268526810
:104C500042604268D268074B1A600448016000BF96
:104C60007047000054000020400000203400002065
:104C7000800200201C0000201CB5524800685249E8
:104C8000884201D0012000E0002050B900BF502030
:104C900080F31188BFF34F8FBFF36F8F00BF00BF4A
:104CA000FEE7484800684849491E884201D0012073
:104CB00000E0002050B900BF502080F31188BFF3FE
:104CC0004F8FBFF36F8F00BF00BFFEE73F4908461D
:104CD00000780190FF200A46107008460078009086
:104CE0009DF8000000F0F0009DF80020904201D1F6
:104CF000012000E0002050B900BF502080F311884F
:104D0000BFF34F8FBFF36F8F00BF00BFFEE79DF86B
:104D1000000000F050002E4A107007202D4A10604D
:104D200009E02C480068401E2A4A10609DF80000E7
:104D30004006000E00909DF8000000F080008028E2
:104D4000EFD024480068C0F10700042801D10120F9
:104D500000E0002050B900BF502080F31188BFF35D
:104D60004F8FBFF36F8F00BF00BFFEE71948006889
:104D70000002184A10601046008800F4E0601060DD
:104D8000124A019810700F482030006840F47000FB
:104D90000C49203108600846006840F07040086007
:104DA000FFF74CFD00200C490860FBF773FA0B4835
:104DB000006840F0404009490860FBF757FA0020BE
:104DC0001CBD000000ED00E071C20F4100E400E0F6
:104DD00094000020980000209000002034EF00E0B4
:104DE00010B500BF502080F31188BFF34F8FBFF381
:104DF0006F8F00BF00F0C6FB18B14FF08050044920
:104E0000086000BF002080F3118800BF10BD0000C3
:104E100004ED00E02DE9F84380460E4617461D4696
:104E2000DDF82090B8F1000F01D0012000E0002053
:104E300050B900BF502080F31188BFF34F8FBFF3EC
:104E40006F8F00BF00BFFEE70DB1012000E0002022
:104E500050B900BF502080F31188BFF34F8FBFF3CC
:104E60006F8F00BF00BFFEE707B10EB1012000E069
:104E7000002050B900BF502080F31188BFF34F8F3E
:104E8000BFF36F8F00BF00BFFEE707B90EB9012067
:104E900000E0002050B900BF502080F31188BFF31C
:104EA0004F8FBFF36F8F00BF00BFFEE75020009011
:104EB0000098502801D1012000E0002050B900BF27
:104EC000502080F31188BFF34F8FBFF36F8F00BF67
:104ED00000BFFEE700BF2C464CB1012084F846001D
:104EE0004B463A46314640460094FEF7B7FF20460F
:104EF000BDE8F88370B505460E462C4654B900BF90
:104F0000502080F31188BFF34F8FBFF36F8F00BF26
:104F100000BFFEE7FFF7F8FBD4E90F12206801FBA2
:104F20000200A0600020A06320686060E06B401E6B
:104F3000226C216800FB0211E160FF2084F844002C
:104F400084F845009EB9206908B9012000E00020DE
:104F5000A8B904F1100000F009FC80B14FF08050B6
:104F600009490860BFF34F8FBFF36F8F07E004F16B
:104F70001000FFF793FB04F12400FFF78FFBFFF70E
:104F8000EDFB012070BD000004ED00E02DE9FF43C2
:104F900083B0064688461D464FF00009344654B992
:104FA00000BF502080F31188BFF34F8FBFF36F8F86
:104FB00000BF00BFFEE7B8F1000F01D1206C08B9B7
:104FC000012000E0002050B900BF502080F311887C
:104FD000BFF34F8FBFF36F8F00BF00BFFEE7022DFF
:104FE00002D1E06B012801D1012000E0002050B97E
:104FF00000BF502080F31188BFF34F8FBFF36F8F36
:1050000000BF00BFFEE700F09DFA08B9059808B997
:10501000012000E0002050B900BF502080F311882B
:10502000BFF34F8FBFF36F8F00BF00BFFEE700BF1E
:10503000FFF76AFBA06BE16B884201D3022D28D1F8
:105040002A4641462046FEF73CFE0746606A08B9FC
:10505000012000E0002068B904F1240000F086FB84
:1050600088B14FF0805032490860BFF34F8FBFF3D3
:105070006F8F08E03FB14FF080502D490860BFF3BB
:105080004F8FBFF36F8FFFF769FB012007B0BDE8BB
:10509000F083059818B9FFF761FB0020F6E7B9F136
:1050A000000F04D101A8FFF7EDFC4FF00109FFF755
:1050B00055FBFFF791FDFFF727FB94F94400401CD7
:1050C00010B9002084F8440094F94500401C10B940
:1050D000002084F84500FFF741FB05A901A800F076
:1050E0005BF9F0B92046FEF7CEFFA0B104F1100045
:1050F0000599FFF7D9FC2046FFF7A9F900F082FBDC
:10510000002895D14FF0805009490860BFF34F8FB8
:10511000BFF36F8F8CE72046FFF799F900F072FB21
:1051200086E72046FFF793F900F06CFB0020ADE71F
:1051300004ED00E02DE9F84F07468A4690461E46EA
:105140003C4654B900BF502080F31188BFF34F8F05
:10515000BFF36F8F00BF00BFFEE7BAF1000F01D1B0
:10516000206C08B9012000E0002050B900BF502099
:1051700080F31188BFF34F8FBFF36F8F00BF00BF65
:10518000FEE7022E02D1E06B012801D1012000E0F0
:10519000002050B900BF502080F31188BFF34F8F1B
:1051A000BFF36F8F00BF00BFFEE7FFF75BFB00BFE1
:1051B0005021EFF3118081F31188BFF34F8FBFF3BC
:1051C0006F8F00BF0546A06BE16B884201D3022EB2
:1051D00025D194F945B0A06B009032465146204647
:1051E000FEF76FFD0BF1010088B9606A08B9012074
:1051F00000E0002050B904F1240000F0B7FA28B113
:10520000B8F1000F02D00120C8F8000004E00BF153
:10521000010040B284F845004FF0010901E04FF071
:10522000000900BF85F3118800BF4846BDE8F88F2C
:105230002DE9F74183B005460E464FF000082C4695
:1052400054B900BF502080F31188BFF34F8FBFF3D4
:105250006F8F00BF00BFFEE70EB9206C08B90120B8
:1052600000E0002050B900BF502080F31188BFF348
:105270004F8FBFF36F8F00BF00BFFEE700F062F9F2
:1052800008B9059808B9012000E0002050B900BF16
:10529000502080F31188BFF34F8FBFF36F8F00BF93
:1052A00000BFFEE700BFFFF72FFAA76BF7B131464B
:1052B0002046FEF7F1FC781EA063206908B90120A2
:1052C00000E0002060B904F1100000F04FFA38B19E
:1052D0004FF080502F490860BFF34F8FBFF36F8F9F
:1052E000FFF73CFA012006B0BDE8F081059818B937
:1052F000FFF734FA0020F6E7B8F1000F04D101A857
:10530000FFF7C0FB4FF00108FFF728FAFFF764FC36
:10531000FFF7FAF994F94400401C10B9002084F812
:10532000440094F94500401C10B9002084F8450061
:10533000FFF714FA05A901A800F02EF8F0B92046ED
:10534000FEF794FEA0B104F124000599FFF7ACFB31
:105350002046FFF77CF800F055FA0028A3D14FF063
:1053600080500C490860BFF34F8FBFF36F8F9AE7EF
:105370002046FFF76CF800F045FA94E72046FFF767
:1053800066F800F03FFA2046FEF770FE00288AD04B
:105390000020A8E704ED00E070B505460C4655B9BD
:1053A00000BF502080F31188BFF34F8FBFF36F8F82
:1053B00000BF00BFFEE754B900BF502080F3118842
:1053C000BFF34F8FBFF36F8F00BF00BFFEE7FFF744
:1053D0009BF9124802686868131A2068401C08B9D3
:1053E000002617E00E4928680968884204D06868DA
:1053F000904201D801260DE02068984207D9206824
:10540000C01A20602846FFF73DFB002602E000207E
:1054100020600126FFF7A2F9304670BD3000002061
:10542000440000202DE9FF4F85B08046894617468D
:10543000DDE912ABB800FFF749F8064656B15C202B
:10544000FFF744F804460CB1266304E03046FFF74A
:10545000A3F900E000248CB1002084F85900CDE9C4
:1054600000ABCDE902403A4649464046089BFEF76C
:105470000AFD2046FEF756FB012501E04FF0FF35FF
:10548000284609B0BDE8F08F2DE9F04F85B00746FA
:10549000884691469A46DDE90EB6109C0EB1012071
:1054A00000E0002050B900BF502080F31188BFF306
:1054B0004F8FBFF36F8F00BF00BFFEE70CB101201D
:1054C00000E0002050B900BF502080F31188BFF3E6
:1054D0004F8FBFF36F8F00BF00BFFEE75C200390CC
:1054E00003985C2801D1012000E0002050B900BFE2
:1054F000502080F31188BFF34F8FBFF36F8F00BF31
:1055000000BFFEE700BFB4B1AEB125462C462E6306
:10551000022085F85900002004A953464A46CDE9E7
:1055200000B1CDE9025041463846FEF7ACFC2846B2
:10553000FEF7F8FA01E000200490049805B0BDE8F9
:10554000F08F00000549096809B9012005E0044908
:10555000096809B9022000E00020704738000020E7
:105560005400002001490868704700003000002006
:1055700070B5FFF777F9002501480468204670BD33
:10558000300000202DE9F0414FF00008434800684A
:1055900000287BD142480068451C4148056015BB86
:1055A00040480068006808B9012000E0002050B9B8
:1055B00000BF502080F31188BFF34F8FBFF36F8F70
:1055C00000BF00BFFEE73748076837480068354925
:1055D00008603548076035480068401C334908605A
:1055E000FEF786FE00BF3248006885423BD300BF0D
:1055F0002C480068006808B9012000E0002020B1B4
:105600004FF0FF302A4908602CE026480068C06847
:10561000C4686668B54202D22548066022E0201DB3
:10562000FFF710F8A06A18B104F11800FFF70AF8A4
:105630002049E06A0968884202D91E49E06A086088
:10564000E16A01EB81011C4A02EB8100211DFFF799
:105650004FF81A49E06A0968C96A8842C8D34FF00E
:105660000108C5E700BF15480068C06A00EB80006C
:10567000114951F82000012801D94FF001081048C4
:10568000006808B14FF0010805E0FFE70D48006829
:10569000401C0C4908604046BDE8F08154000020E1
:1056A00030000020200000202400002044000020C2
:1056B0004C00002034000020800200201C0000204C
:1056C000400000203C00002070B505462C46002616
:1056D000002D43D022480068844201D1012000E01F
:1056E000002050B900BF502080F31188BFF34F8FC6
:1056F000BFF36F8F00BF00BFFEE7206D50B900BF42
:10570000502080F31188BFF34F8FBFF36F8F00BF1E
:1057100000BFFEE7206D401E2065E16CE06A884214
:105720001CD0206DD0B9201DFEF78CFFE06CE0622C
:10573000E06AC0F13800A0610A49E06A096888425D
:1057400002D90849E06A0860E16A01EB8101064A72
:1057500002EB8100211DFEF7CBFF0126304670BD14
:105760001C000020340000208002002070B5064696
:10577000F068C46854B900BF502080F31188BFF3AB
:105780004F8FBFF36F8F00BF00BFFEE704F118001B
:10579000FEF758FF15480068A0B9201DFEF752FF1C
:1057A0001349E06A0968884202D91149E06A086031
:1057B000E16A01EB81010F4A02EB8100211DFEF736
:1057C00097FF04E004F118010B48FEF791FF0B4925
:1057D000E06A0968C96A884204D90125012008499C
:1057E000086000E00025284670BD0000540000203D
:1057F0003400002080020020080700201C00002048
:105800004000002070B5002400263648006850B9DA
:1058100000BF502080F31188BFF34F8FBFF36F8F0D
:1058200000BF00BFFEE7FEF76FFF2E480068401E76
:105830002C4908600846006800284ED12A480068B4
:1058400000284AD023E02948C068C46804F1180041
:10585000FEF7F8FE201DFEF7F5FE2549E06A09680F
:10586000884202D92249E06A0860E16A01EB8101BD
:10587000204A02EB8100211DFEF73AFF1E49E06A33
:105880000968C96A884202D301201C490860174888
:10589000006808B9012000E000200028D3D00CB136
:1058A000FEF726FD1648056865B100BFFFF76AFEE2
:1058B00010B10120114908606D1E002DF6D10020A5
:1058C0000F4908600D48006838B1012630070D49BE
:1058D0000860BFF34F8FBFF36F8FFEF73FFF304677
:1058E00070BD0000540000202C000020080700209C
:1058F00034000020800200201C0000204000002016
:105900003C00002004ED00E010B586B00024FEF756
:1059100065F916480068D0B100200590049003AAEC
:1059200004A905A8FEF7AEFE0222DDE9041000235B
:10593000CDE9002102900EA10F48039AFFF7A4FDC4
:105940000E4908600846006800B1012400BF54B940
:1059500000BF502080F31188BFF34F8FBFF36F8FCC
:1059600000BF00BFFEE7204606B010BD600000206B
:10597000546D7220537663003544000864000020A3
:105980002DE9FF4704460D4616461F46DDF83080D8
:105990004FF0000954B900BF502080F31188BFF3C5
:1059A0004F8FBFF36F8F00BF00BFFEE71448006842
:1059B00010B3009501960294062D15DAFFF7C2FD8B
:1059C000022808D10023424669460D480068FFF7C7
:1059D000DDFA814610E000231A466946084800684F
:1059E000FFF7D4FA814607E000233A4669460448A7
:1059F0000068FFF79FFB8146484604B0BDE8F0878A
:105A0000600000204FF04070E1EE100A7047000087
:105A1000805A0008000000000000000000000000A4
:105A2000000000000004000018000000000000005A
:105A300000000000785A000800000000000000008C
:105A40000000000000000000000800002800000026
:105A500000000000000000000006101600061016EE
:105A6000000000000000000001020304060708090E
:105A7000000000000102030443686173736973004E
:105A8000446174615F47657400000000AC5A00080F
:105A900000000020A0000000E80100084C5B0008A6
:105AA000A0000020F85700000402000800000000D9
:105AB00000000000000000000000000010000000D6
:105AC000010000000024F4000000000000000000BD
:105AD00000000000000000000000000000000000C6
