:020000040800F2
:1000000058590020E9020008ED5900081D47000872
:100010005D560008B1060008856F0008000000006A
:10002000000000000000000000000000290200089D
:100030006D0B0008000000008502000891600008B8
:100040000303000803030008030300080303000878
:1000500003030008030300086F0B000803030008F4
:1000600003030008790B0008830B00080303000852
:1000700091080008030300080303000803030008B5
:100080000303000803030008030300080303000838
:10009000B506000803030008030300088D0B0008E1
:1000A0000303000803030008030300080303000818
:1000B0000303000803030008030300080303000808
:1000C000030300080303000803030008115E00088F
:1000D00003030008556F000803030008656F00085C
:1000E00003030008030300080303000803030008D8
:1000F00003030008030300080303000803030008C8
:1001000003030008030300080303000803030008B7
:1001100003030008030300087161000803030008DB
:10012000A1080008B1080008C1080008D1080008AB
:100130000303000803030008030300080303000887
:10014000C5060008030300080303000803030008B2
:1001500003030008E1080008F1080008756F0008B3
:100160000303000803030008030300080303000857
:100170000303000803030008030300080000000055
:10018000030300080303000800F002F800F03CF845
:100190000AA090E8000C82448344AAF10107DA45E2
:1001A00001D100F031F8AFF2090EBAE80F0013F0F8
:1001B000010F18BFFB1A43F00103184738A40000D1
:1001C00058A40000103A24BF78C878C1FAD8520762
:1001D00024BF30C830C144BF04680C6070470000C1
:1001E0000023002400250026103A28BF78C1FBD840
:1001F000520728BF30C148BF0B6070471FB50AF0D7
:1002000074F91FBD10B510BD00F0E4F91146FFF7F9
:10021000F5FF07F0CDFB00F002FA03B4FFF7F2FFA1
:1002200003BC00F005FA00002C4B19680868B0E820
:10023000F04F80F30988BFF36F8F4FF0000080F319
:10024000118870470000000008480068006880F3CB
:1002500008884FF0000080F3148862B661B6BFF3DF
:100260004F8FBFF36F8F00DF00BF00BF08ED00E0CE
:10027000DFF80C00016841F470010160704700BFB5
:1002800088ED00E0EFF30980BFF36F8F134B1A681E
:100290001EF0100F08BF20ED108A20E9F04F10600B
:1002A00009B44FF0500080F31188BFF34F8FBFF3B4
:1002B0006F8F08F02DFD4FF0000080F3118809BC0E
:1002C00019680868B0E8F04F1EF0100F08BFB0ECD6
:1002D000108A80F30988BFF36F8F704724000020D5
:1002E000EFF3058070470000094880470948004740
:1002F000FEE7FEE7FEE7FEE7FEE7FEE7FEE7FEE7D6
:10030000FEE7FEE704480549054A064B7047000032
:100310005D610008890100085853002058590020E9
:10032000585500205855002053EA020C00F069800F
:100330002DE9F04B4FF00006002B1FBFB3FA83F5F9
:1003400003FA05F424FA05F65E4012BF1643B2FA2A
:1003500082F502FA05F4C5F120051EBF22FA05FC5C
:1003600044EA0C04203556EA044C4FEA144418BF02
:10037000641C4FF000084FF00009904271EB030C31
:1003800039D3002919BFB1FA81F701FA07F6B0FA9B
:1003900080F700FA07F6C7F120071EBF20FA07FC16
:1003A00046EA0C062037B6FBF4FCA7EB0507103F26
:1003B00007F01F0BCBF120060CFA0BFB2CFA06F60C
:1003C00044BFB3460026202FA4BF5E464FF0000B6B
:1003D0005BEA060C08BF4FF0010B19EB0B09ABFBF6
:1003E000027C48EB0608C01B06FB02CC0BFB03CCCF
:1003F00071EB0C01C1E70B46024641464846BDE899
:10040000F08B13B54FF000004FF00001AFF3008008
:10041000BDE81C407047032A40F2308010F0030C06
:1004200000F0158011F8013BBCF1020F624498BF47
:1004300011F801CB00F8013B38BF11F8013BA2F1E4
:10044000040298BF00F801CB38BF00F8013B11F05F
:10045000030300F06280083AC0F0088051F8043BC2
:10046000083A51F804CBA0E80810F5E7121D5CBF6C
:1004700051F8043B40F8043BAFF30080D20724BF9F
:1004800011F8013B11F801CB48BF11F8012B24BF33
:1004900000F8013B00F801CB48BF00F8012B704782
:1004A00002F0FF0343EA032242EA024200F069B885
:1004B0004FF0000200B5134694469646203922BFFD
:1004C000A0E80C50A0E80C50B1F12001BFF4F7AF48
:1004D000090728BFA0E80C5048BF0CC05DF804EB2A
:1004E000890028BF40F8042B08BF704748BF20F898
:1004F000022B11F0804F18BF00F8012B7047704796
:100500007047704710B500F05DF8006810BD10B579
:10051000044600F057F8046010BD10B5203AC0F052
:100520000B80B1E81850203AA0E81850B1E81850F4
:10053000A0E81850BFF4F5AF5FEA027C24BFB1E831
:100540001850A0E8185044BF18C918C0BDE81040A2
:100550005FEA827C24BF51F8043B40F8043B08BFAB
:100560007047D20728BF31F8023B48BF11F8012B72
:1005700028BF20F8023B48BF00F8012B70474FF01E
:1005800000020429C0F0128010F0030C3FF492AF77
:10059000CCF1040CBCF1020F18BF00F8012BA8BF6E
:1005A00020F8022BA1EB0C01FFF784BF5FEAC17CAE
:1005B00024BF00F8012B00F8012B48BF00F8012BE5
:1005C0007047000000487047F45200200048704710
:1005D000F45200207546FFF7F9FFAE460500694664
:1005E000534620F00700854618B020B5FFF78AFE75
:1005F000BDE820404FF000064FF000074FF0000824
:100600004FF0000B21F00701AC46ACE8C009ACE8A4
:10061000C009ACE8C009ACE8C0098D46704710B508
:100620000446AFF300802046BDE81040FFF7F5BD5B
:1006300001491820ABBEFEE726000200704700000B
:1006400010B501221021024801F0FCFC10BD000091
:100650000000024010B500221021024801F0F2FC17
:1006600010BD00000000024070B506460C4615465D
:1006700046F0800000F00CF806E0552000F008F885
:100680002070641C681EC5B2002DF6D170BD00003C
:1006900001B582B04FF47A70012301AA02A900903B
:1006A000024802F057FE9DF804000EBDB80100207C
:1006B00000BFFEE710B5024800F07DFE10BD00004F
:1006C0001401002010B5024800F075FE10BD0000B6
:1006D0003C010020F0B58BB007460C4615461E467F
:1006E00004F0010008B10BB0F0BDC4F3400000B14C
:1006F000F9E76805000C0190002002907005000CDD
:10070000039000200490E00806900020079001204C
:10071000089009900E200A90C4F38000059001A96A
:10072000384600F0EDFC00BFDDE710B5044620467A
:1007300001F0EAF82068406940F002002168486151
:100740002068406940F010002168486110BDF0B594
:1007500087B004460D4617461E4614B9012007B05F
:10076000F0BD0195002002900390049005966B4621
:100770003A4601A9204600F01DFCF0E710B52E48CE
:1007800090F85000012800D010BD04F069FF2B48FC
:1007900090ED000ADFED2A0A20EE200ABDEEC00A25
:1007A00010EE100A00B227490880274890ED000A91
:1007B000DFED230A20EE200ABDEEC00A10EE100A7B
:1007C00000B222490880224890ED000ADFED1C0AA1
:1007D00020EE200ABDEEC00A10EE100A00B21D493C
:1007E000088018480088000A1B49087015480078DE
:1007F000487016480088000A887014480078C8704D
:1008000014480088000A087112480078487113489B
:10081000807D10B11148007D00E002200E498871F2
:100820000E48807D30B107230A464FF440710C48D2
:10083000FFF78DFF00BFA7E7C44F0020B0000020E6
:1008400000007A44BC000020B4000020BE0000205C
:10085000B8000020C0000020A8000020A451002003
:1008600014010020F0EE401AF4EEE01AF1EE10FA56
:1008700002D2B0EE600A7047F4EEC11AF1EE10FA3F
:1008800002DDB0EE410AF6E7B0EE610AF3E70000E0
:1008900010B5024801F0D8F810BD0000880500200E
:1008A00010B5024801F0D0F810BD00001002002081
:1008B00010B5024801F0C8F810BD0000480600203D
:1008C00010B5024801F0C0F810BD0000C8040020B7
:1008D00010B5024801F0B8F810BD00007002002009
:1008E00010B5024801F0B0F810BD0000E805002086
:1008F00010B5024801F0A8F810BD0000280500203E
:100900000146087810381823B0FBF3F20848805CE1
:10091000C865032A05D908686FF30900001D8865BA
:1009200003E008686FF309008865886D7047000070
:1009300090A50008014600208A6A8B69CBB932B1C4
:10094000012A0DD0022A03D0032A10D10EE000BFE5
:10095000CB6A03F08073B3F1807F00D1012007E000
:10096000CB6AB3F1C07F00D1012001E000E000BFFD
:1009700034E08B69B3F5005F1AD132B1012A07D098
:10098000022A03D0032A11D10AE000BF01200EE0A1
:10099000CB6A03F08073B3F1807F00D1012006E0C1
:1009A000CB6AB3F1C07F00D1012000E000BF15E0A9
:1009B00032B1012A05D0022A04D0032A0CD103E067
:1009C00000BF00BF012008E0CB6A03F08073B3F1E1
:1009D000807F00D1012000E000BF00BF704730B52C
:1009E0000468246824F4802405682C60046863602B
:1009F0008468402C04D10468A2600468E16003E0CC
:100A00000468A1600468E26030BD00000748008807
:100A1000B0F5FA7F05DA05480088401C03490880D4
:100A200002E0002002498875704700001001002094
:100A3000A451002000B101B970470022364B1A8042
:100A400001228A750278437842EA0322C2F30A023D
:100A5000A2F5806200EE102AF8EEC00A9FED2F1A70
:100A6000C0EE811AC1ED001A4278D210837842EAB2
:100A70004312C2F30A02A2F5806200EE102AF8EED9
:100A8000C00A9FED261AC0EE811AC1ED011A8278C4
:100A90009211C37842EA8302037942EA8322C2F3C5
:100AA0000A02A2F5806200EE102AF8EEC00A9FED5D
:100AB0001B1AC0EE811AC1ED021A02795210437955
:100AC00042EAC312C2F30A02A2F5806200EE102AC3
:100AD000F8EEC00A9FED111AC0EE811AC1ED031A9B
:100AE0004279C2F301120A75427992094A75027C71
:100AF000437C42EA0322C2F30A02A2F5806200EEBE
:100B0000102AF8EEC00A9FED051AC0EE811AC1ED59
:100B1000041A00BF90E700001001002000002544E7
:100B200010B5044624220249204603F0F4F910BD12
:100B300080510020F0EE400A9FED090AF4EEC00A51
:100B4000F1EE10FA09DD9FED070AF4EEC00AF1EEAE
:100B500010FA02D29FED040A7047B0EE600AFBE77C
:100B60000AD7A3BC0AD7A33C00000000704710B509
:100B7000012001F05FF910BD10B5082001F05AF90D
:100B800010BD10B5102001F055F910BD10B5202092
:100B900001F050F910BD72B600BFFEE72DE9F0413B
:100BA00004460D4616461F4694ED001A21EE011A22
:100BB000D4ED011A94ED012A01EE821AF7EE001A23
:100BC000B0EE002A52EE011AF0EE610A94ED001A1E
:100BD000D4ED031A21EE211AD4ED011A94ED022A64
:100BE00001EE821AF0EE001A21EE211AB0EE410A4F
:100BF00006F030FB85ED000AD4ED010A94ED031AEE
:100C000060EE810A94ED001AD4ED021A41EE610AF9
:100C1000B8EE001A60EE810AB0EE600A06F084FABF
:100C200086ED000A94ED001A21EE011AD4ED031AA4
:100C300094ED032A01EE821AF7EE001AB0EE002AB4
:100C400052EE011AF0EE610A94ED001AD4ED011A89
:100C500021EE211AD4ED021A94ED032A01EE821A34
:100C6000F0EE001A21EE211AB0EE410A06F0F2FA77
:100C700087ED000ABDE8F08170B504460D4640F2EC
:100C800005212068884203D12946024804F002FE6B
:100C900070BD0000D04F00201CB50D4890F84C00EE
:100CA00018B10B48B0F9480000E0002004460020CD
:100CB00000900190200A8DF80000E0B28DF801004C
:100CC00008236A464FF4FF710248FFF740FD1CBD40
:100CD000C44F00201401002010B5024804F090FD1C
:100CE00010BD0000D04F002010B52DED048B00F09A
:100CF00013F9274890ED050AD0ED080A30EE600A96
:100D0000B0EE408AB0EE480A06F0FAFBF0EE408AF8
:100D1000B0EE480A06F0A6FCB0EE409AF0EE680A83
:100D200006F098FA1A4880ED020A90F8500001285F
:100D300008D0174890F85000022803D0002114482A
:100D4000A0F84810124890F85000B8B1012802D01D
:100D5000022812D100E000BF0E48D0ED000AB0EE2C
:100D6000600AFFF7E7FE0A48D0ED010A9FED0A1A74
:100D700040EE410AC0ED010A06E000BF044890EDD4
:100D8000000A80ED010A00BF00BFBDEC048B10BD5E
:100D9000C44F0020A4510020A69B443C10B521481C
:100DA000FFF7C3FC00231A4619461E48FFF792FCC2
:100DB0009FED1D1ADFED1D0AB7EE000A1C4804F076
:100DC0004EFD00201A490C3981F850009FED190A98
:100DD000084680ED080A00219FED173ADFED172A3B
:100DE0009FED172ADFED171A9FED131ADFED120A98
:100DF0009FED150A543004F0B3FF00219FED0E3A29
:100E0000DFED0D2A9FED082ADFED0E1A9FED0A1A7D
:100E1000DFED090A9FED0D0A05489C3004F0A0FFA4
:100E200010BD000014010020000080460000204397
:100E3000D04F00203A0E6F4000000000CDCC4C3E59
:100E4000920A86416F12833A0000B4420000964431
:100E50001148807D20B90020104981F8500070476A
:100E60000D48407D012804D002280CD003280FD162
:100E700004E00120094981F850000AE001200749F7
:100E800081F8500005E00020044981F8500000E09E
:100E900000BF00BF00BFE2E7A4510020C44F002004
:100EA00010B51B4890F85000012805D0184890F85C
:100EB0005000022800D010BD154890ED011AF0EE48
:100EC000410A90ED001AB0EE410A543004F090FD52
:100ED0000F4880ED110A90ED111AF0EE410A90EDE5
:100EE000061AB0EE410AA83004F082FD0848D0EDA1
:100EF000110A9FED081A00EE810ABDEEC00A10EE3D
:100F0000100A01B20248A0F8481000BFD3E7000061
:100F1000C44F002000000243204890ED020A204800
:100F2000D0ED000A30EE600ADFED1E0AB4EEE00AF2
:100F3000F1EE10FA05DD1C480068401E1A490860F1
:100F400013E0164890ED020A1548D0ED000A30EE85
:100F5000600ADFED160AB4EEE00AF1EE10FA04D2F0
:100F600011480068401C104908600C4890ED020AC6
:100F70000B4880ED000A094890ED020A0A48006813
:100F8000400000EE900AF8EEE00A9FED061A00EE2F
:100F9000810A074880ED000A704700005051002088
:100FA000C8000020DB0F4940C4000020DB0F49C00F
:100FB000C44F0020F0B504460D461E4694F820703C
:100FC00020688368A86800B900E000BF012F01D045
:100FD000022F7DD103F0806030B903F0006018B9B2
:100FE00003F0805000287ED0C3F3016101208840C7
:100FF0003060A86860B9B5F800C0E86840EA4C5CA9
:10100000206800F5C07000EB0110C0F800C00FE0D0
:10101000D5E901C040EACC00D5F80CC040EA0C008C
:10102000D4F800C00CF5C07C0CEB011CCCF800001F
:10103000D5F810C0206800F5C07000EB0110C0F8B2
:1010400004C0287D01280ED1206800F5C07000EB97
:101050000110406840F4807C206800F5C07000EB0F
:101060000110C0F804C0D079000692F806C040EA2A
:101070000C4092F805C040EA0C2092F804C040EA07
:101080000C00D4F800C00CF5C07C0CEB011CCCF8B3
:101090000C00D078000692F802C040EA0C4092F8AA
:1010A00001C040EA0C2092F800C040EA0C00D4F8DD
:1010B00000C00CF5C07C0CEB011CCCF808002068CB
:1010C00000F5C07000EB0110006840F0010C01E079
:1010D0000FE008E0206800F5C07000EB0110C0F8D8
:1010E00000C00020F0BD606A40F400106062012082
:1010F000F8E7606A40F4802060620120F2E70000B7
:10110000F0B504460A4694F82050012D01D0022D76
:101110007ED1424901F50071086840F00100086085
:10112000086820F47C5008600868566A40EA062087
:101130000860107D00F01F06012000FA06F3C86960
:101140009843C861A1F50071D069C8B9D1F80C0203
:101150009843C1F80C02908880B2968940EA06460E
:1011600001F51070576940F83760108880B2168911
:1011700040EA064601F51070576900EBC70046606B
:10118000D069012819D1D1F80C021843C1F80C021A
:10119000908880B2168840EA064601F510705769BB
:1011A00040F83760908980B2168940EA064601F51A
:1011B0001070576900EBC7004660906928B9D1F8F4
:1011C00004029843C1F8040204E0D1F80402184371
:1011D000C1F80402106928B9D1F814029843C1F883
:1011E000140204E0D1F814021843C1F81402106A82
:1011F000012804D1D1F81C021843C1F81C02D1F80F
:10120000000220F00100C1F800020020F0BDFFE75D
:10121000606A40F4802060620120F7E700640040CB
:10122000704770B5044694F82050012D01D0022D6E
:101230007DD151B92068C06800F0030080B9606AB0
:1012400040F400106062012070BD2068006900F069
:10125000030028B9606A40F4001060620120F3E7DF
:10126000206800F5D87000EB0110006800F0040061
:101270009060906840B9206800F5D87000EB0110CC
:101280000068400D106007E0206800F5D87000EBA2
:1012900001100068C0085060206800F5D87000EBAD
:1012A0000110006800F00200D060206800F5D870DE
:1012B00000EB0110406800F00F00082802D308205E
:1012C000106108E0206800F5D87000EB011040685C
:1012D00000F00F001061206800F5D87000EB0110DD
:1012E000406800F47F40000A9061206800F5D870E3
:1012F00000EB01104068000C5061206800F5D870C8
:1013000000EB011080681870206800F5D87000EBC1
:101310000110806800F47F40000A5870206800F5D2
:10132000D87000EB0110806800F47F0000E03CE022
:10133000000C9870206800F5D87000EB01108068F0
:10134000000ED870206800F5D87000EB0110C0685E
:101350001871206800F5D87000EB0110C06800F427
:101360007F40000A5871206800F5D87000EB01102A
:10137000C06800F47F00000C9871206800F5D870F8
:1013800000EB0110C068000ED87131B92068C06848
:1013900040F020002668F06005E02068006940F019
:1013A00020002668306100204EE7606A40F480200B
:1013B0006062012048E72DE9F05F044600252068BF
:1013C00046692068D0F80490206887682068D0F8C3
:1013D0000CA02068D0F810B02068D0F8188006F073
:1013E0000100002855D007F00100C0B1012021689C
:1013F000886007F0020018B1204600F0B5FA0EE050
:1014000007F0040010B145F4006508E007F008009B
:1014100010B145F4805502E0204600F0A4FA07F42C
:101420008070C8B14FF480702168886007F4007044
:1014300018B1204600F09AFA0EE007F4806010B16F
:1014400045F4005508E007F4006010B145F480450C
:1014500002E0204600F089FA07F48030C8B14FF46A
:1014600080302168886007F4003018B1204600F011
:101470007FFA0EE007F4802010B145F4004508E043
:1014800007F4002010B145F4803502E0204600F05A
:101490006EFA06F0080038B10AF0100020B145F4E9
:1014A000007510202168C86006F0040040B10AF001
:1014B000080028B108202168C860204600F00CFA16
:1014C00006F0020038B12068C06800F0030010B1D7
:1014D000204600F002FA06F0400038B10BF0100090
:1014E00020B145F4806510202168086106F02000D5
:1014F00040B10BF0080028B108202168086120469F
:1015000000F0FFF906F0100038B12068006900F023
:10151000030010B1204600F0F5F906F4003040B1A8
:1015200009F0100028B1102021684860204600F022
:10153000EAF906F4803040B109F0080028B108202B
:1015400021684860204600F014FA06F4004088B391
:1015500009F0040078B306F4807020B108F00100AF
:1015600008B145F0010506F4007020B108F0020052
:1015700008B145F0020506F4806020B108F00400CF
:1015800008B145F0040506F40060A0B108F0700051
:1015900088B108F07000402817D006DC10280BD066
:1015A00020280CD0302819D10CE0502810D0602809
:1015B00014D110E01DE019E045F008050FE045F0FA
:1015C00010050CE045F0200509E045F0400506E077
:1015D00045F0800503E045F4807500E000BF00BFE2
:1015E0002068806920F070002168886104202168EB
:1015F00048602DB1606A284360622046FFF710FE04
:10160000BDE8F09F70B504460CB9012070BD94F898
:10161000200010B9204600F0AFF82068006840F0C4
:1016200001002168086000F013FD05460DE000F0A0
:101630000FFD401B0A2808D9606A40F40030606240
:10164000052084F820000120E0E72068406800F0D1
:1016500001000028EBD02068006820F0020021681B
:10166000086000F0F5FC05460DE000F0F1FC401BC1
:101670000A2808D9606A40F400306062052084F8C6
:1016800020000120C2E72068406800F00200002826
:10169000EBD1207E012806D12068006840F0800050
:1016A0002168086005E02068006820F0800021685B
:1016B0000860607E012806D12068006840F0400084
:1016C0002168086005E02068006820F0400021687B
:1016D0000860A07E012806D12068006840F0200044
:1016E0002168086005E02068006820F0200021687B
:1016F0000860E07E012806D12068006820F0100014
:101700002168086005E02068006840F0100021684A
:101710000860207F012806D12068006840F008009A
:101720002168086005E02068006820F00800216852
:101730000860607F012806D12068006840F004003E
:101740002168086005E02068006820F00400216836
:101750000860D4E90201084321690843616908432C
:101760006168491E08432168C86100206062012049
:1017700084F82000002049E710B586B00446142103
:1017800001A8FEF795FE4E492068884241D14D4898
:101790000068401C4B4908600846006801280FD1CA
:1017A00000BF002000904848006840F000704649A3
:1017B00008600846006800F00070009000BF00BF9D
:1017C00000BF0020009040481038006840F008003A
:1017D0003D49103908600846006800F00800009094
:1017E00000BF00BF03200190022002900020039060
:1017F000032004900920059001A9344800F028FB3B
:1018000000220521142000F037FE142000F020FEF5
:1018100054E02F492068884250D100BF002000903A
:101820002948006840F08060274908600846006841
:1018300000F08060009000BF00BF22480068401C9C
:10184000204908600846006801280FD100BF002029
:1018500000901D48006840F000701B490860084671
:10186000006800F00070009000BF00BF00BF0020C3
:10187000009015481038006840F0020012491039F5
:1018800008600846006800F00200009000BF00BF3A
:101890006020019002200290002003900320049019
:1018A0000920059001A90B4800F0D2FA0022052179
:1018B000402000F0E1FD402000F0CAFD06B010BD60
:1018C000006400401000002040380240000C02403C
:1018D0000068004000040240704710B58AB004461A
:1018E00001AB03AA00212046FFF79BFC40F2052133
:1018F0000398884203D101A903A8FFF7BDF90AB0F4
:1019000010BD70477047704770B5044694F82000CA
:10191000012822D1022084F820002068006820F0ED
:1019200001002168086000F093FB05460DE000F01F
:101930008FFB401B0A2808D9606A40F400306062BF
:10194000052084F82000012070BD2068406800F068
:1019500001000028EBD16062F6E7606A40F40020E5
:1019600060620120F0E7704770477047704770472A
:101970007047704770B50446A56D00F069FB0646D8
:1019800094F83500022808D08020606500BF002050
:1019900084F8340000BF012070BD2068006820F08A
:1019A0001600216808602068406920F080002168E6
:1019B0004861206C08B9A06C28B12068006820F04C
:1019C0000800216808602068006820F00100216894
:1019D000086010E000F03CFB801B05280BD920209C
:1019E0006065032084F8350000BF002084F83400CF
:1019F00000BF0320D0E72068006800F00100002845
:101A0000E8D194F85C103F208840A860012084F859
:101A1000350000BF002084F8340000BF00BFBBE7E2
:101A2000014691F83500022803D080204865012046
:101A30007047052081F835000868006820F0010033
:101A40000A6810600020F3E7F8B504460020009013
:101A50008C4800684FF41651B0FBF1F7A56D2E6865
:101A600094F85C1008208840304098B120680068E5
:101A700000F0040070B12068006820F004002168C4
:101A8000086094F85C1008208840A860606D40F001
:101A90000100606594F85C1001208840304068B116
:101AA0002068406900F0800040B194F85C1001208B
:101AB0008840A860606D40F00200606594F85C109A
:101AC00004208840304068B12068006800F00200BF
:101AD00040B194F85C1004208840A860606D40F02C
:101AE0000400606594F85C1010208840304078B3A2
:101AF0002068006800F0080050B394F85C101020D3
:101B00008840A8602068006800F4802080B12068C8
:101B1000006800F4002028B9206CC8B12046216C70
:101B2000884715E0A06C98B12046A16C88470FE06B
:101B30002068006800F4807028B92068006820F0F0
:101B4000080021680860206C10B12046216C88478D
:101B500094F85C10202088403040002865D0206830
:101B6000006800F0100000285FD094F85C1020207E
:101B70008840A86094F83500052828D120680068BE
:101B800020F01600216808602068406920F080007D
:101B900021684861206C08B9A06C28B120680068F1
:101BA00020F008002168086094F85C103F2088400D
:101BB000A860012084F8350000BF002084F83400BC
:101BC00000BF206D10B12046216D8847F8BD206808
:101BD000006800F4802080B12068006800F40020D4
:101BE00028B9606C10B12046616C88471DE0E06B3D
:101BF000D8B12046E16B884717E02068006800F400
:101C0000807068B92068006820F0100021680860C2
:101C1000012084F8350000BF002084F8340000BFA4
:101C2000E06B10B12046E16B8847606D38B3606DA2
:101C300000F00100F0B1052084F83500206800684C
:101C400020F001002168086000BF0098401C00904F
:101C5000B84200D905E02068006800F001000028C3
:101C6000F3D100BF012084F8350000BF002084F8C4
:101C7000340000BFE06C10B12046E16C884700BF23
:101C8000A4E70000200000202DE9F04104460025D3
:101C900000F0DEF9074614B90120BDE8F081606A62
:101CA00000B100BF022084F8350000BF002084F896
:101CB000340000BF2068006820F00100216808603F
:101CC0000AE000F0C5F9C01B052805D92020606591
:101CD000032084F83500E0E72068006800F0010088
:101CE0000028EED12068056821480540D4E90101AB
:101CF0000843E16808432169084361690843A16911
:101D00000843E1690843216A08430543606A0428DF
:101D100003D1D4E90B01084305432068056020681E
:101D2000456925F00705606A0543606A04280DD1FE
:101D3000A06A0543E06A48B12046FEF7FBFD28B1E2
:101D400040206065012084F83500A6E720684561E1
:101D50002046FEF7D5FD064694F85C103F208840EB
:101D6000B06000206065012084F83500002094E711
:101D70003F8010F02DE9F04704460D4616461F46F9
:101D80004FF00008D4F8589000BF94F834000128B0
:101D900002D10220BDE8F087012084F8340000BFA2
:101DA00094F83500012825D1022084F83500002060
:101DB00060653B46324629462046FEF710FE94F801
:101DC0005C103F208840C9F808002068006840F097
:101DD000160021680860206C28B12068006840F077
:101DE0000800216808602068006840F00100216850
:101DF000086006E000BF002084F8340000BF4FF008
:101E000002084046C6E7000070B5044600F020F91D
:101E100006462546681C10B104480078054400BFFA
:101E200000F016F9801BA842FAD370BD1C000020F8
:101E30007047000010B5044604480068204020B1F7
:101E4000024804602046FFF7F3FF10BD143C014038
:101E5000F8B502460B460025002400200021D6E0FC
:101E6000012606FA01F51E6806EA0504AC4274D1A3
:101E70001E7906F00306012E04D01E7906F0030633
:101E8000022E13D190684F000326BE40B0434F008E
:101E9000DE68BE4030439060506801268E40B043FB
:101EA0001E79C6F300168E40304350601E7906F04E
:101EB0000306032E09D0D0684F000326BE40B0436E
:101EC0004F009E68BE403043D0601E7906F0030686
:101ED000022E13D1CF0802F1200656F827004E0734
:101EE000F70E0F26BE40B0434F07FF0E1E69BE40DF
:101EF0003043CF0802F1200646F8270010684F0053
:101F00000326BE40B0431E7906F003064F00BE40D4
:101F1000304310605E6806F44036002E76D000BF75
:101F2000002600963C4E366846F480463A4F3E60A6
:101F30003E46366806F48046009600BF00BF374E26
:101F40008F0856F827008E07370F0F26BE40B04384
:101F5000334EB24202D1002624E057E0314EB24265
:101F600001D101261EE0304EB24201D1022619E015
:101F70002E4EB24201D1032614E02D4EB24201D1C1
:101F800004260FE02B4EB24201D105260AE02A4E6C
:101F9000B24201D1062605E0284EB24201D1072601
:101FA00000E008268F073F0FBE4030431B4E8F08CE
:101FB00046F82700224E3068A0435E6806F480167B
:101FC00006B120431E4E3060361D3068A0435E6867
:101FD00006F4001606B12043194E361D3060184E27
:101FE000361F3068A0435E6806F4003606B1204311
:101FF000134E361F3060361F3068A0435E6806F40B
:10200000803606B120430E4E083E3060491C102930
:10201000FFF426AFF8BD0000443802400838014004
:10202000000002400004024000080240000C024090
:10203000001002400014024000180240001C024040
:10204000083C01400AB1816101E00B0483617047E3
:1020500001480068704700001400002070B5044675
:102060000CB9012070BD94F83D0028B9002084F817
:102070003C00204600F0DAF8242084F83D00206877
:10208000006820F00100216808602068006840F4C2
:102090000040216808602068006820F40040216842
:1020A000086000F025FB05465C496068884206D858
:1020B0005B48854201D2012007E0002005E0594835
:1020C000854201D2012000E00020012800D1C9E7AB
:1020D0005548B5FBF0F62068406820F03F003043DB
:1020E000216848604D496068884201D8701C07E04B
:1020F0004FF4967070434FF47A71B0FBF1F0401CCE
:102100002168096A21F03F010843216808624349B8
:102110006068884214D8681E61684900B0FBF1F01D
:10212000401CC0F30B00042801D204203DE0681ECF
:1021300061684900B0FBF1F0401CC0F30B0034E0D3
:10214000A06838B9681E616801EB4101B0FBF1F08D
:10215000401C0AE0681E616801EBC10202EB01113C
:10216000B0FBF1F0401C40F48040C0F30B0008B914
:1021700001201AE0A06848B9681E616801EB4101BE
:10218000B0FBF1F0401CC0F30B000CE0681E61686E
:1021900001EBC10202EB0111B0FBF1F0401CC0F3F6
:1021A0000B0040F4804040F400402168C9694CF6BF
:1021B000FF72914308432168C861D4E907010843CD
:1021C0002168096821F0C001084321680860D4E94A
:1021D000031008432168896848F2FF32914308439D
:1021E00021688860D4E9050108432168C96821F0A5
:1021F000FF0108432168C8602068006840F00100C2
:102200002168086000202064202084F83D00002020
:10221000206384F83E0000BF24E70000A086010090
:1022200080841E0000093D0040420F0010B586B0BA
:102230000446142101A8FEF73BF92A492068884288
:102240004DD100BF002000902748006840F00400F6
:10225000254908600846006800F00400009000BFAF
:1022600000BF00BF002000900846006840F0010059
:1022700008600846006800F00100009000BF00BF41
:102280004815019012200290002003900320049032
:102290000420059001A91548FFF7DAFD4FF480707E
:1022A000019012200290012003900320049004204A
:1022B000059001A90E48FFF7CBFD00BF002000905C
:1022C00009481030006840F40000074910310860E8
:1022D0000846006800F40000009000BF00BF06B090
:1022E00010BD0000005C0040303802400008024091
:1022F0000000024003480068034909780844014986
:1023000008607047140000201C00002010B50D4824
:10231000006840F400700B4908600846006840F40B
:10232000806008600846006840F480700860032000
:1023300000F0E0F80F2000F007F800F05FF8002050
:1023400010BD0000003C02402DE9F04188B0044679
:102350000027B84600BF002001902348006840F0E5
:102360001000214908600846006800F01000019044
:1023700000BF00BF02A903A800F092F9069F1FB991
:1023800000F0B6F9054602E000F0B2F94500174842
:10239000B5FBF0F0A0F1010815481649086040F2BD
:1023A000E7311448C160C0F80480002101618160F8
:1023B000816101F04FF9064696B90E4801F02AFAFC
:1023C00006466EB9362000F043F8102C07D20022E2
:1023D0002146362000F050F80748046000E001264E
:1023E000304608B0BDE8F0814038024040420F005E
:1023F00000100040A80600201800002008B500BF0B
:10240000002000901148006840F480400F490860A7
:102410000846006800F48040009000BF00BF00BF85
:1024200000200090081F006840F08050091F0860DD
:102430000846006800F08050009000BF00BF0022F6
:102440000F21901E00F018F808BD0000443802402B
:102450000146084600280DDB00BF00BF00F01F0347
:1024600001229A4043099B0003F1E023C3F80021B5
:1024700000BF00BF00BF70472DE9F05F80460D46EA
:102480001646002704F030FE074639462A463346F2
:1024900001F00700C0F1070ABAF1040F02D94FF0AA
:1024A000040A01E0C0F1070AD14600F1040ABAF1BA
:1024B000070F02D24FF0000A01E0A0F1030AD44650
:1024C0004FF0010A0AFA09FAAAF1010A0AEA020A15
:1024D0000AFA0CFA4FF0010B0BFA0CFBABF1010BF3
:1024E0000BEA030B4AEA0B042146404604F004FEC3
:1024F000BDE8F09F00BF00F00702064B19684FF6D9
:10250000FF031940044B0B4343EA0221014B1960BE
:1025100000BF70470CED00E00000FA0570B50446FE
:102520000D460CB9012070BD5848006800F0070046
:10253000A84209D255490D700846006800F007000E
:10254000A84201D00120EEE7207800F00200022826
:102550001DD1207800F00400042805D14C48006803
:1025600040F4E0504A490860207800F0080008284C
:1025700005D14748006840F4604045490860444838
:10258000006820F0F000A168084341490860207805
:1025900000F00100A8B36068012807D13C48083862
:1025A0000068C0F34040B8B90120BCE76068022869
:1025B00002D06068032807D1354808380068C0F3A6
:1025C000406048B90120AEE7314808380068C0F3E0
:1025D000400008B90120A6E72D48006820F003005C
:1025E000616808432A490860FFF732FD064609E0A2
:1025F000FFF72EFD801B41F28831884202D903206B
:1026000091E707E02248006800F00C006168B0EB39
:10261000810FEDD11D48006800F00700A84209D9DC
:102620001A490D700846006800F00700A84201D062
:10263000012078E7207800F00400042807D114482E
:10264000006820F4E050E1680843114908602078F0
:1026500000F00800082808D10D48006820F4604008
:10266000216940EAC1000A49086000F061F80849A0
:102670000968C1F30311074A515CC8400649086064
:1026800006480068FFF760FE00204CE7003C02406F
:102690000838024098A500082000002018000020FB
:1026A0000F2202600D4A126802F0030242600B4AD8
:1026B000126802F0F0028260084A126802F4E052E6
:1026C000C260064A126802F46042D2080261044AFB
:1026D000126802F007020A607047000008380240E2
:1026E000003C0240014800687047000020000020C4
:1026F00000B5FFF7F7FF04490968C1F38221034AD7
:10270000515CC84000BD000008380240A8A5000880
:1027100000B5FFF7E7FF04490968C1F34231034AF6
:10272000515CC84000BD000008380240A8A5000860
:102730002DE9F047002400250026A1462548006821
:1027400000F00C0020B1042805D008283AD105E09B
:10275000DFF8849039E0DFF8849036E01D48001FF0
:10276000006800F03F041B48001F006800F4800070
:1027700078B11A481749091F0968C1F38811A0FBED
:1027800001700146224600233846FDF7CDFD05467F
:102790000EE011480F49091F0968C1F38811A0FB19
:1027A00001700146224600233846FDF7BDFD05466F
:1027B0000848001F0068C0F30140401C4600B5FBFC
:1027C000F6F902E0DFF8109000BF00BF4846BDE810
:1027D000F0870000083802400024F400001BB70016
:1027E000F8B504460CB90120F8BD207800F00100CE
:1027F000002874D0F948006800F00C0004280DD0BF
:10280000F648006800F00C00082813D1F348001FB8
:10281000006800F48000B0F5800F0BD1EF48083855
:102820000068C0F34040002859D06068002856D1A5
:102830000120D9E700BF6068B0F5803F08D1E748C4
:102840000838006840F48030E449083908601EE028
:102850006068B0F5A02F0DD1E0480838006840F45A
:102860008020DE49083908600846006840F480305E
:1028700008600CE0D9480838006820F48030D74957
:10288000083908600846006820F48020086000BF0E
:10289000606890B1FFF7DCFB054606E0FFF7D8FB68
:1028A000401B642801D903209EE7CC480838006803
:1028B000C0F340400028F1D011E0FFF7C9FB054606
:1028C00006E0FFF7C5FB401B642801D903208BE716
:1028D000C24808380068C0F340400028F1D1207891
:1028E00000F0020002285FD1BC48006800F00C0034
:1028F00058B1BA48006800F00C0008281CD1B7484D
:10290000001F006800F48000B0B9B44808380068BF
:10291000C0F3400020B1E068012801D0012063E746
:10292000AE480838006820F0F800216940EAC1008C
:10293000AA490839086037E0E06800B30120A849D7
:102940000860FFF785FB054606E0FFF781FB401BAB
:10295000022801D9032047E7A04808380068C0F3DF
:1029600040000028F1D09D480838006820F0F800A9
:10297000216940EAC10099490839086014E0002043
:1029800097490860FFF764FB054606E0FFF760FB28
:10299000401B022801D9032026E790480838006828
:1029A000C0F340000028F1D1207800F0080008288A
:1029B0002CD16069A8B101208A490860FFF748FB63
:1029C000054606E0FFF744FB401B022801D903201F
:1029D0000AE782486C300068C0F340000028F1D05C
:1029E00014E000207F490860FFF732FB054606E04F
:1029F000FFF72EFB401B022801D90320F4E677489D
:102A00006C300068C0F340000028F1D1207800F05D
:102A10000400042870D1002770483830006800F0A6
:102A2000805090B900BF002000906C48383000689A
:102A300040F080506949383108600846006800F06D
:102A40008050009000BF00BF01276748006800F475
:102A50008070B0B96448006840F4807062490860D2
:102A6000FFF7F6FA054606E0FFF7F2FA401B0228E8
:102A700001D90320B8E65C48006800F480700028A3
:102A8000F2D000BFA068012808D15448683000681F
:102A900040F001005149683108601DE0A068052838
:102AA0000DD14E486830006840F004004B49683151
:102AB00008600846006840F0010008600CE04748E4
:102AC0006830006820F00100444968310860084619
:102AD000006820F00400086000BFA068A8B1FFF7FC
:102AE000B7FA054609E0FFF7B3FA401B41F2883117
:102AF000884202D9032077E626E03848683000682B
:102B0000C0F340000028EED013E0FFF7A1FA05461D
:102B100008E0FFF79DFA401B41F28831884201D955
:102B2000032061E62D4868300068C0F340000028AB
:102B3000EFD1012F07D129483830006820F08050AC
:102B400026493831086000BFA069002845D02348D5
:102B5000006800F00C0008285DD0A069022845D16B
:102B600000201F490866FFF773FA054606E0FFF7E5
:102B70006FFA401B022801D9032035E617480838B0
:102B80000068C0F340600028F1D1D4E90701084390
:102B9000616A40EA81110122A06AC2EB500041EA59
:102BA00000412C20005D41EA00600C49091F0860CB
:102BB00001200B490866FFF74BFA054606E0FFF7D0
:102BC00047FA401B022801D903200DE603480838C4
:102BD0000068C0F340600028F1D049E008380240A6
:102BE00000004742800E474200700040002021490B
:102BF0000866FFF72DFA054606E0FFF729FA401BA5
:102C0000022801D90320EFE51B480068C0F34060AB
:102C10000028F2D12CE0A069012800D1E4E5164893
:102C2000001D0668A069012820D006F48001E06933
:102C300081421BD106F03F01206A814216D147F63E
:102C4000C0703040616AB0EB811F0FD106F4403193
:102C50000122A06AC2EB5000B1EB004F06D106F092
:102C600070612C20005DB1EB006F01D00120BBE54D
:102C70000020B9E500004742003802407047014695
:102C800091F8510070470000F8B504462068466886
:102C900020688568C5F3801048B905F0010030B19F
:102CA000C6F3801018B12046216C8847F8BDC5F3E3
:102CB000400030B1C6F3C01018B12046616C88479F
:102CC000F4E7C5F3401030B9C5F3801018B9C5F367
:102CD000002000287CD0C6F3401000287DD0C5F32A
:102CE0008010F0B194F8510003280ED0606D40F0D0
:102CF0000400606500BF002000902068C06800905C
:102D000020688068009000BF0BE000BF00200090AA
:102D10002068C068009020688068009000BF00BFF5
:102D2000C4E7C5F3401088B1606D40F001006065F4
:102D300000BF002000902068806800902068006834
:102D400020F040002168086000BF00BFC5F30020EC
:102D500058B1606D40F00800606500BF0020009031
:102D600020688068009000BF00BF606D78B3206865
:102D7000406820F0E00021684860012084F851009C
:102D800006F00200022802D006F0010008B3206815
:102D9000406820F0030021684860E06C50B11048A2
:102DA000E16C0865E06CFEF73BFE18B1606D40F029
:102DB00040006065A06C50B10948A16C0865A06C2A
:102DC000FEF72EFE18B1606D40F04000606503E034
:102DD00003E02046FFF752FF68E700BF66E7000008
:102DE000215E000810B504460CB9012010BD606AD0
:102DF00038B96068B0F5827F00D105E00021E1615B
:102E000002E00021216161610021A16294F851007A
:102E100028B9002084F85000204600F047F802202E
:102E200084F851002068006820F0400021680860A4
:102E3000A08800F48270218901F404410843A1892B
:102E400001F400610843217C01F002010843217D67
:102E500001F001010843218B01F400710843217F37
:102E600001F0380108432021095D01F08001084389
:102E7000218D01F400510843216808600421A069F4
:102E800001EA104094F8241001F010010843216871
:102E900048602068C06920F400602168C861002093
:102EA0006065012084F8510000209FE710B586B0CE
:102EB0000446142101A8FDF7FBFA4F492068884217
:102EC0007ED100BF002000904C48006840F4805044
:102ED0004A4908600846006800F48050009000BF2E
:102EE00000BF00BF0020009044481438006840F044
:102EF00002004249143908600846006800F00200E8
:102F0000009000BF00BF00BF00200090084600688E
:102F100040F0010008600846006800F001000090E1
:102F200000BF00BF182001900220029000200390F3
:102F3000032004900520059001A93148FEF788FF81
:102F40008020019002200290002003900320049032
:102F50000520059001A92B48FEF77AFF2A482B4946
:102F600008604FF0C0604860002128488160C1605F
:102F70004FF480610161002141618161C1614FF4C1
:102F80004031016200214162FEF77EFE08B1FDF78B
:102F900002FE00BF1D48E064846300BF1A48483049
:102FA0001B4908604FF0C0604860402118488160AC
:102FB0000021C1604FF4806101610021416100E0A6
:102FC00018E08161C1614FF400310162002141626A
:102FD000FEF75AFE08B1FDF7DEFD00BF0C48A06405
:102FE000846300BF002205212320FFF745FA232038
:102FF000FFF72EFA06B010BD003001404438024001
:103000000004024000000240106402401002002050
:10301000700200202DE9F8430446884616461D46F6
:1030200094F85100012802D00220BDE8F883B8F1DD
:10303000000F00D00EB90120F7E76068B0F5827F7D
:103040000CD1A06850B9042084F8510033464246A0
:1030500041462046009500F07DF9E6E7FEF7F8FFCF
:10306000074600BF94F85000012801D10220DCE798
:10307000012084F8500000BF042084F85100002093
:103080006065C4F83880A687E6872063A086E0865E
:1030900020646064A068B0F5004F0BD12068006820
:1030A00020F04000216808602068006820F480401B
:1030B000216808602068006800F04000402805D0C2
:1030C0002068006840F0400021680860E06830BB7C
:1030D00021E02068806800F0010050B12068007B8A
:1030E000A16B0870A06B401CA063E08F401EE087BE
:1030F00011E0FEF7ADFFC01BA84201D3681C00B968
:103100004DB9012084F8510000BF002084F8500020
:1031100000BF032089E7E08F0028DAD125E021E015
:103120002068806800F0010050B12068C068A16B81
:103130000880A06B801CA063E08F401EE08711E038
:10314000FEF786FFC01BA84201D3681C00B94DB929
:10315000012084F8510000BF002084F8500000BF17
:10316000032062E7E08F0028DAD13A46294620465C
:1031700002F060FE08B120206065012084F8510053
:1031800000BF002084F8500000BF606D08B101202E
:103190004BE7002049E72DE9F84304460F46164661
:1031A0001D46FEF755FF8046B14694F851000128B0
:1031B00002D00220BDE8F88307B10EB90120F9E77B
:1031C00000BF94F85000012801D10220F2E701204D
:1031D00084F8500000BF032084F85100002060658F
:1031E0002763A686E686A063A087E08760642064E4
:1031F000A068B0F5004F0BD12068006820F04000B7
:10320000216808602068006840F4804021680860F8
:103210002068006800F04000402805D02068006861
:1032200040F0400021680860E068B0F5006F37D1D9
:10323000606810B1B9F1010F09D1206B00882168D5
:10324000C860206B801C2063E08E401EE08623E077
:103250002068806800F0020002280AD1206B0088F4
:103260002168C860206B801C2063E08E401EE086D1
:1032700012E0FEF7EDFEA0EB0800A84201D3681CA7
:1032800000B94DB9012084F8510000BF002084F836
:10329000500000BF03208DE7E08E0028D8D136E033
:1032A000606810B1B9F1010F09D1206B0078216875
:1032B0000873206B401C2063E08E401EE08623E0F4
:1032C0002068806800F0020002280AD1206B007894
:1032D00021680873206B401C2063E08E401EE0864E
:1032E00012E0FEF7B5FEA0EB0800A84201D3681C6F
:1032F00000B94DB9012084F8510000BF002084F8C6
:10330000500000BF032055E7E08E0028D8D1424688
:103310002946204602F0D8FD08B120206065A0684B
:1033200050B900BF002000902068C068009020685D
:103330008068009000BF00BF012084F8510000BFEA
:10334000002084F8500000BF606D08B1012031E713
:1033500000202FE72DE9FE4F04460F4690461D46FC
:103360000C9E01200190FEF773FE814694F851B047
:1033700060680290AA46BBF1010F0BD00298B0F52D
:10338000827F04D1A06810B9BBF1040F02D00220E3
:10339000BDE8FE8F1FB1B8F1000F00D00DB90120BC
:1033A000F6E700BF94F85000012801D10220EFE7B2
:1033B000012084F8500000BF94F85100042802D086
:1033C000052084F8510000206065C4F83880E58746
:1033D000A5872763E586A586206460642068006869
:1033E00000F04000402805D02068006840F0400010
:1033F00021680860E068B0F5006F52D1606810B1D4
:10340000BAF1010F09D1206B00882168C860206BD8
:10341000801C2063E08E401EE0863BE020688068D0
:1034200000F00200022810D1E08E70B1019801284E
:103430000BD1206B00882168C860206B801C206342
:10344000E08E401EE086002001902068806800F039
:10345000010068B1E08F58B12068C068A16B088096
:10346000A06B801CA063E08F401EE08701200190CC
:10347000FEF7EEFDA0EB0900B0420BD3701C48B183
:10348000012084F8510000BF002084F8500000BFE4
:1034900003207DE7E08E0028C0D1E08F0028BDD159
:1034A00052E0606810B1BAF1010F09D1206B0078C9
:1034B00021680873206B401C2063E08E401EE0866C
:1034C0003CE02068806800F00200022810D1E08E05
:1034D00070B1019801280BD1206B00782168087326
:1034E000206B401C2063E08E401EE086002001908F
:1034F0002068806800F0010068B1E08F58B1206852
:10350000C068A16B0870A06B401CA063E08F401ED8
:10351000E08701200190FEF79BFDA0EB0900B0427F
:1035200001D3701C00B94EB9012084F8510000BFCE
:10353000002084F8500000BF032029E7E08E002817
:10354000BFD1E08F0028BCD14A463146204602F068
:10355000BBFC40B12020606500BF002084F8500013
:1035600000BF012014E7A06850B900BF0020009000
:103570002068C068009020688068009000BF00BF8D
:10358000012084F8510000BF002084F8500000BFE3
:10359000606D08B10120FBE60020F9E67047704736
:1035A00030B502460B4600BF92F83C00012801D11D
:1035B000022030BD012082F83C0000BF022082F8CA
:1035C0003D00106844681068816824F07004186831
:1035D000044310684460184D1068A8421BD010685E
:1035E000B0F1804F17D0154D1068A84213D0144D7C
:1035F0001068A8420FD0134D1068A8420BD0124D8E
:103600001068A84207D0114D1068A84203D0104D91
:103610001068A84205D121F0800158680143106864
:103620008160012082F83D0000BF002082F83C004C
:1036300000BF00BFBDE700000000014000040040E3
:1036400000080040000C0040000401400040014020
:103650000018004010B504460CB9012010BD94F8C4
:103660003D0028B9002084F83C00204600F026F8F0
:10367000022084F83D00211D206802F081FD012018
:1036800084F8460000BF84F83E0001213F20015528
:10369000402001554120015500BF00BF012084F8A2
:1036A000420043200155442001554520015500BFEB
:1036B000012084F83D000020D0E7000008B5294A29
:1036C000016891420FD100BF00210091264909688D
:1036D00041F00201244A11601146096801F002011B
:1036E000009100BF3DE0214A016891420FD100BF27
:1036F000002100911C49096841F004011A4A116037
:103700001146096801F00401009100BF29E0184A40
:10371000016891420FD100BF002100911249096850
:1037200041F00801104A11601146096801F00801D2
:10373000009100BF15E00F4A0168914211D100BF0E
:10374000002100910849091D096841F40031064A29
:10375000121D11601146096801F40031009100BF8B
:1037600000BF08BD0004004040380240000800408F
:10377000000C004000440140014691F83D00012842
:1037800001D001207047022081F83D001A4B0868E3
:1037900098421BD00868B0F1804F17D0174B0868CB
:1037A000984213D0164B086898420FD0154B086802
:1037B00098420BD0144B0868984207D0134B086806
:1037C000984203D0124B086898420CD10868806870
:1037D00000F00702062A0CD00868006840F00100DB
:1037E0000B68186005E00868006840F001000B688D
:1037F00018600020C6E700000000014000040040FF
:1038000000080040000C004000040140004001405E
:1038100000180040014691F83D00012801D0012028
:103820007047022081F83D000868C06840F0010040
:103830000B68D8601A4B086898421BD00868B0F132
:10384000804F17D0174B0868984213D0164B086862
:1038500098420FD0154B086898420BD0144B08685B
:10386000984207D0134B0868984203D0124B08685F
:1038700098420CD10868806800F00702062A0CD034
:103880000868006840F001000B68186005E00868EF
:10389000006840F001000B6818600020C0E70000DD
:1038A000000001400004004000080040000C0040FF
:1038B0000004014000400140001800402DE9F041A3
:1038C00004460D46002700BF94F83C00012802D1B1
:1038D0000220BDE8F081012084F83C0000BF0220F6
:1038E00084F83D002068866826F0770626F47F4637
:1038F000206886602868502833D00CDC202850D0FF
:1039000004DC00284BD0102851D149E0302849D0A0
:1039100040284CD139E060282DD0702807D0B0F570
:10392000805F03D0B0F5005F41D10DE041E0D5E903
:1039300002136A68206802F0A4FC2068866846F0DA
:1039400077062068866034E0D5E902136A6820684B
:1039500002F097FC2068806840F48040216888600D
:1039600027E0EA686968206802F07CFD5021206841
:1039700002F092FC1DE0EA686968206802F085FDAB
:103980006021206802F088FC13E0EA68696820681A
:1039900002F068FD4021206802F07EFC09E000BFD3
:1039A00000BF00BF2968206802F076FC01E0012713
:1039B00000BF00BF012084F83D0000BF002084F854
:1039C0003C0000BF384684E7704770B50446206865
:1039D000C5682068066906F00200022819D105F0C2
:1039E0000200022815D1401F2168086101202077BC
:1039F0002068806900F0030018B12046FFF7E4FF5B
:103A000005E0204600F03CF9204600F0F0F90020E7
:103A1000207706F00400042819D105F004000428DA
:103A200015D1C04321680861022020772068806991
:103A300000F4407018B12046FFF7C6FF05E02046AD
:103A400000F01EF9204600F0D2F90020207706F0A1
:103A50000800082819D105F00800082815D1C0432E
:103A600021680861042020772068C06900F0030005
:103A700018B12046FFF7A8FF05E0204600F000F946
:103A8000204600F0B4F90020207706F0100010283E
:103A900019D105F01000102815D1C0432168086124
:103AA000082020772068C06900F4407018B12046D3
:103AB000FFF78AFF05E0204600F0E2F8204600F01C
:103AC00096F90020207706F0010048B105F00100CA
:103AD00030B16FF0010021680861204600F00EFA55
:103AE00006F08000802809D105F08000802805D1EB
:103AF000C043216808612046FFF750FD06F04000F2
:103B0000402809D105F04000402805D1C043216874
:103B10000861204600F0FEF906F02000202809D1B7
:103B200005F02000202805D1C04321680861204607
:103B3000FFF735FD70BD000010B586B004461421B6
:103B400001A8FCF7B5FC4549206888421DD100BF9B
:103B5000002000904248006840F00400404908609E
:103B60000846006800F00400009000BF00BF881500
:103B70000190022002900020039004900220059002
:103B800001A93848FEF764F966E0374920688842A1
:103B90001ED100BF002000903148006840F00800AE
:103BA0002F4908600846006800F00800009000BF38
:103BB00000BF4FF48040019002200290002003904B
:103BC00004900220059001A92848FEF741F943E03E
:103BD0002749206888421ED100BF0020009020485D
:103BE000006840F080001E4908600846006800F048
:103BF0008000009000BF00BF4FF4E0500190022011
:103C000002900020039004900220059001A9194819
:103C1000FEF71EF920E01849206888421CD100BF39
:103C2000002000900E48006840F020000C49086019
:103C30000846006800F02000009000BF00BF402050
:103C40000190022002900020039004900320059030
:103C500001A90A48FEF7FCF806B010BD00040040B8
:103C6000303802400008024000080040000C0240CA
:103C7000000C0040001C02400044014000140240BF
:103C800070472DE9F04104460D461646002700BF57
:103C900094F83C00012802D10220BDE8F081012007
:103CA00084F83C0000BF36B1042E1BD0082E31D062
:103CB0000C2E5ED145E02946206802F0F7FA206814
:103CC000806940F00800216888612068806920F0E0
:103CD0000400216888612068806929690843216897
:103CE000886148E02946206802F018FB2068806956
:103CF00040F40060216888612068806920F4806059
:103D00002168886120688069296940EA012021686A
:103D1000886130E02946206802F03EFB2068C069D7
:103D200040F008002168C8612068C06920F00400E4
:103D30002168C8612068C069296908432168C86191
:103D400019E02946206802F063FB2068C06940F44E
:103D500000602168C8612068C06920F48060216823
:103D6000C8612068C069296940EA01202168C861EA
:103D700001E0012700BF00BF00BF002084F83C0025
:103D800000BF384689E710B504460CB9012010BDC4
:103D900094F83D0028B9002084F83C00204600F04B
:103DA00025F8022084F83D00211D206802F0E8F982
:103DB000012084F8460000BF84F83E0001213F2026
:103DC0000155402001554120015500BF00BF012091
:103DD00084F84200432001554420015545200155F7
:103DE00000BF012084F83D000020D0E770477047F5
:103DF00070B504460D4615B994F83E000BE0042D4D
:103E000002D13F20005D06E0082D02D14020005D78
:103E100001E04120005D012801D0012070BD1DB9E5
:103E2000022084F83E000EE0042D03D102213F2041
:103E3000015508E0082D03D102214020015502E080
:103E400002214120015501222946206802F008FA8A
:103E500023492068884203D022492068884201D142
:103E6000012000E0002028B12068406C40F40040B0
:103E7000216848641A49206888421BD02068B0F144
:103E8000804F17D018492068884213D017492068FE
:103E900088420FD01649206888420BD0114920680B
:103EA000884207D013492068884203D0124920680D
:103EB00088420CD12068806800F00706062E0CD0DE
:103EC0002068006840F001002168086005E0206873
:103ED000006840F001002168086000209EE70000B3
:103EE00000000140000401400004004000080040C0
:103EF000000C0040004001400018004010B504468E
:103F000003492068884201D1FEF7F4F910BD000092
:103F1000001000407047F8B504460D46164694F868
:103F2000420020282DD105B10EB90120F8BD012095
:103F300020630020606332462946204602F06EFF6F
:103F40000746206B012819D100BF0020009020688F
:103F50000068009020684068009000BF00BF00BF6C
:103F600000BF21680C3151E8001F41F010002168AA
:103F70000C3141E80002002AF3D100E00127384665
:103F8000D4E70220D2E7000070B504460D46084988
:103F9000206888420AD1122D03D106490648FCF751
:103FA00049FD242204492046FFF7B5FF70BD0000FB
:103FB00000480040A45100208051002070470000BC
:103FC0002DE9F84F0446206805682068C668206817
:103FD00047694FF00009CA4605F00F09B9F1000F13
:103FE0000AD105F0200038B106F0200020B12046AB
:103FF00002F07FFDBDE8F88FB9F1000F7CD007F02B
:10400000010018B906F49070002875D005F0010081
:1040100030B106F4807018B1606C40F0010060644B
:1040200005F0040030B107F0010018B1606C40F0F9
:104030000200606405F0020030B107F0010018B121
:10404000606C40F00400606405F0080048B106F0C0
:10405000200010B907F0010018B1606C40F00800B2
:104060006064606C002846D005F0200028B106F09E
:10407000200010B1204602F03CFD20684069C0F3EA
:10408000801A606C00F0080010B9BAF1000F2DD052
:10409000204602F0D5FC2068406900F0400040282E
:1040A00020D100BF00BF2168143151E8001F21F06A
:1040B00040002168143141E80002002AF3D100BF1A
:1040C000E06B50B17F48E16B0865E06BFDF7A8FC41
:1040D00088B1E06B016D88470DE02046FFF76EFF69
:1040E00009E009E02046FFF769FF04E02046FFF7FA
:1040F00065FF002060647DE7206B012878D105F022
:104100001000002874D006F010000028FAD000BF7C
:1041100000200090206800680090206840680090AF
:1041200000BF00BF2068406900F04000402870D107
:10413000E06B006840681FFA80F8B8F1000F58D0B3
:10414000A08D404555DDA4F82E80E06BC069B0F528
:10415000807F43D000BF00BF21680C3151E8001FB1
:1041600021F4807021680C3141E80002002AF3D16B
:1041700000BF00BF00BF2168143151E8001F21F0CB
:1041800001002168143141E80002002AF3D100BF88
:1041900000BF00BF2168143151E8001F21F040002A
:1041A0002168143141E80002002AF3D100BF202029
:1041B00084F842000020206300BF00BF21680C315A
:1041C00051E8001F21F0100021680C3141E8000285
:1041D000002AF3D100BFE06BFDF7CCFB0220606347
:1041E000A08DE28D801A81B22046FFF7CDFE0EE051
:1041F00052E0A08D40450AD1E06BC069B0F5807FE8
:1042000005D102206063A18D2046FFF7BDFEF1E6D7
:10421000FFE7A08DE18D401A1FFA80F8E08DD0B342
:10422000B8F1000F37D000BF00BF21680C3151E852
:10423000001F21F4907021680C3141E80002002A2F
:10424000F3D100BF00BF00BF2168143151E8001F47
:1042500021F001002168143141E80002002AF3D165
:1042600000BF202084F842000020206300BF00BF70
:1042700021680C3151E8001F21F0100021680C3139
:1042800041E80002002AF3D100BF022060634146EA
:104290002046FFF779FEADE605F0800030B106F06C
:1042A000800018B1204602F025FEA3E605F040008C
:1042B00030B106F0400018B1204602F0F7FB99E655
:1042C00000BF97E6A168000810B504460CB90120AC
:1042D00010BDA06900B100E000BF94F8410028B90A
:1042E000002084F84000204600F02AF8242084F8BA
:1042F00041002068C06820F400502168C860204652
:1043000002F076FC2068006920F490402168086182
:104310002068406920F02A00216848612068C06850
:1043200040F400502168C86000206064202084F8B8
:10433000410084F842000020606300BFC8E700002D
:1043400010B586B00446142101A8FCF7B1F8BB49AA
:10435000206888427ED100BF00200090B8480068E5
:1043600040F01000B64908600846006800F01000F0
:10437000009000BF00BF00BF00200090B04814387C
:10438000006840F00200AE49143908600846006831
:1043900000F00200009000BF00BF00BF00200090AE
:1043A0000846006840F0010008600846006800F018
:1043B0000100009000BF00BF802001900220029009
:1043C00000200390032004900720059001A99D4838
:1043D000FDF73EFD4FF40070019002200290002096
:1043E0000390032004900720059001A99648FDF74B
:1043F0002FFD9648964908604FF000604860002104
:1044000093488160C1604FF4806101610021416186
:104410008161C16101624162FDF736FC08B1FCF7C0
:10442000BAFB00BF8A48E063846300BF87487830E6
:10443000884908604FF000604860402185488160ED
:104440000021C1604FF480610161002141618161FF
:10445000C16100E014E001624162FDF715FC08B1A2
:10446000FCF799FB00BF7B48A063846300BF002278
:1044700005212520FEF700F82520FDF7E9FFDBE008
:104480007549206888425BD100BF002000906C48CD
:10449000001F006840F480206949091F0860084631
:1044A000006800F48020009000BF00BF00BF002023
:1044B000009063481438006840F0040060491439E3
:1044C00008600846006800F00400009000BF00BFCC
:1044D0004FF44060019002200290002003900320DE
:1044E00004900720059001A95C48FDF7B1FC5C48E9
:1044F0005C4908604FF000604860002159488160C5
:10450000C1604FF480610161002141618161C1613D
:104510004FF44031016200214162FDF7B5FB08B163
:10452000FCF739FB00BF4F48E063846300BF002203
:1045300005212720FDF7A0FF2720FDF789FF7BE05D
:1045400049492068884277D100BF002000903C484C
:10455000006840F020003A4908600846006800F012
:104560002000009000BF00BF00BF00200090344832
:104570001438006840F0400031491439086008469A
:10458000006800F04000009000BF00BF4FF484407E
:104590000190022002900020039003200490082044
:1045A000059001A93148FDF753FC28486030304997
:1045B00008604FF02060486040212D488160002154
:1045C000C1604FF480610161002141618161C1617D
:1045D0004FF40031016200214162FDF755FB08B143
:1045E000FCF7D9FA00BF2248A063846300BF1748D4
:1045F0001838204908608005486000211D48816006
:10460000C1604FF480610161002141618161C1613C
:1046100001624162FDF738FB08B1FCF7BCFA00BF4C
:104620001448E063846300BF002205214720FDF7A2
:1046300023FF4720FDF70CFF06B010BD001001401E
:10464000443802400004024000000240406402403E
:10465000C80400202805002000480040000802404F
:104660002860024088050020001401400018024024
:10467000E80500204806002070477047F7B504465B
:10468000154694F8410020283ED1019800B10DB99B
:104690000120FEBD01982062A584E58400206064AD
:1046A000212084F841001948A16BC8631848A16B08
:1046B00008641848A16BC8640020A16B086501AEAE
:1046C00023681A1D31682B46A06BFDF753FB30B1F0
:1046D00010206064202084F841000120D9E76FF0A9
:1046E00040002168086000BF00BF2168143151E814
:1046F000001F41F080002168143141E80002002AC7
:10470000F3D100BF0020C4E70220C2E7DB69000844
:10471000336A0008B36800087047704700BFFEE7BF
:1047200010B52DED028B044614B194ED060A02E09B
:10473000124890ED000AB0EE408A9FED110AB4EEE7
:10474000C08AF1EE10FA06DB9FED0E0A01F06CFC58
:10475000BDEC028B10BDB0EE480A02F095F89FED5B
:104760000A0A02F097F801F0F5FE0848D0ED070AB2
:10477000B0EE600A01F058FC00BFE9E7E800002055
:10478000000040420000000000003442C050002001
:1047900010B5002210214948FDF754FC7E204849FD
:1047A00008704FF47A7301224648FEF7F4FC00BF0C
:1047B0004448FEF764FA0328FAD0B620404908704E
:1047C0004FF47A7301223F48FEF7E5FC00BF3D48F5
:1047D000FEF755FA0328FAD00120FDF715FB012258
:1047E00010213648FDF72EFC002210213348FDF73A
:1047F00029FC7D2032490870C30001223148FEF7B0
:10480000CAFC00BF2F48FEF73AFA0328FAD004206A
:104810002B4908704FF47A7301222A48FEF7BBFC3B
:1048200000BF2848FEF72BFA0328FAD00120FDF735
:10483000EBFA012210212148FDF704FC002201219E
:104840002148FDF7FFFB14201D4908704FF47A73CF
:1048500001221C48FEF79FFC00BF1A48FEF70FFA22
:104860000328FAD0B620164908704FF47A73012253
:104870001448FEF790FC00BF1248FEF700FA032828
:10488000FAD01E20FDF7C0FA012211460E48FDF7AE
:10489000D9FBDFED0E3A9FED0E3ADFED0E2A9FEDCC
:1048A0000E2ADFED0A1A9FED0D1ADFED0D0A9FEDBE
:1048B0000D0A01F0A3FF00F065F910BD00000240F1
:1048C000D4000020B80100200004024000000000D5
:1048D000000020420000B4426F12833A9A99193EB8
:1048E000CDCC4C3E0000F04270B5044600250022BD
:1048F00010214048FDF7A6FB92203F4908704FF475
:104900007A7301223D48FEF746FC00BF3B48FEF7A4
:10491000B6F90328FAD04FF47A73012238493748A0
:10492000FEF778FB00BF3548FEF7A9F90428FAD056
:1049300012E04FF47A73012231493048FEF76AFBE6
:1049400000BF2E48FEF79BF90428FAD02C480078C7
:104950002C494855681CC5B2062DEADB01221021FE
:104960002448FDF76FFB27484078000200B2254934
:104970000978084300EE100AB8EEC00A2248D0EDCC
:10498000000A20EE200A214880ED000A1D48C07868
:10499000000200B21B498978084300EE100AB8EE05
:1049A000C00A1948D0ED000A20EE200A174880ED11
:1049B000010A14484079000200B2124909790843FB
:1049C00000EE100AB8EEC00A0F48D0ED000A20EE43
:1049D000200A0E4880ED020A5CB190ED000A84EDD9
:1049E000000A90ED010A84ED010A90ED020A84EDBF
:1049F000020A70BD00000240D4000020B80100206F
:104A0000D5000020D6000020CC0000201C51002042
:104A100070B504460025002201213C48FDF712FB39
:104A200080203B4908704FF47A7301223948FEF721
:104A3000B2FB00BF3748FEF722F90328FAD012E094
:104A40004FF47A73012234493248FEF7E3FA00BF8B
:104A50003048FEF714F90428FAD02F4800782F497F
:104A60004855681CC5B2082DEADB012211462748CB
:104A7000FDF7E8FA294800780F2838D12748C07890
:104A8000000200B225498978084300EE100AB8EE0A
:104A9000C00A2348D0ED000A20EE200A214880ED0C
:104AA000000A1E484079000200B21C4909790843F7
:104AB00000EE100AB8EEC00A1948D0ED000A20EE48
:104AC000200A184880ED010A1448C079000200B29B
:104AD00012498979084300EE100AB8EEC00A10485E
:104AE000D0ED000A20EE200A0E4880ED020A64B1E3
:104AF0000C4890ED000A84ED030A90ED010A84ED64
:104B0000040A90ED020A84ED050A70BD000402401B
:104B1000D4000020B8010020D5000020D6000020DD
:104B2000D00000201051002070B50546FBF792FD23
:104B3000A220FBF7ADFD022210492220FBF794FDD5
:104B4000FBF77EFD0D480078C0000C49497840EA2B
:104B50006114B4F5806F02DBA4F5006004B200EECE
:104B6000104AF8EEC00AB4EE001AB3EE070A00EEDF
:104B7000810A034880ED060A70BD0000DE000020B7
:104B80003451002010B50648FEF7F6FD0021044818
:104B9000FFF72EF99FED030A01F046FA10BD000061
:104BA000A80300200000000010B50848FFF79CFE95
:104BB0000648FFF72DFF0548FFF7B6FF0348FFF74C
:104BC000AFFD0349014800F005F810BD3451002045
:104BD0005051002070B504460D4694ED023AF0EEB7
:104BE000432A94ED013AB0EE432A94ED003AF0EEF8
:104BF000431A94ED053AB0EE431A94ED043AF0EE00
:104C0000430A94ED033AB0EE430A0C4800F0A8FBC7
:104C10000B4B1A1F111F0948FBF7C0FF6DB1084865
:104C2000083890ED000A85ED020A90ED010A85ED45
:104C3000010A90ED020A85ED000A70BD0001002016
:104C40003051002010B50E480E490860032048601E
:104C500000210C488160C1604FF4102101614FF4C4
:104C6000001141610021017641768176C17601779C
:104C70004177FCF7C7FC08B1FBF78DFF10BD0000C2
:104C8000006400401401002010B50E480E49086071
:104C90000320486000210C488160C1604FF410215E
:104CA00001614FF400114161002101764176817666
:104CB000C17601774177FCF7A5FC08B1FBF76BFFE4
:104CC00010BD0000006800403C01002008B500BF96
:104CD000002000902A48006840F40010284908602D
:104CE0000846006800F40010009000BF00BF00BF3D
:104CF000002000900846006840F4800008600846E4
:104D0000006800F48000009000BF00BF0022052171
:104D10000C20FDF7B1FB0C20FDF79AFB00220521CA
:104D20003820FDF7A9FB3820FDF792FB0022052172
:104D30003920FDF7A1FB3920FDF78AFB0022052170
:104D40003A20FDF799FB3A20FDF782FB002205216E
:104D50003B20FDF791FB3B20FDF77AFB002205216C
:104D60004520FDF789FB4520FDF772FB0022052158
:104D70004620FDF781FB4620FDF76AFB08BD0000D9
:104D80003038024010B50E4A00210E4802F0A4FE51
:104D90000D4908600D4A00210D4802F09DFE0D49A5
:104DA00008600D4A00210D4802F096FE0C4908608B
:104DB0000C4A00210C4802F08FFE0C49086010BD1F
:104DC00000A50008D56400080000002024A5000804
:104DD000B56400080400002048A500080965000823
:104DE000080000206CA500082F6500080C000020BA
:104DF00000B587B0142102A8FBF75AFB00BF0020C2
:104E000001906648006840F0020064490860084666
:104E1000006800F00200019000BF00BF00BF00204A
:104E200001900846006840F04000086008460068AD
:104E300000F04000019000BF00BF00BF00200190C3
:104E40000846006840F0010008600846006800F06D
:104E50000100019000BF00BF00BF00200190084684
:104E6000006840F0080008600846006800F008008C
:104E7000019000BF00BF00BF0020019008460068FD
:104E800040F0040008600846006800F0040001904B
:104E900000BF00BF00BF002001900846006840F03E
:104EA000800008600846006800F08000019000BFA4
:104EB00000BF00BF002001900846006840F02000BD
:104EC00008600846006800F02000019000BF00BFA5
:104ED000012240213248FDF7B5F801221021314866
:104EE000FDF7B0F8012211462F48FDF7ABF840203E
:104EF0000290012003900490059002A92848FCF735
:104F0000A7FF092002904FF40410039001200490A1
:104F100002A92348FCF79CFF102002900120039077
:104F200004900220059002A91E48FCF791FF302052
:104F300002904FF4041003900120049002A91B4832
:104F4000FCF786FF01200290039004900220059058
:104F500002A91548FCF77CFF002206210846FDF750
:104F60008BFA0620FDF774FA002205210920FDF7CF
:104F700083FA0920FDF76CFA002205210A20FDF7CB
:104F80007BFA0A20FDF764FA002205211720FDF7BD
:104F900073FA1720FDF75CFA07B000BD3038024005
:104FA00000180240000002400004024000080240D5
:104FB00010B50B480B4908600B48486000210948B0
:104FC0008160C1604FF480410161002141618161D4
:104FD000C1610162FDF742F808B1FBF7DCFD10BDCD
:104FE000005C004064010020801A060010B50F48E4
:104FF0000F4908604FF48270486000210C488160BE
:10500000C1600221016101214161490281613821B0
:10501000C16100210162416281620A21C162FDF722
:10502000E1FE08B1FBF7B7FD10BD00000030014004
:10503000B801002000B587B01C216846FBF738FA9C
:105040001548164908600020486000211348816017
:1050500041F28731C160002101618161FEF7FAFAF6
:1050600008B1FBF798FD0D48FEF78DFE08B1FBF780
:1050700092FD602000900020019002900490002298
:1050800069460648FEF7FDFD08B1FBF784FD0348BD
:10509000FEF752FD07B000BD00440140A803002008
:1050A00000B58DB0002009900A900B900C900790ED
:1050B00008901C216846FBF7FBF92048204908604E
:1050C0000020486000211E48816042F2CF01C1608B
:1050D000002101618161FEF7BDFA08B1FBF75BFDBC
:1050E0004FF48050099009A91548FEF7E7FB08B175
:1050F000FBF751FD1248FEF746FE08B1FBF74BFDEA
:1051000000200790089007A90D48FEF749FA08B15A
:10511000FBF741FD60200090002001900290049078
:10512000082269460648FEF7ACFD08B1FBF733FDDF
:105130000348FEF701FD0DB000BD00000004004073
:10514000D002002000B58DB0002009900A900B908D
:105150000C90079008901C216846FBF7A9F920489D
:1051600020490860A720486000211E4881604FF652
:10517000FF71C160002101618161FEF76BFA08B126
:10518000FBF709FD4FF48050099009A91548FEF777
:1051900095FB08B1FBF7FFFC1248FEF7F4FD08B1E0
:1051A000FBF7F9FC00200790089007A90D48FEF7CF
:1051B000F7F908B1FBF7EFFC6020009000200190A8
:1051C00002900490082269460648FEF75AFD08B18D
:1051D000FBF7E1FC0348FEF7AFFC0DB000BD00009B
:1051E000000800401803002000B58DB00020099091
:1051F0000A900B900C90079008901C216846FBF7D2
:1052000057F92948294908600020486000212748AB
:1052100081604FF6FF71C160002101618161FEF77D
:1052200019FA08B1FBF7B7FC4FF48050099009A9AF
:105230001E48FEF743FB08B1FBF7ADFC1B48FEF729
:10524000A2FD08B1FBF7A7FC00200790089007A972
:105250001648FEF7A5F908B1FBF79DFC6020009009
:1052600042F21070019000200290049000226946E2
:105270000E48FEF706FD08B1FBF78DFC04226946D7
:105280000A48FEF7FEFC08B1FBF785FC08226946D8
:105290000648FEF7F6FC08B1FBF77DFC0348FEF775
:1052A0004BFC0DB000BD0000000C0040600300206E
:1052B00010B50B480B4908604FF4E13048600021FD
:1052C00008488160C16001610C2141610021816158
:1052D000C161FEF7F9FF08B1FBF75DFC10BD0000EE
:1052E00000100140F003002010B50C480C49086084
:1052F0000C4848604FF48051094881600021C1602A
:105300004FF4806101610C21416100218161C16123
:10531000FEF7DAFF08B1FBF73EFC10BD0048004085
:1053200038040020A086010010B50B480B49086026
:105330004FF4E1304860002108488160C16001619C
:105340000C21416100218161C161FEF7BDFF08B1FF
:10535000FBF721FC10BD0000001401408004002078
:1053600000B52DED068B0246B0EE403AF0EE603A05
:10537000B0EE414AF0EE615AF0EE424AB0EE625AA7
:10538000F5EEC05AF1EE10FA09D1F5EEC04AF1EE91
:1053900010FA04D1B5EEC05AF1EE10FA7ED065EEE7
:1053A000A50A44EEA40A45EE050AB0EE600A02F032
:1053B000E1FAF0EE402A25EEA20AF0EE405A24EE81
:1053C000A20AF0EE404A25EE220AB0EE405A92EDD3
:1053D000010AD2ED030A20EE200AD2ED000A92ED76
:1053E000021AF0EE408A40EEC18A92ED000AD2ED38
:1053F000010A20EE200AD2ED020A92ED031AF0EE25
:10540000409A40EE819AD2ED000A92ED001AB6EE73
:10541000000A10EE810AD2ED030A92ED031AB0EEF3
:10542000409A00EE819A24EE890AF0EE407A45EE29
:10543000697A25EE280AB0EE40AA05EEC9AA25EE43
:10544000A90AB0EE408A04EEE88A7C4890ED000A92
:10545000B5EEC00AF1EE10FA40DD90ED000A60EE04
:10546000270A774890ED000A9FED761A00EE810A30
:1054700080ED000A714890ED000A60EE0A0A724859
:1054800090ED000A9FED6F1A00EE810A80ED000A90
:105490006A4890ED000A60EE080A00E046E06B48BA
:1054A00090ED000A9FED671A00EE810A80ED000A78
:1054B000634890ED000A33EE000AB0EE403A6248CD
:1054C00090ED000A33EE800AF0EE403A5F4890ED2E
:1054D000000A34EE000AB0EE404A0EE09FED5C0A8E
:1054E000574880ED000A9FED5A0A574880ED000AA0
:1054F0009FED570A554880ED000A5648D0ED000A46
:10550000B0EE430A00EEA70AB0EE403AD0ED000A32
:10551000B0EE630A00EE8A0AF0EE403AD0ED000ADF
:10552000B0EE440A00EE880AB0EE404A9FED4A0A07
:1055300023EE000AB0EE403A9FED470A23EE800AC0
:10554000F0EE403A9FED440A24EE000AB0EE404AE5
:1055500092ED006AD2ED016A92ED027AB1EE660A2E
:1055600020EE030A07EE630AD2ED030A00EEC40A36
:10557000D2ED000A30EE200A82ED000A26EE030A80
:1055800007EE040AD2ED030A00EEE30AD2ED010AA7
:1055900030EE200A82ED010A26EE230A06EEC40A46
:1055A000D2ED030A00EE830AD2ED020A30EE200AA1
:1055B00082ED020A26EE040A06EEA30A07EE430A6B
:1055C000D2ED030A30EE200A82ED030AD2ED000A82
:1055D00060EEA00A92ED011AD2ED011A41EE210A05
:1055E00092ED021AD2ED021A41EE210A92ED031A4F
:1055F000D2ED031A41EE210AB0EE600A02F0BAF9C8
:10560000F0EE402A92ED000A20EE220A82ED000A16
:1056100092ED010A20EE220A82ED010A92ED020AC1
:1056200020EE220A82ED020A92ED030A20EE220AFF
:1056300082ED030ABDEC068B00BD0000F0000020E7
:10564000F40000206F12833AF8000020FC000020D4
:1056500000000000EC0000206F12033A00BFFEE7DC
:1056600000B52DED048B81B05B48D0ED020AB0EEA1
:10567000600A01F045FFB0EE408A5748D0ED020ABB
:10568000B0EE600A01F0EEFFF0EE408A5348D0ED34
:10569000030AB0EE600AFBF74DFA20EE089A4F4875
:1056A000D0ED020AB0EE600AFBF744FA00EE289A49
:1056B000B7EE000A29EE000A494880ED000A474883
:1056C000D0ED030AB0EE600AFBF734FA20EE289A18
:1056D0004248D0ED020AB0EE600AFBF72BFA00EE6A
:1056E000489AB7EE000A29EE000A3E4880ED000A0B
:1056F0003A48007D012805D1B7EE000A3A4880ED0E
:10570000000A48E0344890ED020AF1EE040A20EE67
:10571000200AD0ED060A9FED351A00EE810A3248C4
:1057200080ED000A2C4890ED060AB0EEC00ADFEDCD
:10573000300AB4EEE00AF1EE10FA2CD290ED020A33
:10574000B0EEC00ADFED2B0AB4EEE00AF1EE10FA7B
:1057500005D29FED290A244880ED000A1BE022486B
:1057600090ED000AB0EEC00ADFED240AB4EEE00AC4
:10577000F1EE10FA0FD29FED210A8DED000A1649C5
:1057800088680246009961F31E0200929DED000AAE
:10579000154880ED000A144890ED000AF0EE080A62
:1057A000B4EEE00AF1EE10FA03DDB0EE080A80ED87
:1057B000000A0D4890ED000AF8EE080AB4EEE00A7F
:1057C000F1EE10FA03D2B8EE080A80ED000A01B03B
:1057D000BDEC048B00BD0000C44F0020A45100208C
:1057E000B0000020B4000020B8000020CDCC4C3F19
:1057F000CDCC4C3DCDCCCC3D000000009A99993EDB
:1058000070B52DED048B0446E08F142803DAE08F89
:10581000401CE08720E094ED0A0AB0EE408A94ED47
:105820000B0AF0EE408A94ED0C0AB0EE409A94ED2B
:10583000050AF0EE409A2588266A44212046FAF7A8
:1058400037FE84ED0A8AC4ED0B8A84ED0C9AC4ED10
:10585000059A2580266200BFBDEC048B70BD10B593
:105860002DED048B0446B0EE409AB0EE608AF0EE67
:10587000418A14B9BDEC048B10BD44212046FAF7CF
:1058800017FE84ED0A9A84ED0B8AC4ED0C8A00BFE2
:10589000F0E70000F0B500B101B9F0BD90F840208C
:1058A0000AB9012200E0002215460022C287012227
:1058B00080F84020028814B24A780E7842EA062224
:1058C0000280CA788E7842EA062212B242804A7971
:1058D0000E7942EA062212B282808A7982710288A7
:1058E000121B13B213F5805F03DA8269521C8261C6
:1058F00005E0B3F5805F02DD8269521E8261068891
:10590000826906EB4232C2610DB1C269026290ED5A
:10591000070AF8EEC00A9FED311A80EE810AF0EE18
:10592000000A20EE200ADFED2E0A20EE200AD0ED3C
:105930000A0A80EE201A80ED021A42887AB1B0F984
:10594000022000EE102AB8EEC00ADFED260A20EE93
:10595000200AD0ED0A0A80EE201A80ED031A828C0C
:10596000521C92B28284322A2DDB42883ABBD0E9A3
:105970000767F21B012A07DCB2F1FF3F04DB9FED52
:105980001A0A80ED030A19E000EE102AB8EEC00AE8
:10599000F0EE000A20EE200ADFED110A60EE200A88
:1059A0009FED0E1A80EE810A90ED0A1AC0EE010AF0
:1059B000B3EE040A20EE800A80ED030A00BFC2693C
:1059C000026200228284B0F9042000EE102AB8EEB0
:1059D000C00A80ED040A00BF5FE700000000004637
:1059E000DB0F49405077D63D0000000000BFFEE7C6
:1059F00010B52DED028B0446F0EE408AB0EE608AC1
:105A000024B99FED0D0ABDEC028B10BD84ED038A15
:105A100094F8500038B9F0EE480AB0EE680A204613
:105A200000F092F8EFE7F0EE480AB0EE680A204680
:105A300000F004F8E7E700000000000010B52DEDCD
:105A40000E8B0446F0EE409AB0EE60AA3AEE690A78
:105A5000B0EE408A94ED110A10EE101A084604F0D8
:105A6000D3FC41EC1B0B18EE100A04F0CDFC41EC0A
:105A70001D0BB0EE4D0AF0EE6D0A01F0E9FDB0EE3F
:105A800040CAF0EE60CA53EC1B2B51EC1C0B04F027
:105A90008BFA03D29FED2A0AB0EE408A94ED000AF9
:105AA000D4ED050A78EE600A60EE20AA94ED010AB2
:105AB00020EE080AD4ED0B0A20EE20EAD4ED050A08
:105AC000B0EE001AB0EE480A01EE600AD4ED060A04
:105AD00030EE200AD4ED020A20EE200AD4ED0C0AA2
