:020000040800F2
:1000000098570020E902000881420008993A000848
:100010009D4100081F060008E54D00080000000093
:10002000000000000000000000000000290200089D
:10003000250A00080000000085020008A942000807
:100040000303000803030008030300080303000878
:100050000303000803030008270A0008030300083D
:1000600003030008310A00083B0A000803030008E4
:1000700085070008030300080303000803030008C2
:100080000303000803030008030300080303000838
:10009000250600080303000803030008450A0008BA
:1000A0000303000803030008030300080303000818
:1000B0000303000803030008030300080303000808
:1000C0000303000803030008030300088542000837
:1000D00003030008B54D000803030008C54D0008E0
:1000E00003030008030300080303000803030008D8
:1000F00003030008030300080303000803030008C8
:1001000003030008030300080303000803030008B7
:1001100003030008030300088943000803030008E1
:1001200095070008A5070008B5070008C5070008DF
:100130000303000803030008030300080303000887
:100140003506000803030008030300080303000842
:1001500003030008D5070008E5070008D54D00088F
:100160000303000803030008030300080303000857
:100170000303000803030008030300080000000055
:10018000030300080303000800F002F800F03CF845
:100190000AA090E8000C82448344AAF10107DA45E2
:1001A00001D100F031F8AFF2090EBAE80F0013F0F8
:1001B000010F18BFFB1A43F001031847046F00003A
:1001C000246F0000103A24BF78C878C1FAD85207CB
:1001D00024BF30C830C144BF04680C6070470000C1
:1001E0000023002400250026103A28BF78C1FBD840
:1001F000520728BF30C148BF0B6070471FB506F0DB
:1002000003FF1FBD10B510BD00F0D0F91146FFF778
:10021000F5FF04F08AFE00F0EEF903B4FFF7F2FFF9
:1002200003BC00F0F5F900002C4B19680868B0E831
:10023000F04F80F30988BFF36F8F4FF0000080F319
:10024000118870470000000008480068006880F3CB
:1002500008884FF0000080F3148862B661B6BFF3DF
:100260004F8FBFF36F8F00DF00BF00BF08ED00E0CE
:10027000DFF80C00016841F470010160704700BFB5
:1002800088ED00E0EFF30980BFF36F8F134B1A681E
:100290001EF0100F08BF20ED108A20E9F04F10600B
:1002A00009B44FF0500080F31188BFF34F8FBFF3B4
:1002B0006F8F05F09BFF4FF0000080F3118809BCA1
:1002C00019680868B0E8F04F1EF0100F08BFB0ECD6
:1002D000108A80F30988BFF36F8F704720000020D9
:1002E000EFF3058070470000094880470948004740
:1002F000FEE7FEE7FEE7FEE7FEE7FEE7FEE7FEE7D6
:10030000FEE7FEE704480549054A064B7047000032
:100310007543000889010008985100209857002073
:10032000985300209853002053EA020C00F0698093
:100330002DE9F04B4FF00006002B1FBFB3FA83F5F9
:1003400003FA05F424FA05F65E4012BF1643B2FA2A
:1003500082F502FA05F4C5F120051EBF22FA05FC5C
:1003600044EA0C04203556EA044C4FEA144418BF02
:10037000641C4FF000084FF00009904271EB030C31
:1003800039D3002919BFB1FA81F701FA07F6B0FA9B
:1003900080F700FA07F6C7F120071EBF20FA07FC16
:1003A00046EA0C062037B6FBF4FCA7EB0507103F26
:1003B00007F01F0BCBF120060CFA0BFB2CFA06F60C
:1003C00044BFB3460026202FA4BF5E464FF0000B6B
:1003D0005BEA060C08BF4FF0010B19EB0B09ABFBF6
:1003E000027C48EB0608C01B06FB02CC0BFB03CCCF
:1003F00071EB0C01C1E70B46024641464846BDE899
:10040000F08B13B54FF000004FF00001AFF3008008
:10041000BDE81C407047032A40F2308010F0030C06
:1004200000F0158011F8013BBCF1020F624498BF47
:1004300011F801CB00F8013B38BF11F8013BA2F1E4
:10044000040298BF00F801CB38BF00F8013B11F05F
:10045000030300F05780083AC0F0088051F8043BCD
:10046000083A51F804CBA0E80810F5E7121D5CBF6C
:1004700051F8043B40F8043BAFF30080D20724BF9F
:1004800011F8013B11F801CB48BF11F8012B24BF33
:1004900000F8013B00F801CB48BF00F8012B704782
:1004A00002F0FF0343EA032242EA024200F05EB890
:1004B0004FF0000200B5134694469646203922BFFD
:1004C000A0E80C50A0E80C50B1F12001BFF4F7AF48
:1004D000090728BFA0E80C5048BF0CC05DF804EB2A
:1004E000890028BF40F8042B08BF704748BF20F898
:1004F000022B11F0804F18BF00F8012B7047704796
:100500007047704710B5203AC0F00B80B1E8185022
:10051000203AA0E81850B1E81850A0E81850BFF4ED
:10052000F5AF5FEA027C24BFB1E81850A0E818508C
:1005300044BF18C918C0BDE810405FEA827C24BFE0
:1005400051F8043B40F8043B08BF7047D20728BF6E
:1005500031F8023B48BF11F8012B28BF20F8023BBD
:1005600048BF00F8012B70474FF000020429C0F08B
:10057000128010F0030C3FF49DAFCCF1040CBCF1E1
:10058000020F18BF00F8012BA8BF20F8022BA1EB27
:100590000C01FFF78FBF5FEAC17C24BF00F8012B7D
:1005A00000F8012B48BF00F8012B7047754600F09A
:1005B0002BF8AE4605006946534620F007008546F5
:1005C00018B020B5FFF79EFEBDE820404FF00006B2
:1005D0004FF000074FF000084FF0000B21F007012B
:1005E000AC46ACE8C009ACE8C009ACE8C009ACE86E
:1005F000C0098D46704710B50446AFF30080204611
:10060000BDE81040FFF709BE004870473451002094
:1006100001491820ABBEFEE726000200704700BF6C
:10062000FEE7000010B5024800F033FC10BD0000EA
:10063000B000002010B5024800F02BFC10BD0000F7
:10064000D8000020F0B58BB007460C4615461E4674
:1006500004F0010008B10BB0F0BDC4F3400000B1DC
:10066000F9E76805000C0190002002907005000C6D
:10067000039000200490E0080690002007900120DD
:10068000089009900E200A90C4F38000059001A9FB
:10069000384600F0A3FA00BFDDE710B50446204657
:1006A00000F0A0FE2068406940F002002168486127
:1006B0002068406940F010002168486110BDF0B525
:1006C00087B004460D4617461E4614B9012007B0F0
:1006D000F0BD0195002002900390049005966B46B2
:1006E0003A4601A9204600F0D3F9F0E770B5214859
:1006F000807D20B31F4890ED030ADFED1F0A20EE36
:10070000200ABDEEC00A10EE100A04B2194890ED9E
:10071000020ADFED190A20EE200ABDEEC00A10EE33
:10072000100A05B2134890ED000ADFED130A20EE1F
:10073000200ABDEEC00A10EE100A06B205E0002441
:100740002646254602200D498871200A0B4908706B
:100750004C70280A8870CD70300A08714E710548B7
:10076000007D887107230A464FF440710448FFF763
:10077000A6FF70BDE44F002000803B45A400002090
:10078000B000002010B5024800F0CCFE10BD000003
:100790002405002010B5024800F0C4FE10BD000082
:1007A000AC01002010B5024800F0BCFE10BD0000F6
:1007B000E405002010B5024800F0B4FE10BD0000B2
:1007C0006404002010B5024800F0ACFE10BD00002B
:1007D0000C02002010B5024800F0A4FE10BD00007D
:1007E0008405002010B5024800F09CFE10BD0000FA
:1007F000C40400200146087810381823B0FBF3F237
:100800000848805CC865032A05D908686FF30900A9
:10081000001D886503E008686FF309008865886D2E
:100820007047000080700008014600208A6A8B69CA
:10083000CBB932B1012A0DD0022A03D0032A10D13C
:100840000EE000BFCB6A03F08073B3F1807F00D16C
:10085000012007E0CB6AB3F1C07F00D1012001E0A5
:1008600000E000BF34E08B69B3F5005F1AD132B10C
:10087000012A07D0022A03D0032A11D10AE000BFBF
:1008800001200EE0CB6A03F08073B3F1807F00D1CA
:10089000012006E0CB6AB3F1C07F00D1012000E067
:1008A00000BF15E032B1012A05D0022A04D0032A84
:1008B0000CD103E000BF00BF012008E0CB6A03F0C9
:1008C0008073B3F1807F00D1012000E000BF00BF42
:1008D000704730B50468246824F4802405682C60CF
:1008E000046863608468402C04D10468A2600468D2
:1008F000E16003E00468A1600468E26030BD0000CC
:1009000006480088322805DA04480088401C03495C
:10091000088002E00020024988757047AE00002080
:10092000E44F002000B101B970470022364B1A8015
:1009300001228A750278437842EA0322C2F30A024E
:10094000A2F5806200EE102AF8EEC00A9FED2F1A81
:10095000C0EE811AC1ED001A4278D210837842EAC3
:100960004312C2F30A02A2F5806200EE102AF8EEEA
:10097000C00A9FED261AC0EE811AC1ED011A8278D5
:100980009211C37842EA8302037942EA8322C2F3D6
:100990000A02A2F5806200EE102AF8EEC00A9FED6E
:1009A0001B1AC0EE811AC1ED021A02795210437966
:1009B00042EAC312C2F30A02A2F5806200EE102AD4
:1009C000F8EEC00A9FED111AC0EE811AC1ED031AAC
:1009D0004279C2F301120A75427992094A75027C82
:1009E000437C42EA0322C2F30A02A2F5806200EECF
:1009F000102AF8EEC00A9FED051AC0EE811AC1ED6B
:100A0000041A00BF90E70000AE000020000025445B
:100A100010B5044624220249204602F038FC10BDDD
:100A2000C04F0020704710B5012000F05BFF10BDE3
:100A300010B5082000F056FF10BD10B5102000F0D2
:100A400051FF10BD10B5202000F04CFF10BD72B654
:100A500000BFFEE713B504462068A0F2FF1020B9DE
:100A600001A9034803F09CFB00E000BF00BF1CBDD0
:100A7000604F002010B50548FFF70FFE40F2FF73EE
:100A80009A1000210148FFF7DDFD10BDB0000020E5
:100A9000F0B504460D461E4694F820702068836821
:100AA000A86800B900E000BF012F01D0022F7DD15E
:100AB00003F0806030B903F0006018B903F0805093
:100AC00000287ED0C3F30161012088403060A8680F
:100AD00060B9B5F800C0E86840EA4C5C206800F5F1
:100AE000C07000EB0110C0F800C00FE0D5E901C0F4
:100AF00040EACC00D5F80CC040EA0C00D4F800C0A5
:100B00000CF5C07C0CEB011CCCF80000D5F810C033
:100B1000206800F5C07000EB0110C0F804C0287D0B
:100B200001280ED1206800F5C07000EB011040686C
:100B300040F4807C206800F5C07000EB0110C0F824
:100B400004C0D079000692F806C040EA0C4092F842
:100B500005C040EA0C2092F804C040EA0C00D4F82A
:100B600000C00CF5C07C0CEB011CCCF80C00D0785C
:100B7000000692F802C040EA0C4092F801C040EA38
:100B80000C2092F800C040EA0C00D4F800C00CF52C
:100B9000C07C0CEB011CCCF80800206800F5C0708C
:100BA00000EB0110006840F0010C01E00FE008E0EC
:100BB000206800F5C07000EB0110C0F800C00020F4
:100BC000F0BD606A40F4001060620120F8E7606ADE
:100BD00040F4802060620120F2E70000F0B5044696
:100BE0000A4694F82050012D01D0022D7ED14249B1
:100BF00001F50071086840F001000860086820F401
:100C00007C5008600868566A40EA06200860107D3B
:100C100000F01F06012000FA06F3C8699843C86176
:100C2000A1F50071D069C8B9D1F80C029843C1F898
:100C30000C02908880B2968940EA064601F5107051
:100C4000576940F83760108880B2168940EA064636
:100C500001F51070576900EBC7004660D0690128A4
:100C600019D1D1F80C021843C1F80C02908880B257
:100C7000168840EA064601F51070576940F837605B
:100C8000908980B2168940EA064601F510705769CE
:100C900000EBC7004660906928B9D1F80402984378
:100CA000C1F8040204E0D1F804021843C1F80402B8
:100CB000106928B9D1F814029843C1F8140204E06D
:100CC000D1F814021843C1F81402106A012804D1A3
:100CD000D1F81C021843C1F81C02D1F8000220F020
:100CE0000100C1F800020020F0BDFFE7606A40F497
:100CF000802060620120F7E700640040704770B513
:100D0000044694F82050012D01D0022D7DD151B917
:100D10002068C06800F0030080B9606A40F40010E9
:100D20006062012070BD2068006900F0030028B9EE
:100D3000606A40F4001060620120F3E7206800F56B
:100D4000D87000EB0110006800F00400906090681B
:100D500040B9206800F5D87000EB01100068400D24
:100D6000106007E0206800F5D87000EB0110006803
:100D7000C0085060206800F5D87000EB01100068D2
:100D800000F00200D060206800F5D87000EB011080
:100D9000406800F00F00082802D30820106108E026
:100DA000206800F5D87000EB0110406800F00F00DB
:100DB0001061206800F5D87000EB0110406800F465
:100DC0007F40000A9061206800F5D87000EB0110A8
:100DD0004068000C5061206800F5D87000EB0110ED
:100DE00080681870206800F5D87000EB01108068EA
:100DF00000F47F40000A5870206800F5D87000EBBE
:100E00000110806800F47F0000E03CE0000C987066
:100E1000206800F5D87000EB01108068000ED870D3
:100E2000206800F5D87000EB0110C06818712068C8
:100E300000F5D87000EB0110C06800F47F40000A94
:100E40005871206800F5D87000EB0110C06800F4FC
:100E50007F00000C9871206800F5D87000EB01103D
:100E6000C068000ED87131B92068C06840F0200019
:100E70002668F06005E02068006940F020002668E0
:100E8000306100204EE7606A40F4802060620120FB
:100E900048E72DE9F05F0446002520684669206890
:100EA000D0F80490206887682068D0F80CA02068EB
:100EB000D0F810B02068D0F8188006F001000028A3
:100EC00055D007F00100C0B101202168886007F00B
:100ED000020018B1204600F0B5FA0EE007F0040059
:100EE00010B145F4006508E007F0080010B145F4C2
:100EF000805502E0204600F0A4FA07F48070C8B1E3
:100F00004FF480702168886007F4007018B12046A3
:100F100000F09AFA0EE007F4806010B145F4005535
:100F200008E007F4006010B145F4804502E0204677
:100F300000F089FA07F48030C8B14FF4803021689E
:100F4000886007F4003018B1204600F07FFA0EE008
:100F500007F4802010B145F4004508E007F40020B4
:100F600010B145F4803502E0204600F06EFA06F03C
:100F7000080038B10AF0100020B145F400751020C7
:100F80002168C86006F0040040B10AF0080028B1EA
:100F900008202168C860204600F00CFA06F0020024
:100FA00038B12068C06800F0030010B1204600F09E
:100FB00002FA06F0400038B10BF0100020B145F401
:100FC000806510202168086106F0200040B10BF018
:100FD000080028B1082021680861204600F0FFF9C8
:100FE00006F0100038B12068006900F0030010B16D
:100FF000204600F0F5F906F4003040B109F0100089
:1010000028B1102021684860204600F0EAF906F473
:10101000803040B109F0080028B1082021684860FC
:10102000204600F014FA06F4004088B309F00400EA
:1010300078B306F4807020B108F0010008B145F0E3
:10104000010506F4007020B108F0020008B145F077
:10105000020506F4806020B108F0040008B145F0F4
:10106000040506F40060A0B108F0700088B108F033
:101070007000402817D006DC10280BD020280CD098
:10108000302819D10CE0502810D0602814D110E07D
:101090001DE019E045F008050FE045F010050CE0F3
:1010A00045F0200509E045F0400506E045F08005E3
:1010B00003E045F4807500E000BF00BF2068806950
:1010C00020F07000216888610420216848602DB1FB
:1010D000606A284360622046FFF710FEBDE8F09F7B
:1010E00070B504460CB9012070BD94F8200010B909
:1010F000204600F0AFF82068006840F00100216849
:10110000086000F0FDFC05460DE000F0F9FC401B16
:101110000A2808D9606A40F400306062052084F82B
:1011200020000120E0E72068406800F0010000286E
:10113000EBD02068006820F002002168086000F011
:10114000DFFC05460DE000F0DBFC401B0A2808D957
:10115000606A40F400306062052084F820000120BD
:10116000C2E72068406800F002000028EBD1207E32
:10117000012806D12068006840F0800021680860DE
:1011800005E02068006820F0800021680860607E2B
:10119000012806D12068006840F0400021680860FE
:1011A00005E02068006820F0400021680860A07E0B
:1011B000012806D12068006840F0200021680860FE
:1011C00005E02068006820F0200021680860E07ECB
:1011D000012806D12068006820F01000216808600E
:1011E00005E02068006840F0100021680860207F5A
:1011F000012806D12068006840F0080021680860D6
:1012000005E02068006820F0080021680860607F21
:10121000012806D12068006840F0040021680860B9
:1012200005E02068006820F0040021680860D4E927
:101230000201084321690843616908436168491E46
:1012400008432168C86100206062012084F8200002
:10125000002049E710B586B00446142101A8FFF725
:1012600027F94E492068884241D14D480068401C0A
:101270004B4908600846006801280FD100BF0020D4
:1012800000904848006840F00070464908600846F1
:10129000006800F00070009000BF00BF00BF002099
:1012A000009040481038006840F008003D4910396F
:1012B00008600846006800F00800009000BF00BF0A
:1012C000032001900220029000200390032004904C
:1012D0000920059001A9344800F012FB00220521E5
:1012E000142000F021FE142000F00AFE54E02F49E3
:1012F0002068884250D100BF002000902948006833
:1013000040F08060274908600846006800F080606F
:10131000009000BF00BF22480068401C20490860C0
:101320000846006801280FD100BF002000901D482A
:10133000006840F000701B4908600846006800F033
:101340000070009000BF00BF00BF00200090154853
:101350001038006840F00200124910390860084651
:10136000006800F00200009000BF00BF6020019004
:101370000220029000200390032004900920059091
:1013800001A90B4800F0BCFA00220521402000F022
:10139000CBFD402000F0B4FD06B010BD006400405D
:1013A0000C00002040380240000C02400068004061
:1013B00000040240704710B58AB0044601AB03AA8E
:1013C00000212046FFF79BFC40F20521039888424C
:1013D00003D101A903A8FFF73DFB0AB010BD704778
:1013E0007047704770B5044694F82000012822D158
:1013F000022084F820002068006820F001002168A5
:10140000086000F07DFB05460DE000F079FB401B15
:101410000A2808D9606A40F400306062052084F828
:101420002000012070BD2068406800F00100002805
:10143000EBD16062F6E7606A40F400206062012050
:10144000F0E77047704770477047704770477047C4
:1014500070B50446A56D00F053FB064694F83500C0
:10146000022808D08020606500BF002084F8340086
:1014700000BF012070BD2068006820F016002168C0
:1014800008602068406920F0800021684861206C75
:1014900008B9A06C28B12068006820F00800216815
:1014A00008602068006820F001002168086010E0F2
:1014B00000F026FB801B05280BD920206065032047
:1014C00084F8350000BF002084F8340000BF0320FA
:1014D000D0E72068006800F001000028E8D194F807
:1014E0005C103F208840A860012084F8350000BFD0
:1014F000002084F8340000BF00BFBBE7014691F82C
:101500003500022803D0802048650120704705205F
:1015100081F835000868006820F001000A68106052
:101520000020F3E7F8B50446002000908C480068DE
:101530004FF41651B0FBF1F7A56D2E6894F85C10CE
:1015400008208840304098B12068006800F004000E
:1015500070B12068006820F004002168086094F8E9
:101560005C1008208840A860606D40F00100606554
:1015700094F85C1001208840304068B120684069D0
:1015800000F0800040B194F85C1001208840A86011
:10159000606D40F00200606594F85C1004208840A3
:1015A000304068B12068006800F0020040B194F853
:1015B0005C1004208840A860606D40F00400606505
:1015C00094F85C1010208840304078B320680068A0
:1015D00000F0080050B394F85C1010208840A86018
:1015E0002068006800F4802080B12068006800F462
:1015F000002028B9206CC8B12046216C884715E02E
:10160000A06C98B12046A16C88470FE02068006864
:1016100000F4807028B92068006820F00800216874
:101620000860206C10B12046216C884794F85C104B
:10163000202088403040002865D02068006800F0F5
:10164000100000285FD094F85C1020208840A8602B
:1016500094F83500052828D12068006820F016008D
:10166000216808602068406920F080002168486196
:10167000206C08B9A06C28B12068006820F0080030
:101680002168086094F85C103F208840A860012021
:1016900084F8350000BF002084F8340000BF206DBE
:1016A00010B12046216D8847F8BD2068006800F41D
:1016B000802080B12068006800F4002028B9606CA8
:1016C00010B12046616C88471DE0E06BD8B1204620
:1016D000E16B884717E02068006800F4807068B903
:1016E0002068006820F0100021680860012084F85C
:1016F000350000BF002084F8340000BFE06B10B15B
:101700002046E16B8847606D38B3606D00F00100E2
:10171000F0B1052084F835002068006820F0010051
:101720002168086000BF0098401C0090B84200D9B2
:1017300005E02068006800F001000028F3D100BF38
:10174000012084F8350000BF002084F8340000BF79
:10175000E06C10B12046E16C884700BFA4E70000B0
:101760001C0000202DE9F0410446002500F0C8F9D6
:10177000074614B90120BDE8F081606A00B100BFDE
:10178000022084F8350000BF002084F8340000BF38
:101790002068006820F00100216808600AE000F07D
:1017A000AFF9C01B052805D920206065032084F807
:1017B0003500E0E72068006800F001000028EED165
:1017C0002068056821480540D4E901010843E16823
:1017D00008432169084361690843A1690843E16935
:1017E0000843216A08430543606A042803D1D4E909
:1017F0000B0108430543206805602068456925F012
:101800000705606A0543606A04280DD1A06A054394
:10181000E06A48B12046FFF707F828B1402060652C
:10182000012084F83500A6E7206845612046FEF7D0
:10183000E1FF064694F85C103F208840B06000202D
:101840006065012084F83500002094E73F8010F0A7
:101850002DE9F04704460D4616461F464FF0000896
:10186000D4F8589000BF94F83400012802D1022027
:10187000BDE8F087012084F8340000BF94F83500FB
:10188000012825D1022084F83500002060653B4600
:10189000324629462046FFF71CF894F85C103F209A
:1018A0008840C9F808002068006840F016002168E8
:1018B0000860206C28B12068006840F008002168AA
:1018C00008602068006840F001002168086006E0B8
:1018D00000BF002084F8340000BF4FF002084046EB
:1018E000C6E7704710B5044604480068204020B1A0
:1018F000024804602046FFF7F4FF10BD143C01408D
:10190000F8B502460B460025002400200021D6E051
:10191000012606FA01F51E6806EA0504AC4274D1F8
:101920001E7906F00306012E04D01E7906F0030688
:10193000022E13D190684F000326BE40B0434F00E3
:10194000DE68BE4030439060506801268E40B04350
:101950001E79C6F300168E40304350601E7906F0A3
:101960000306032E09D0D0684F000326BE40B043C3
:101970004F009E68BE403043D0601E7906F00306DB
:10198000022E13D1CF0802F1200656F827004E0789
:10199000F70E0F26BE40B0434F07FF0E1E69BE4034
:1019A0003043CF0802F1200646F8270010684F00A8
:1019B0000326BE40B0431E7906F003064F00BE402A
:1019C000304310605E6806F44036002E76D000BFCB
:1019D000002600963C4E366846F480463A4F3E60FC
:1019E0003E46366806F48046009600BF00BF374E7C
:1019F0008F0856F827008E07370F0F26BE40B043DA
:101A0000334EB24202D1002624E057E0314EB242BA
:101A100001D101261EE0304EB24201D1022619E06A
:101A20002E4EB24201D1032614E02D4EB24201D116
:101A300004260FE02B4EB24201D105260AE02A4EC1
:101A4000B24201D1062605E0284EB24201D1072656
:101A500000E008268F073F0FBE4030431B4E8F0823
:101A600046F82700224E3068A0435E6806F48016D0
:101A700006B120431E4E3060361D3068A0435E68BC
:101A800006F4001606B12043194E361D3060184E7C
:101A9000361F3068A0435E6806F4003606B1204366
:101AA000134E361F3060361F3068A0435E6806F460
:101AB000803606B120430E4E083E3060491C102986
:101AC000FFF426AFF8BD000044380240083801405A
:101AD000000002400004024000080240000C0240E6
:101AE000001002400014024000180240001C024096
:101AF000083C01400AB1816101E00B048361704739
:101B000001480068704700001000002070B50446CE
:101B10000CB9012070BD94F83D0028B9002084F86C
:101B20003C00204600F0DAF8242084F83D002068CC
:101B3000006820F00100216808602068006840F417
:101B40000040216808602068006820F40040216897
:101B5000086000F025FB05465C496068884206D8AD
:101B60005B48854201D2012007E0002005E059488A
:101B7000854201D2012000E00020012800D1C9E700
:101B80005548B5FBF0F62068406820F03F00304330
:101B9000216848604D496068884201D8701C07E0A0
:101BA0004FF4967070434FF47A71B0FBF1F0401C23
:101BB0002168096A21F03F0108432168086243490E
:101BC0006068884214D8681E61684900B0FBF1F073
:101BD000401CC0F30B00042801D204203DE0681E25
:101BE00061684900B0FBF1F0401CC0F30B0034E029
:101BF000A06838B9681E616801EB4101B0FBF1F0E3
:101C0000401C0AE0681E616801EBC10202EB011191
:101C1000B0FBF1F0401C40F48040C0F30B0008B969
:101C200001201AE0A06848B9681E616801EB410113
:101C3000B0FBF1F0401CC0F30B000CE0681E6168C3
:101C400001EBC10202EB0111B0FBF1F0401CC0F34B
:101C50000B0040F4804040F400402168C9694CF614
:101C6000FF72914308432168C861D4E90701084322
:101C70002168096821F0C001084321680860D4E99F
:101C8000031008432168896848F2FF3291430843F2
:101C900021688860D4E9050108432168C96821F0FA
:101CA000FF0108432168C8602068006840F0010017
:101CB0002168086000202064202084F83D00002076
:101CC000206384F83E0000BF24E70000A0860100E6
:101CD00080841E0000093D0040420F0010B586B010
:101CE0000446142101A8FEF7E3FB2A492068884234
:101CF0004DD100BF002000902748006840F004004C
:101D0000254908600846006800F00400009000BF04
:101D100000BF00BF002000900846006840F00100AE
:101D200008600846006800F00100009000BF00BF96
:101D30004815019012200290002003900320049087
:101D40000420059001A91548FFF7DAFD4FF48070D3
:101D5000019012200290012003900320049004209F
:101D6000059001A90E48FFF7CBFD00BF00200090B1
:101D700009481030006840F400000749103108603D
:101D80000846006800F40000009000BF00BF06B0E5
:101D900010BD0000005C00403038024000080240E6
:101DA00000000240034800680349097808440149DB
:101DB00008607047100000201800002010B50D4882
:101DC000006840F400700B4908600846006840F461
:101DD000806008600846006840F480700860032056
:101DE00000F0E0F80F2000F007F800F05FF80020A6
:101DF00010BD0000003C02402DE9F04188B00446CF
:101E00000027B84600BF002001902348006840F03A
:101E10001000214908600846006800F01000019099
:101E200000BF00BF02A903A800F092F9069F1FB9E6
:101E300000F0B6F9054602E000F0B2F94500174897
:101E4000B5FBF0F0A0F1010815481649086040F212
:101E5000E7311448C160C0F804800021016181604D
:101E6000816100F087FE064696B90E4800F014FF27
:101E700006466EB9362000F043F8102C07D2002237
:101E80002146362000F050F80748046000E00126A3
:101E9000304608B0BDE8F0814038024040420F00B3
:101EA00000100040440600201400002008B500BFC8
:101EB000002000901148006840F480400F490860FD
:101EC0000846006800F48040009000BF00BF00BFDB
:101ED00000200090081F006840F08050091F086033
:101EE0000846006800F08050009000BF00BF00224C
:101EF0000F21901E00F018F808BD00004438024081
:101F00000146084600280DDB00BF00BF00F01F039C
:101F100001229A4043099B0003F1E023C3F800210A
:101F200000BF00BF00BF70472DE9F05F80460D463F
:101F30001646002702F0DAFF074639462A4633469E
:101F400001F00700C0F1070ABAF1040F02D94FF0FF
:101F5000040A01E0C0F1070AD14600F1040ABAF10F
:101F6000070F02D24FF0000A01E0A0F1030AD446A5
:101F70004FF0010A0AFA09FAAAF1010A0AEA020A6A
:101F80000AFA0CFA4FF0010B0BFA0CFBABF1010B48
:101F90000BEA030B4AEA0B042146404602F0AEFF6F
:101FA000BDE8F09F00BF00F00702064B19684FF62E
:101FB000FF031940044B0B4343EA0221014B196014
:101FC00000BF70470CED00E00000FA0570B5044654
:101FD0000D460CB9012070BD5848006800F007009C
:101FE000A84209D255490D700846006800F0070064
:101FF000A84201D00120EEE7207800F0020002287C
:102000001DD1207800F00400042805D14C48006858
:1020100040F4E0504A490860207800F008000828A1
:1020200005D14748006840F460404549086044488D
:10203000006820F0F000A16808434149086020785A
:1020400000F00100A8B36068012807D13C480838B7
:102050000068C0F34040B8B90120BCE760680228BE
:1020600002D06068032807D1354808380068C0F3FB
:10207000406048B90120AEE7314808380068C0F335
:10208000400008B90120A6E72D48006820F00300B1
:10209000616808432A490860FFF732FD064609E0F7
:1020A000FFF72EFD801B41F28831884202D90320C0
:1020B00091E707E02248006800F00C006168B0EB8F
:1020C000810FEDD11D48006800F00700A84209D932
:1020D0001A490D700846006800F00700A84201D0B8
:1020E000012078E7207800F00400042807D1144884
:1020F000006820F4E050E168084311490860207846
:1021000000F00800082808D10D48006820F460405D
:10211000216940EAC1000A49086000F061F80849F5
:102120000968C1F30311074A515CC84006490860B9
:1021300006480068FFF760FE00204CE7003C0240C4
:1021400008380240887000081C000020140000209D
:102150000F2202600D4A126802F0030242600B4A2D
:10216000126802F0F0028260084A126802F4E0523B
:10217000C260064A126802F46042D2080261044A50
:10218000126802F007020A60704700000838024037
:10219000003C024001480068704700001C0000201D
:1021A00000B5FFF7F7FF04490968C1F38221034A2C
:1021B000515CC84000BD000008380240987000081B
:1021C00000B5FFF7E7FF04490968C1F34231034A4C
:1021D000515CC84000BD00000838024098700008FB
:1021E0002DE9F047002400250026A1462548006877
:1021F00000F00C0020B1042805D008283AD105E0F1
:10220000DFF8849039E0DFF8849036E01D48001F45
:10221000006800F03F041B48001F006800F48000C5
:1022200078B11A481749091F0968C1F38811A0FB42
:1022300001700146224600233846FEF775F8054630
:102240000EE011480F49091F0968C1F38811A0FB6E
:1022500001700146224600233846FEF765F8054620
:102260000848001F0068C0F30140401C4600B5FB51
:10227000F6F902E0DFF8109000BF00BF4846BDE865
:10228000F0870000083802400024F400001BB7006B
:10229000F8B504460CB90120F8BD207800F0010023
:1022A000002874D0F948006800F00C0004280DD014
:1022B000F648006800F00C00082813D1F348001F0E
:1022C000006800F48000B0F5800F0BD1EF480838AB
:1022D0000068C0F34040002859D06068002856D1FB
:1022E0000120D9E700BF6068B0F5803F08D1E7481A
:1022F0000838006840F48030E449083908601EE07E
:102300006068B0F5A02F0DD1E0480838006840F4AF
:102310008020DE49083908600846006840F48030B3
:1023200008600CE0D9480838006820F48030D749AC
:10233000083908600846006820F48020086000BF63
:10234000606890B1FFF7DCFB054606E0FFF7D8FBBD
:10235000401B642801D903209EE7CC480838006858
:10236000C0F340400028F1D011E0FFF7C9FB05465B
:1023700006E0FFF7C5FB401B642801D903208BE76B
:10238000C24808380068C0F340400028F1D12078E6
:1023900000F0020002285FD1BC48006800F00C0089
:1023A00058B1BA48006800F00C0008281CD1B748A2
:1023B000001F006800F48000B0B9B4480838006815
:1023C000C0F3400020B1E068012801D0012063E79C
:1023D000AE480838006820F0F800216940EAC100E2
:1023E000AA490839086037E0E06800B30120A8492D
:1023F0000860FFF785FB054606E0FFF781FB401B01
:10240000022801D9032047E7A04808380068C0F334
:1024100040000028F1D09D480838006820F0F800FE
:10242000216940EAC10099490839086014E0002098
:1024300097490860FFF764FB054606E0FFF760FB7D
:10244000401B022801D9032026E79048083800687D
:10245000C0F340000028F1D1207800F008000828DF
:102460002CD16069A8B101208A490860FFF748FBB8
:10247000054606E0FFF744FB401B022801D9032074
:102480000AE782486C300068C0F340000028F1D0B1
:1024900014E000207F490860FFF732FB054606E0A4
:1024A000FFF72EFB401B022801D90320F4E67748F2
:1024B0006C300068C0F340000028F1D1207800F0B3
:1024C0000400042870D1002770483830006800F0FC
:1024D000805090B900BF002000906C4838300068F0
:1024E00040F080506949383108600846006800F0C3
:1024F0008050009000BF00BF01276748006800F4CB
:102500008070B0B96448006840F480706249086027
:10251000FFF7F6FA054606E0FFF7F2FA401B02283D
:1025200001D90320B8E65C48006800F480700028F8
:10253000F2D000BFA068012808D154486830006874
:1025400040F001005149683108601DE0A06805288D
:102550000DD14E486830006840F004004B496831A6
:1025600008600846006840F0010008600CE0474839
:102570006830006820F0010044496831086008466E
:10258000006820F00400086000BFA068A8B1FFF751
:10259000B7FA054609E0FFF7B3FA401B41F288316C
:1025A000884202D9032077E626E038486830006880
:1025B000C0F340000028EED013E0FFF7A1FA054673
:1025C00008E0FFF79DFA401B41F28831884201D9AB
:1025D000032061E62D4868300068C0F34000002801
:1025E000EFD1012F07D129483830006820F0805002
:1025F00026493831086000BFA069002845D023482B
:10260000006800F00C0008285DD0A069022845D1C0
:1026100000201F490866FFF773FA054606E0FFF73A
:102620006FFA401B022801D9032035E61748083805
:102630000068C0F340600028F1D1D4E907010843E5
:10264000616A40EA81110122A06AC2EB500041EAAE
:1026500000412C20005D41EA00600C49091F086020
:1026600001200B490866FFF74BFA054606E0FFF725
:1026700047FA401B022801D903200DE60348083819
:102680000068C0F340600028F1D049E008380240FB
:1026900000004742800E4742007000400020214960
:1026A0000866FFF72DFA054606E0FFF729FA401BFA
:1026B000022801D90320EFE51B480068C0F3406001
:1026C0000028F2D12CE0A069012800D1E4E51648E9
:1026D000001D0668A069012820D006F48001E06989
:1026E00081421BD106F03F01206A814216D147F694
:1026F000C0703040616AB0EB811F0FD106F44031E9
:102700000122A06AC2EB5000B1EB004F06D106F0E7
:1027100070612C20005DB1EB006F01D00120BBE5A2
:102720000020B9E500004742003802407047000031
:10273000F8B504462068466820688568C5F38010AF
:1027400048B905F0010030B1C6F3801018B1204639
:10275000216C8847F8BDC5F3400030B1C6F3C01006
:1027600018B12046616C8847F4E7C5F3401030B9D2
:10277000C5F3801018B9C5F3002000287CD0C6F33B
:10278000401000287DD0C5F38010F0B194F85100BE
:1027900003280ED0606D40F00400606500BF00208B
:1027A00000902068C068009020688068009000BF9A
:1027B0000BE000BF002000902068C06800902068F7
:1027C0008068009000BF00BFC4E7C5F3401088B127
:1027D000606D40F00100606500BF0020009020683F
:1027E000806800902068006820F040002168086040
:1027F00000BF00BFC5F3002058B1606D40F0080075
:10280000606500BF0020009020688068009000BFD5
:1028100000BF606D78B32068406820F0E000216858
:102820004860012084F8510006F00200022802D01E
:1028300006F0010008B32068406820F0030021681A
:102840004860E06C50B11048E16C0865E06CFEF740
:1028500055FE18B1606D40F040006065A06C50B14D
:102860000948A16C0865A06CFEF748FE18B1606DC0
:1028700040F04000606503E003E02046FFF756FFAC
:1028800068E700BF66E700009542000810B50446FF
:102890000CB9012010BD606A38B96068B0F5827F5C
:1028A00000D105E00021E16102E0002121616161C8
:1028B0000021A16294F8510028B9002084F850004A
:1028C000204600F047F8022084F851002068006894
:1028D00020F0400021680860A08800F482702189FF
:1028E00001F404410843A18901F400610843217CFB
:1028F00001F002010843217D01F001010843218B11
:1029000001F400710843217F01F0380108432021C0
:10291000095D01F080010843218D01F40051084355
:10292000216808600421A06901EA104094F824108D
:1029300001F010010843216848602068C06920F454
:1029400000602168C86100206065012084F85100A2
:1029500000209FE710B586B00446142101A8FDF7BA
:10296000A7FD4F49206888427ED100BF002000901B
:102970004C48006840F480504A49086008460068A6
:1029800000F48050009000BF00BF00BF0020009006
:1029900044481438006840F0020042491439086085
:1029A0000846006800F00200009000BF00BF00BFB2
:1029B000002000900846006840F0010008600846CA
:1029C000006800F00100009000BF00BF18200190D7
:1029D000022002900020039003200490052005901F
:1029E00001A93148FEF78CFF80200190022002905F
:1029F00000200390032004900520059001A92B4896
:102A0000FEF77EFF2A482B4908604FF0C0604860FF
:102A1000002128488160C1604FF48061016100217C
:102A200041618161C1614FF4403101620021416225
:102A3000FEF798FE08B1FEF70AF800BF1D48E064F3
:102A4000846300BF1A4848301B4908604FF0C060DB
:102A500048604021184881600021C1604FF48061C6
:102A600001610021416100E018E08161C1614FF422
:102A70000031016200214162FEF774FE08B1FDF7EA
:102A8000E6FF00BF0C48A064846300BF002205215C
:102A90002320FFF749FA2320FFF732FA06B010BDD2
:102AA000003001404438024000040240000002406F
:102AB00010640240AC0100200C02002070477047F7
:102AC00030B502460B4600BF92F83C00012801D108
:102AD000022030BD012082F83C0000BF022082F8B5
:102AE0003D00106844681068816824F0700418681C
:102AF000044310684460184D1068A8421BD0106849
:102B0000B0F1804F17D0154D1068A84213D0144D66
:102B10001068A8420FD0134D1068A8420BD0124D78
:102B20001068A84207D0114D1068A84203D0104D7C
:102B30001068A84205D121F080015868014310684F
:102B40008160012082F83D0000BF002082F83C0037
:102B500000BF00BFBDE700000000014000040040CE
:102B600000080040000C004000040140004001400B
:102B70000018004010B504460CB9012010BD94F8AF
:102B80003D0028B9002084F83C00204600F026F8DB
:102B9000022084F83D00211D206801F0FDFB01208A
:102BA00084F8460000BF84F83E0001213F20015513
:102BB000402001554120015500BF00BF012084F88D
:102BC000420043200155442001554520015500BFD6
:102BD000012084F83D000020D0E7000008B5294A14
:102BE000016891420FD100BF002100912649096878
:102BF00041F00201244A11601146096801F0020106
:102C0000009100BF3DE0214A016891420FD100BF11
:102C1000002100911C49096841F004011A4A116021
:102C20001146096801F00401009100BF29E0184A2B
:102C3000016891420FD100BF00210091124909683B
:102C400041F00801104A11601146096801F00801BD
:102C5000009100BF15E00F4A0168914211D100BFF9
:102C6000002100910849091D096841F40031064A14
:102C7000121D11601146096801F40031009100BF76
:102C800000BF08BD0004004040380240000800407A
:102C9000000C004000440140014691F83D0001282D
:102CA00001D001207047022081F83D000868C0680B
:102CB00040F001000B68D8601A4B086898421BD09E
:102CC0000868B0F1804F17D0174B0868984213D0AE
:102CD000164B086898420FD0154B086898420BD0E5
:102CE000144B0868984207D0134B0868984203D0E9
:102CF000124B086898420CD10868806800F00702FF
:102D0000062A0CD00868006840F001000B681860C3
:102D100005E00868006840F001000B6818600020BA
:102D2000C0E700000000014000040040000800402F
:102D3000000C004000040140004001400018004029
:102D40002DE9F04104460D46002700BF94F83C00F1
:102D5000012802D10220BDE8F081012084F83C0066
:102D600000BF022084F83D002068866826F07706C0
:102D700026F47F46206886602868502833D00CDC13
:102D8000202850D004DC00284BD0102851D149E035
:102D9000302849D040284CD139E060282DD0702807
:102DA00007D0B0F5805F03D0B0F5005F41D10DE0F2
:102DB00041E0D5E902136A68206801F05DFB2068F4
:102DC000866846F077062068866034E0D5E902130D
:102DD0006A68206801F050FB2068806840F48040F9
:102DE0002168886027E0EA686968206801F034FC9F
:102DF0005021206801F04BFB1DE0EA6869682068FB
:102E000001F03DFC6021206801F041FB13E0EA681D
:102E10006968206801F020FC4021206801F037FB40
:102E200009E000BF00BF00BF2968206801F02FFB48
:102E300001E0012700BF00BF012084F83D0000BF72
:102E4000002084F83C0000BF384684E7704770B526
:102E500004462068C5682068066906F0020002285A
:102E600019D105F00200022815D1401F2168086120
:102E7000012020772068806900F0030018B1204607
:102E8000FFF7E4FF05E0204600F03CF9204600F0A3
:102E9000F0F90020207706F00400042819D105F08D
:102EA0000400042815D1C04321680861022020775E
:102EB0002068806900F4407018B12046FFF7C6FF13
:102EC00005E0204600F01EF9204600F0D2F900206F
:102ED000207706F00800082819D105F00800082816
:102EE00015D1C04321680861042020772068C0699B
:102EF00000F0030018B12046FFF7A8FF05E02046C8
:102F000000F000F9204600F0B4F90020207706F028
:102F10001000102819D105F01000102815D1C04359
:102F200021680861082020772068C06900F440709B
:102F300018B12046FFF78AFF05E0204600F0E2F8CE
:102F4000204600F096F90020207706F0010048B1F5
:102F500005F0010030B16FF00100216808612046E2
:102F600000F088F906F08000802809D105F0800083
:102F7000802805D1C043216808612046FFF79EFDE7
:102F800006F04000402809D105F04000402805D156
:102F9000C04321680861204600F078F906F020005F
:102FA000202809D105F02000202805D1C043216840
:102FB00008612046FFF783FD70BD000010B586B0A4
:102FC0000446142101A8FDF773FA45492068884298
:102FD0001DD100BF002000904248006840F004006E
:102FE000404908600846006800F00400009000BFF7
:102FF00000BF8815019002200290002003900490E9
:103000000220059001A93848FEF77AFC66E03749AE
:10301000206888421ED100BF00200090314800681F
:1030200040F008002F4908600846006800F00800DA
:10303000009000BF00BF4FF480400190022002903A
:103040000020039004900220059001A92848FEF773
:1030500057FC43E02749206888421ED100BF00206A
:1030600000902048006840F080001E490860084633
:10307000006800F08000009000BF00BF4FF4E050F7
:1030800001900220029000200390049002200590FD
:1030900001A91948FEF734FC20E01849206888424D
:1030A0001CD100BF002000900E48006840F02000B6
:1030B0000C4908600846006800F02000009000BF3E
:1030C00000BF402001900220029000200390049055
:1030D0000320059001A90A48FEF712FC06B010BDB6
:1030E0000004004030380240000802400008004060
:1030F000000C0240000C0040001C02400044014053
:103100000014024070472DE9F04104460D46164672
:10311000002700BF94F83C00012802D10220BDE83E
:10312000F081012084F83C0000BF36B1042E1BD092
:10313000082E31D00C2E5ED145E02946206801F0E2
:10314000AFF92068806940F0080021688861206834
:10315000806920F0040021688861206880692969FD
:1031600008432168886148E02946206801F0D0F9C9
:103170002068806940F40060216888612068806967
:1031800020F480602168886120688069296940EAAC
:1031900001202168886130E02946206801F0F6F9B5
:1031A0002068C06940F008002168C8612068C069D3
:1031B00020F004002168C8612068C06929690843BB
:1031C0002168C86119E02946206801F01BFA2068CF
:1031D000C06940F400602168C8612068C06920F4BB
:1031E00080602168C8612068C069296940EA0120BF
:1031F0002168C86101E0012700BF00BF00BF0020B7
:1032000084F83C0000BF384689E710B504460CB985
:10321000012010BD94F83D0028B9002084F83C003E
:10322000204600F025F8022084F83D00211D20688A
:1032300001F0B2F8012084F8460000BF84F83E0097
:1032400001213F200155402001554120015500BF7B
:1032500000BF012084F8420043200155442001555D
:103260004520015500BF012084F83D000020D0E733
:103270007047704710B5044603492068884201D161
:10328000FEF790FD10BD0000001000407047F8B53B
:1032900004460D46164694F8420020282DD105B16B
:1032A0000EB90120F8BD0120206300206063324682
:1032B0002946204601F0E2FC0746206B012819D17F
:1032C00000BF0020009020680068009020684068DF
:1032D000009000BF00BF00BF00BF21680C3151E863
:1032E000001F41F0100021680C3141E80002002A63
:1032F000F3D100E001273846D4E70220D2E70000EE
:1033000070B504460D460849206888420AD1122D3E
:1033100003D106490648FDF705FB2422044920464F
:10332000FFF7B5FF70BD000000480040E44F0020EB
:10333000C04F0020704700002DE9F84F0446206878
:1033400005682068C668206847694FF00009CA46CA
:1033500005F00F09B9F1000F0AD105F0200038B1CE
:1033600006F0200020B1204601F0F3FABDE8F88F06
:10337000B9F1000F7CD007F0010018B906F4907085
:10338000002875D005F0010030B106F4807018B146
:10339000606C40F00100606405F0040030B107F09B
:1033A000010018B1606C40F00200606405F002009A
:1033B00030B107F0010018B1606C40F004006064A7
:1033C00005F0080048B106F0200010B907F0010030
:1033D00018B1606C40F008006064606C002846D052
:1033E00005F0200028B106F0200010B1204601F0C1
:1033F000B0FA20684069C0F3801A606C00F00800E1
:1034000010B9BAF1000F2DD0204601F049FA20681A
:10341000406900F04000402820D100BF00BF216873
:10342000143151E8001F21F040002168143141E8B7
:103430000002002AF3D100BFE06B50B17F48E16B7E
:103440000865E06BFEF75AF888B1E06B016D8847BC
:103450000DE02046FFF76EFF09E009E02046FFF788
:1034600069FF04E02046FFF765FF002060647DE708
:10347000206B012878D105F01000002874D006F0E8
:1034800010000028FAD000BF0020009020680068DB
:10349000009020684068009000BF00BF206840692D
:1034A00000F04000402870D1E06B006840681FFACF
:1034B00080F8B8F1000F58D0A08D404555DDA4F834
:1034C0002E80E06BC069B0F5807F43D000BF00BFA5
:1034D00021680C3151E8001F21F4807021680C3103
:1034E00041E80002002AF3D100BF00BF00BF2168FD
:1034F000143151E8001F21F001002168143141E826
:103500000002002AF3D100BF00BF00BF21681431C0
:1035100051E8001F21F040002168143141E8000209
:10352000002AF3D100BF202084F84200002020634D
:1035300000BF00BF21680C3151E8001F21F01000CE
:1035400021680C3141E80002002AF3D100BFE06B92
:10355000FDF77EFF02206063A08DE28D801A81B2AC
:103560002046FFF7CDFE0EE052E0A08D40450AD187
:10357000E06BC069B0F5807F05D102206063A18D4A
:103580002046FFF7BDFEF1E6FFE7A08DE18D401A72
:103590001FFA80F8E08DD0B3B8F1000F37D000BF2C
:1035A00000BF21680C3151E8001F21F490702168A0
:1035B0000C3141E80002002AF3D100BF00BF00BF78
:1035C0002168143151E8001F21F0010021681431F5
:1035D00041E80002002AF3D100BF202084F8420015
:1035E0000020206300BF00BF21680C3151E8001F9C
:1035F00021F0100021680C3141E80002002AF3D1CB
:1036000000BF0220606341462046FFF779FEADE629
:1036100005F0800030B106F0800018B1204601F0BE
:1036200099FBA3E605F0400030B106F0400018B168
:10363000204601F06BF999E600BF97E601470008C4
:1036400010B504460CB9012010BDA06900B100E01E
:1036500000BF94F8410028B9002084F840002046BB
:1036600000F02AF8242084F841002068C06820F483
:1036700000502168C860204601F0EAF9206800691E
:1036800020F49040216808612068406920F02A00F9
:10369000216848612068C06840F400502168C86013
:1036A00000206064202084F8410084F8420000205B
:1036B000606300BFC8E7000010B586B0044614215F
:1036C00001A8FCF7F5FEBC49206888427ED100BF06
:1036D00000200090B948006840F01000B749086029
:1036E0000846006800F01000009000BF00BF00BF57
:1036F00000200090B1481438006840F00200AF4943
:10370000143908600846006800F00200009000BF0D
:1037100000BF00BF002000900846006840F0010094
:1037200008600846006800F00100009000BF00BF7C
:10373000802001900220029000200390032004903A
:103740000720059001A99E48FEF7DAF84FF40070B3
:103750000190022002900020039003200490072093
:10376000059001A99748FEF7CBF89748974908605C
:103770004FF000604860002194488160C1604FF4C0
:1037800080610161002141618161C1610162416229
:10379000FDF7E8FF08B1FDF75AF900BF8B48E06379
:1037A000846300BF88487830894908604FF0006022
:1037B00048604021864881600021C1604FF48061EB
:1037C0000161002141618161C16100E014E0016299
:1037D0004162FDF7C7FF08B1FDF739F900BF7C482A
:1037E000A063846300BF002205212520FEF79CFB17
:1037F0002520FEF785FBDDE07649206888425DD113
:1038000000BF002000906D48001F006840F4802039
:103810006A49091F08600846006800F4802000908B
:1038200000BF00BF00BF002000906448143800684B
:1038300040F004006149143908600846006800F04F
:103840000400009000BF00BF4FF4406001900220D0
:10385000029000200390032004900720059001A906
:103860005D48FEF74DF85D485D4908604FF0006027
:10387000486000215A488160C1604FF48061016155
:103880000021416181614FF48071C1614FF4403189
:10389000016200214162FDF765FF08B1FDF7D7F82D
:1038A00000BF4F48E063846300BF0022052127204A
:1038B000FEF73AFB2720FEF723FB7BE0494920680F
:1038C000884277D100BF002000903C48006840F05B
:1038D00020003A4908600846006800F02000009087
:1038E00000BF00BF00BF00200090344814380068BB
:1038F00040F040003149143908600846006800F083
:103900004000009000BF00BF4FF4844001900220AF
:10391000029000200390032004900820059001A944
:103920003148FDF7EDFF28486030304908604FF01E
:103930002060486040212D4881600021C1604FF423
:1039400080610161002141618161C1614FF40031F9
:10395000016200214162FDF705FF08B1FDF777F82C
:1039600000BF2248A063846300BF1748183820496D
:1039700008608005486000211D488160C1604FF4E7
:1039800080610161002141618161C1610162416227
:10399000FDF7E8FE08B1FDF75AF800BF1448E063F0
:1039A000846300BF002205214720FEF7BDFA4720AF
:1039B000FEF7A6FA06B010BD0010014044380240E0
:1039C0000004024000000240406402406404002001
:1039D000C404002000480040000802402860024063
:1039E0002405002000140140001802408405002036
:1039F000E405002070477047F7B50446154694F873
:103A0000410020283ED1019800B10DB90120FEBD32
:103A100001982062A584E58400206064212084F858
:103A200041001948A16BC8631848A16B0864184885
:103A3000A16BC8640020A16B086501AE23681A1D44
:103A400031682B46A06BFDF703FF30B11020606496
:103A5000202084F841000120D9E76FF04000216860
:103A6000086000BF00BF2168143151E8001F41F019
:103A700080002168143141E80002002AF3D100BF20
:103A80000020C4E70220C2E73B4800089348000832
:103A9000134700087047704700BFFEE710B50E4897
:103AA0000E4908600320486000210C488160C16015
:103AB0004FF4102101614FF40011416100210176A2
:103AC00041768176C17601774177FDF709FB08B130
:103AD000FCF7BDFF10BD000000640040B0000020F6
:103AE00010B50E480E4908600320486000210C48BC
:103AF0008160C1604FF4102101614FF400114161F8
:103B00000021017641768176C17601774177FDF714
:103B1000E7FA08B1FCF79BFF10BD00000068004009
:103B2000D800002008B500BF002000902A48006897
:103B300040F40010284908600846006800F40010AE
:103B4000009000BF00BF00BF002000900846006842
:103B500040F4800008600846006800F4800000908F
:103B600000BF00BF002205210C20FEF7DDF90C206C
:103B7000FEF7C6F9002205213820FEF7D5F93820D6
:103B8000FEF7BEF9002205213920FEF7CDF93920D4
:103B9000FEF7B6F9002205213A20FEF7C5F93A20D2
:103BA000FEF7AEF9002205213B20FEF7BDF93B20D0
:103BB000FEF7A6F9002205214520FEF7B5F94520BC
:103BC000FEF79EF9002205214620FEF7ADF94620BA
:103BD000FEF796F908BD00003038024010B50B4AD8
:103BE00000210B4801F034FA0A4908600A4A002112
:103BF0000A4801F02DFA0A4908600A4A00210A48D9
:103C000001F026FA0949086010BD00001470000890
:103C1000C94600080000002038700008A9460008C6
:103C2000040000205C700008F9460008080000202D
:103C300000B587B0142102A8FCF73AFC00BF0020B1
:103C400001906648006840F0020064490860084638
:103C5000006800F00200019000BF00BF00BF00201C
:103C600001900846006840F040000860084600687F
:103C700000F04000019000BF00BF00BF0020019095
:103C80000846006840F0010008600846006800F03F
:103C90000100019000BF00BF00BF00200190084656
:103CA000006840F0080008600846006800F008005E
:103CB000019000BF00BF00BF0020019008460068CF
:103CC00040F0040008600846006800F0040001901D
:103CD00000BF00BF00BF002001900846006840F010
:103CE000800008600846006800F08000019000BF76
:103CF00000BF00BF002001900846006840F020008F
:103D000008600846006800F02000019000BF00BF76
:103D1000012240213248FDF7EDFE012210213148F9
:103D2000FDF7E8FE012211462F48FDF7E3FE402093
:103D30000290012003900490059002A92848FDF705
:103D4000DFFD092002904FF404100390012004903D
:103D500002A92348FDF7D4FD102002900120039012
:103D600004900220059002A91E48FDF7C9FD3020ED
:103D700002904FF4041003900120049002A91B4804
:103D8000FDF7BEFD012002900390049002200590F3
:103D900002A91548FDF7B4FD002206210846FEF7EA
:103DA000C3F80620FEF7ACF8002205210920FEF733
:103DB000BBF80920FEF7A4F8002205210A20FEF72F
:103DC000B3F80A20FEF79CF8002205211720FEF721
:103DD000ABF81720FEF794F807B000BD303802406A
:103DE00000180240000002400004024000080240A7
:103DF00010B50B480B4908600B4848600021094882
:103E00008160C1604FF480410161002141618161A5
:103E1000C1610162FDF77AFE08B1FCF718FE10BD22
:103E2000005C004000010020801A060010B50F4819
:103E30000F4908604FF48270486000210C4881608F
:103E4000C160022101610121416149028161382182
:103E5000C16100210162416281620A21C162FEF7F3
:103E600015FD08B1FCF7F3FD10BD00000030014066
:103E70005401002000B587B01C216846FCF718FBF0
:103E800015481649086000204860002113488160E9
:103E900041F28731C160002101618161FEF76AFE54
:103EA00008B1FCF7D4FD0D48FFF7AFF908B1FCF7F6
:103EB000CEFD60200090002001900290049000222E
:103EC00069460648FFF71FF908B1FCF7C0FD034833
:103ED000FFF774F807B000BD004401404403002020
:103EE00000B58DB0002009900A900B900C900790BF
:103EF00008901C216846FCF7DBFA2048204908603E
:103F00000020486000211E48816042F2CF01C1605C
:103F1000002101618161FEF72DFE08B1FCF797FDDC
:103F20004FF48050099009A91548FEF709FF08B120
:103F3000FCF78DFD1248FFF768F908B1FCF787FD23
:103F400000200790089007A90D48FEF7B9FD08B1B9
:103F5000FCF77DFD6020009000200190029004900D
:103F6000082269460648FFF7CEF808B1FCF76FFD56
:103F70000348FFF723F80DB000BD00000004004027
:103F80006C02002000B58DB0002009900A900B90C3
:103F90000C90079008901C216846FCF789FA20488D
:103FA00020490860A720486000211E4881604FF624
:103FB000FF71C160002101618161FEF7DBFD08B185
:103FC000FCF745FD4FF48050099009A91548FEF70C
:103FD000B7FE08B1FCF73BFD1248FFF716F908B130
:103FE000FCF735FD00200790089007A90D48FEF763
:103FF00067FD08B1FCF72BFD6020009000200190C8
:1040000002900490082269460648FFF77CF808B140
:10401000FCF71DFD0348FEF7D1FF0DB000BD000009
:1040200000080040B402002000B58DB000200990C7
:104030000A900B900C90079008901C216846FCF7A2
:1040400037FA29482949086000204860002127489C
:1040500081604FF6FF71C160002101618161FEF74F
:1040600089FD08B1FCF7F3FC4FF48050099009A9D1
:104070001E48FEF765FE08B1FCF7E9FC1B48FFF798
:10408000C4F808B1FCF7E3FC00200790089007A9EA
:104090001648FEF715FD08B1FCF7D9FC602000902A
:1040A00042F21070019000200290049000226946B4
:1040B0000E48FFF728F808B1FCF7C9FC042269464E
:1040C0000A48FFF720F808B1FCF7C1FC082269464E
:1040D0000648FFF718F808B1FCF7B9FC0348FEF7EB
:1040E0006DFF0DB000BD0000000C0040FC02002080
:1040F00010B50B480B4908604FF4E13048600021CF
:1041000008488160C16001610C2141610021816129
:10411000C161FFF795FA08B1FCF799FC10BD0000EA
:10412000001001408C03002010B50B480B490860BB
:104130000B484860002109488160C1604FF48061EC
:1041400001610C21416100218161C161FFF778FAB1
:1041500008B1FCF77CFC10BD00480040D4030020EF
:10416000A086010010B50B480B4908604FF4E13000
:104170004860002108488160C16001610C214161F3
:1041800000218161C161FFF75BFA08B1FCF75FFCB8
:1041900010BD0000001401401C04002000BFFEE719
:1041A00010B500B101B910BD0023C386012380F80A
:1041B000383003881BB22E4C23804B780C7843EAAE
:1041C00004230380CB788C7843EA04231BB243801A
:1041D0004B790C7943EA04231BB283808B7983717A
:1041E0000388234C24881B1B1AB212F5805F03DA64
:1041F00083695B1C836105E0B2F5805F02DD836942
:104200005B1E83610488836904EB4333C36190EDD3
:10421000070AF8EEC00A9FED171A80EE810AF0EE49
:10422000000A20EE200ADFED140A20EE200AD0ED6D
:10423000080A80EE201A80ED021AB0F9023000EE72
:10424000103AB8EEC00ADFED0D0A20EE200AD0EDDC
:10425000080A80EE201A80ED031AB0F9043000EE4F
:10426000103AB8EEC00A80ED040A00BF9BE70000D8
:10427000AC00002000000046DB0F49405077D63DDF
:1042800000BFFEE710B50248FEF752FA10BD00006D
:104290005401002070B50546AC6B0020E087E08635
:1042A0002046FEF743FA70BD10B54FF0E0200069DC
:1042B00002F04AFC012801D002F094F810BD000081
:1042C00000B593B0302107A8FCF7F2F8142102A83A
:1042D000FCF7EEF800BF002001902448006840F091
:1042E0008050224908600846006800F08050019024
:1042F00000BF00BF00BF002001901D48006840F4CF
:1043000080401B4908600846006800F48040019026
:1043100000BF00BF012007900004089002200D900C
:1043200041050E9106210F91A821109102211191B2
:104330000421129107A8FDF7ABFF08B1FCF787FB3A
:104340000F20029002200390002004904FF4A05010
:1043500005904FF480500690052102A8FDF736FE27
:1043600008B1FCF774FB13B000BD000040380240F8
:10437000007000400348006840F470000149086084
:104380007047000088ED00E010B50248FEF75FFDC1
:1043900010BD00004406002010B502682B4B984267
:1043A0000ED0B0F1804F0BD0294B984208D0294B4A
:1043B000984205D0284B984202D0284B984203D10E
:1043C00022F070024B681A43204B984220D0B0F183
:1043D000804F1DD01E4B98421AD01E4B984217D0CA
:1043E0001D4B984214D01D4B984211D01C4B984243
:1043F0000ED01C4B98420BD01B4B984208D01B4B45
:10440000984205D01A4B984202D01A4B984203D1D9
:1044100022F44072CB681A4322F080034C6943EACD
:1044200004028B68C3620B688362084B984202D017
:104430000A4B984201D10B690363036843F00403FC
:10444000036001234361026010BD000000000140D1
:104450000004004000080040000C0040000401403F
:104460000040014000440140004801400018004065
:10447000001C00400020004030B50C46816821F44B
:104480007F4142EA032525432943816030BD0A4626
:10449000816821F0700142F0070319438160704781
:1044A00030B5026A056A25F0010505624368846932
:1044B00024F0700424F003040D682C4322F002025F
:1044C0008D682A43104DA84200D103E00F4DA84249
:1044D00006D100BF22F00802CD682A4322F0040270
:1044E000094DA84202D0094DA84207D123F4807398
:1044F00023F400734D692B438D692B434360846122
:104500004D684563026230BD000001400004014077
:1045100030B5026A056A25F01005056243688469B2
:1045200024F4E04424F440740D6844EA052422F0A5
:1045300020028D6842EA0512124DA84200D103E024
:10454000114DA84207D100BF22F08002CD6842EA97
:10455000051222F040020B4DA84202D00A4DA8429B
:1045600009D123F4806323F400634D6943EA850392
:104570008D6943EA8503436084614D688563026207
:1045800030BD0000000001400004014030B5026A67
:10459000056A25F4807505624368C46924F07004D7
:1045A00024F003040D682C4322F400728D6842EA63
:1045B0000522124DA84200D103E0114DA84207D1B7
:1045C00000BF22F40062CD6842EA052222F4806234
:1045D0000A4DA84202D00A4DA84209D123F48053C3
:1045E00023F400534D6943EA05138D6943EA05132B
:1045F0004360C4614D68C563026230BD0000014084
:104600000004014030B5036A056A25F4805505624F
:104610004468C26922F4E04222F440720D6842EA22
:10462000052223F400538D6843EA0533084DA84260
:1046300002D0084DA84204D124F480444D6944EAD4
:1046400085144460C2614D680564036230BD00009A
:10465000000001400004014030B50B461446026AD8
:10466000056A25F001050562816921F0F00141EA42
:10467000041122F00A021A438161026230BD30B592
:104680000B461446026A056A25F010050562816929
:1046900021F4704141EA043122F0A00242EA0312FF
:1046A0008161026230BD00000648FBF7F6FF00F0B2
:1046B0007CFC044600BFFCF719F8641C204600F09F
:1046C0005AFCF8E7B0000020094800F0A9FB0948AF
:1046D000FCF79EF900F069FC044600BFFCF710F9F6
:1046E00000F082FB641C204600F045FCF6E7000069
:1046F0008C030020D4030020FCF7BCF900BFFEE7C8
:1047000070B50446A56B0020E8852846FEF712FE2A
:1047100070BD70B506460025B46B20684069C0F3D3
:10472000C01594F84100212805D125B10020E0846E
:10473000204600F0FBF820684069C0F3801594F82B
:104740004200222805D125B10020E085204600F056
:10475000A7F8606C40F0100060642046FEF7EAFDA8
:1047600070BD70B50546AC6B2868006800F48070B9
:10477000002842D1E08500BF00BF21680C3151E81C
:10478000001F21F4807021680C3141E80002002AEA
:10479000F3D100BF00BF00BF2168143151E8001FF2
:1047A00021F001002168143141E80002002AF3D110
:1047B00000BF00BF00BF2168143151E8001F21F085
:1047C00040002168143141E80002002AF3D100BF03
:1047D000202084F84200206B01280ED100BF00BFCA
:1047E00021680C3151E8001F21F0100021680C31C4
:1047F00041E80002002AF3D100BF00206063206B73
:10480000012804D1A18D2046FEF77AFD02E0204662
:10481000FFF7F0F870BD70B50546AC6B0120606322
:10482000206B012805D1A08D41082046FEF768FDC8
:1048300002E02046FFF7DFF870BD70B50546AC6BAF
:104840002868006800F48070F8B90020E08400BF98
:1048500000BF2168143151E8001F21F08000216859
:10486000143141E80002002AF3D100BF00BF00BFAD
:1048700021680C3151E8001F41F0400021680C31E3
:1048800041E80002002AF3D102E02046FFF702F9D6
:1048900070BD70B50446A56B2846FFF7FCF870BDE7
:1048A00000BF00BF02680C3252E8002F22F4907162
:1048B00002680C3242E80013002BF3D100BF00BFA6
:1048C00000BF0268143252E8002F22F00101026892
:1048D000143242E80013002BF3D100BF016B012911
:1048E0000ED100BF00BF02680C3252E8002F22F048
:1048F000100102680C3242E80013002BF3D100BF14
:10490000202180F8421000210163704710B5044651
:104910002068C06820F040002168C860202084F82A
:1049200041002046FFF7B6F8002010BD00BF00BFD1
:1049300002680C3252E8002F22F0C00102680C32EB
:1049400042E80013002BF3D100BF202180F8411072
:104950007047F8B504460025002694F84200222846
:1049600073D1A068B0F5805F0BD1206948B9A66A01
:1049700020684068C0F308003080A06A801CA062F4
:1049800014E0A56AA068B0F5805F03D0A06828B9DC
:10499000206918B920684068287004E020684068E1
:1049A00000F07F002870A06A401CA062E08D401ECD
:1049B00080B2E085002846D12068C06820F0200041
:1049C0002168C8602068C06820F480702168C860D1
:1049D0002068406920F0010021684861202084F8A7
:1049E000420000206063206B012826D10020206354
:1049F00000BF00BF21680C3151E8001F21F01000FA
:104A000021680C3141E80002002AF3D100BF206880
:104A1000006800F0100010280AD100BF00200090AC
:104A200020680068009020684068009000BF00BFC8
:104A3000A18D2046FEF764FC02E02046FEF7DAFF77
:104A40000020F8BD01E00020FBE70220F9E70000AC
:104A50002DE9F84F04462068006920F44050E168D1
:104A60000843216808612169A06808436169084317
:104A7000E169084300902068C06849F20C618843EE
:104A8000009908432168C8602068406920F440709C
:104A9000A16908432168486176492068884203D0AB
:104AA00075492068884203D1FDF78AFB814602E000
:104AB000FDF776FB8146E069B0F5004F6CD102202E
:104AC0006168A0FB015003461920A9FB0070014654
:104AD0002A463846FBF728FC6421B0FBF1F04FEA88
:104AE000001A02206168A0FB01510B461920A9FBA6
:104AF00000712A463846FBF717FC8346022061689E
:104B0000A0FB015003461920A9FB00712A46384634
:104B1000FBF70AFC6421B0FBF1F000EBC00101EBF4
:104B20000010ABEB8000322101EBC0006421B0FB30
:104B3000F1F000F0F8000AEB400A02206168A0FBE7
:104B4000015003461920A9FB007001462A46384649
:104B5000FBF7EAFB834602206168A0FB0150034695
:104B60001920A9FB00712A463846FBF7DDFB6421BA
:104B7000B0FBF1F000EBC00101EB0010ABEB8000EB
:104B8000322101EBC0006421B0FBF1F000F007001E
:104B90005044216888606AE004206168A0FB0150ED
:104BA00003461920A9FB007001462A463846FBF748
:104BB000BBFB824604206168A0FB0150034619201C
:104BC000A9FB007001462A463846FBF7ADFB64217D
:104BD000B0FBF1F000EBC00101EB0010AAEB80008C
:104BE000322101EB00106421B0FBF1F000F0F00A7B
:104BF00004206168A0FB017003461920A9FB005145
:104C00003A462846FBF790FB6421B0FBF1F00AEB33
:104C1000001A04206168A0FB01510B461920A9FB72
:104C200000712A463846FBF77FFB83460420616803
:104C3000A0FB015003461920A9FB007001462A463B
:104C40003846FBF771FB6421B0FBF1F000EBC001CB
:104C500001EB0010ABEB8000322101EB001064216E
:104C6000B0FBF1F000F00F00504421688860BDE80F
:104C7000F88F0000001001400014014077B581B0AA
:104C8000044615460298A062A58500206064222093
:104C900084F842002C48E16BC8632C48E16B08643F
:104CA0002B48E16BC8640020E16B086502AE3268F6
:104CB0002368191D2B46E06BFCF7CAFD38B11020A4
:104CC0006064202084F84200012004B070BD00BF61
:104CD00000200090206800680090206840680090E4
:104CE00000BF00BF206970B100BF00BF21680C3158
:104CF00051E8001F41F4807021680C3141E8000246
:104D0000002AF3D100BF00BF00BF2168143151E871
:104D1000001F41F001002168143141E80002002A1F
:104D2000F3D100BF00BF00BF2168143151E8001F5C
:104D300041F040002168143141E80002002AF3D11B
:104D400000BF0020C1E700006347000817480008C3
:104D500013470008014691F84100212828D18868AE
:104D6000B0F5805F0BD1086948B90A6A1088C0F3B2
:104D700008000B685860086A801C086205E00B6A2E
:104D8000581C086218780B685860C88C401E80B2A6
:104D9000C88458B90868C06820F080000B68D860E3
:104DA0000868C06840F040000B68D8600020704779
:104DB0000220FCE710B50248FEF7BEFA10BD000065
:104DC0008C03002010B50248FEF7B6FA10BD0000B3
:104DD000D403002010B50248FEF7AEFA10BD000063
:104DE0001C04002000BFFEE710B50B480068401C03
:104DF00009490860142800D210BD00200649086047
:104E0000064B1A1F02F11401032000F04BF800F0CA
:104E100013F800BFF0E70000A00000206C4F002056
:104E200010B50446034804608022011D2046FEF7A9
:104E30002EFA10BDFC4F002038B5184890F8340108
:104E400000B938BD002009E01449843101EB80022B
:104E5000803151F8201009681160401C0F4991F809
:104E600034118142F0DC0EA0006800900B4890F8ED
:104E700034010A49843101EB800000990160074840
:104E800090F83401042101EB8004044922460868AB
:104E90008431FEF7B1FD00BFD3E70000FC4F0020D6
:104EA0000000807F0FB408B503A8009002980C287A
:104EB00001DD0C200290002008E000990A680949F1
:104EC00041F820200099091D0091401C0299884258
:104ED000F3DB0549029881F834010020009001B00D
:104EE0005DF814FB00510020FC4F002002480068D0
:104EF000C0F30220704700000CED00E010B5002860
:104F000004DB0A07130E054A135406E00A07140EC1
:104F1000034A00F00F031B1FD45410BD00E400E04F
:104F200018ED00E0EFF305807047FCF747FFFFF74F
:104F3000C7F9FEF77DFEFEF7F5FDFEF7AFFDFEF7C4
:104F4000CFFDFFF7F1F8FFF70DF9FFF76DF8FEF76A
:104F50006DFFFEF74DFFFEF78DFFFEF7C1FFFFF778
:104F600011F8FFF7C5F800F02DF8FEF737FE00F056
:104F70003FF800BFFEE7F8B50646FFF7D3FF10B1D4
:104F80006FF005050FE0002501F0EEFD00900098A0
:104F9000341A34B1E00F20B92146684601F00AF80E
:104FA00001E06FF003052846F8BD10B5FFF7BAFF22
:104FB00018B101F0DFFD044602E001F0D5FD044622
:104FC000204610BD10B5FFF7ADFF10B16FF005041E
:104FD00009E00648006820B901200449086000245F
:104FE00001E04FF0FF34204610BD000070000020AB
:104FF00070B5FFF797FF10B16FF005041FE011487F
:105000000068012819D100BF801F0021002804DB9F
:105010000A07130E0C4A135406E00A07150E0B4A32
:1050200000F00F031B1FD55400BF00BF022005492D
:10503000086001F077F8002401E04FF0FF342046CB
:1050400070BD00007000002000E400E018ED00E0FA
:105050002DE9FF4780468946144600200390FFF75C
:1050600061FF00284ED1B8F1000F4BD080261825E3
:105070008246471E44B3206808B1D4F800A0A06956
:1050800000B1A5692DB1382D03D8207900F00100B9
:1050900018B1002004B0BDE8F087606908B160690C
:1050A0008608A06840B1E0685C2805D3206918B183
:1050B000606908B1012708E0A06830B9E06820B94C
:1050C000206910B9002700E00027012F0CD12169C9
:1050D000A0684B463246CDE9005102905146404609
:1050E00001F0D4FC03900DE067B903A8B2B24B46BF
:1050F0005146CDE90050404601F096FC012801D010
:10510000002003900398C5E72DE9F04105460E46BF
:105110001648076816480068001D00F0C3FD681CAB
:1051200038B936B112480168091D124800F010FE66
:105130001AE07C190E4800684460BC4207D20C4853
:105140000168091D0C48006800F0E8FD0CE0084803
:105150000168091D0948006800F0E0FD0848006882
:10516000844201D206480460BDE8F081340000208A
:10517000200000207C0B00202800002024000020BC
:105180005000002010B5044600F0EEFD24480068F1
:10519000401C234908602348006840B92148046046
:1051A0000846006801280DD100F0FCF90AE01E480D
:1051B000006838B91B480068C06AE16A884201D8B3
:1051C0001848046019480068401C184908600846DF
:1051D000006860641649E06A0968884202D9144987
:1051E000E06A0860E16A01EB8101124A02EB81008A
:1051F000211D00F0ADFD00F0E1FD0B48006868B135
:1052000008480068C06AE16A884207D24FF08050BF
:1052100009490860BFF34F8FBFF36F8F10BD0000C7
:1052200030000020200000203C0000204C00002026
:1052300038000020CC06002004ED00E008B500F0A6
:1052400093FD12480068E8B9114800F057FD114875
:1052500000F054FD0E48104908600E480F490860E0
:1052600000200F4B0F4A102100900A2001F0D4F8C3
:10527000064908600846006820B10BA10348006891
:1052800000F05CFE00F09AFD08BD00006400002004
:10529000900B0020A40B00205C0000206000002088
:1052A000B80B0020080C0020546D72510000000063
:1052B00010B516E000F058FD0C48C068C468201D09
:1052C00000F0F0FC0A480068401E094908600948DF
:1052D0000068401E0749086000F070FD204600F09D
:1052E0005FF8044800680028E4D110BD680B002076
:1052F000300000202C00002070B504460D46206CC4
:1053000070B1216CE0680144E160D4E90210884288
:1053100001D32168E1602846226CE168FBF77BF845
:1053200070BD2DE9F04104460F4615464FF00008C8
:10533000A66B206C48B9206800282CD1A06801F029
:10534000C5FC80460020A06025E07DB93946226C6E
:105350006068FBF760F8216C606808446060D4E91D
:105360000101884217D32068606014E03946226C3E
:10537000E068FBF750F8216CE068411AE1602168B1
:10538000E068884203D2216CA068411AE160022DD6
:1053900001D106B1761E701CA0634046BDE8F081C5
:1053A00010B5044694F8590030B9206B00F024FD84
:1053B000204600F021FD1AE094F85900012803D19D
:1053C000204600F019FD12E094F85900022801D19E
:1053D000012000E0002050B900BF502080F3118868
:1053E000BFF34F8FBFF36F8F00BF00BFFEE710BD4D
:1053F0000146084A126812680AB9012200E0002238
:105400000A600A6822B9034A1268D268106800E08C
:10541000002070475C00002030B54FF470531748EF
:1054200000F007042CB1C01D20F00700134C041B32
:105430001B1B0246124C22600024114D6C60D018D8
:10544000083820F007000F4C206000240D4D2D6817
:105450006C600C4D2D682C601146441A4C60094C50
:1054600024680C60084D4C682C60084D4C682C601A
:105470004FF00044064D2C6030BD0000601300204A
:10548000740000207C0000208400002080000020A8
:105490009000002000BFFFF70BFF064800680128BE
:1054A000F9D94FF0805004490860BFF34F8FBFF324
:1054B0006F8FF0E7CC06002004ED00E02DE9F0410D
:1054C00006460D4617469846069C0DB9246000E036
:1054D0002760E66325640121204601F00DF884F879
:1054E0004C80BDE8F0812DE9F05F82460E46904683
:1054F0009B460A9F0C9C4FEA8801A522206BFAF775
:10550000CFFFA8F10100216B01EB800929F0070909
:1055100009F0070008B9012000E0002050B900BFE1
:10552000502080F31188BFF34F8FBFF36F8F00BF00
:1055300000BFFEE786B1002507E0715D04F134008D
:105540004155705D00B902E06D1C102DF5D300BF10
:1055500000214320015502E0002084F83400382F58
:1055600000D33727E762E76400202065201D00F0A4
:10557000D2FB04F1180000F0CEFB2461C7F1380023
:10558000A06164620020606584F858005A46514664
:10559000484600F071FB20600B9808B10B9804603E
:1055A000BDE8F09F10B5002407E004EB84010F4A2A
:1055B00002EB810000F0A2FB641C382CF5D30C48F0
:1055C00000F09CFB0B4800F099FB0B4800F096FBA9
:1055D0000A4800F093FB0A4800F090FB0448094990
:1055E000086004480849086010BD0000CC0600208F
:1055F0002C0B0020400B0020540B0020680B0020D7
:105600007C0B0020240000202800002010B501465B
:10561000164800E0006803688B42FBD302464368EB
:1056200013448B4204D143684C68234443600146D1
:105630000A464B6813440468A34211D10C4C03681A
:105640002468A34208D04B680468646823444B6014
:1056500003681B680B6005E0054B1B680B6001E0ED
:1056600003680B60884200D0016010BD7400002008
:105670007C0000202DE9F04104460D4616461F46E9
:105680004FF0000865602461B5420CD8F01BA16999
:10569000884202D34FF0010811E0211D094800683B
:1056A00000F03CFB0BE0BE4204D2BD4202D34FF0FF
:1056B000010804E0211D0448006800F02FFB40466B
:1056C000BDE8F081600000205C00002070B5054658
:1056D00000F04AFBA86B08B9012400E0002400F0A8
:1056E0006DFB204670BD70B5054600F03DFBA86B14
:1056F000E96B884201D1012400E0002400F05EFB48
:10570000204670BDF8B505460F461A480068C068C7
:10571000C468201D00F0C6FA94F8280000F00400C8
:10572000E8B1A06941192B463A462046FFF7A2FF8F
:10573000D8B1002003462A4601460090204601F0D9
:1057400021FC064656B900BF502080F31188BFF3F4
:105750004F8FBFF36F8F00BF00BFFEE705E094F8E7
:10576000280020F0010084F828002046216A88479C
:10577000F8BD00005C000020F0B587B0A0E0039801
:10578000002811DA04AE56B900BF502080F311880A
:10579000BFF34F8FBFF36F8F00BF00BFFEE7D6E9A7
:1057A0000020B168904700BF03980028E6DB059C05
:1057B000606908B9012000E0002010B9201D00F048
:1057C00071FA02A800F0DEF8054603980A2875D29F
:1057D000DFE800F009050739416306083A4200BFD7
:1057E00000BF00BF00BF94F8280040F0010084F81B
:1057F00028000498A269811803462A462046FFF72C
:1058000039FFF8B12046216A884794F8280000F053
:105810000400B8B1002000900498A1694218002348
:105820001946204601F0AEFB074657B900BF50208D
:1058300080F31188BFF34F8FBFF36F8F00BF00BF9E
:10584000FEE700BF3BE000BF94F8280020F0010015
:1058500084F8280033E000BF94F8280040F00100ED
:1058600084F828000498A061A06908B1012000E034
:10587000002050B900BF502080F31188BFF34F8F34
:10588000BFF36F8F00BF00BFFEE7A06941192B4631
:105890002A462046FFF7EEFE11E094F8280000F0BB
:1058A000020018B9204600F0A7FA05E094F8280095
:1058B00020F0010084F8280001E0FFE700BF00BFEE
:1058C000002203A90448006800F0B4FF00287FF418
:1058D00056AF07B0F0BD000064000020F8B50546E3
:1058E0000C4600F07BFC684600F04CF80646009839
:1058F00020BB44B9B54206D801F086FA31462846A5
:10590000FFF700FF1CE03CB10E480068006808B9D2
:10591000012000E000200446A91B22460A48006836
:1059200000F022FB01F070FA50B94FF080500749A7
:105930000860BFF34F8FBFF36F8F01E001F064FA8F
:10594000F8BD0000600000206400002004ED00E0CD
:105950000A490968096809B9012100E0002121B15B
:105960004FF0FF31064A116006E004490968C96832
:10597000C868034A41681160704700002400002095
:105980005000002070B5044601F0EEF805460748C7
:105990000068854204D200F00BF80120206001E08D
:1059A0000020206001480560284670BD6C00002082
:1059B0002DE9F84334E025480068C06805682348AD
:1059C0000068C068C468201D00F06CF92046216A98
:1059D000884794F8280000F0040008B3A06946192D
:1059E000AE4207D966602461211D1848006800F0A6
:1059F00095F915E0002003462A460146009020460E
:105A000001F0C0FA074657B900BF502080F3118853
:105A1000BFF34F8FBFF36F8F00BF00BFFEE700BF24
:105A20000A480068006808B9012000E0002000284A
:105A3000C1D00648D0F800800548006803490860D6
:105A40000348C0F80080BDE8F88300005C00002037
:105A5000600000200E480068401C08B9012000E0EA
:105A6000002050B900BF502080F31188BFF34F8F42
:105A7000BFF36F8F00BF00BFFEE700BF502080F371
:105A80001188BFF34F8FBFF36F8F00BF00BFFEE7DA
:105A90009400002008B500BF6846FFF7A9FC044643
:105AA00020460099FFF71AFFFFF766FEF4E770B58E
:105AB000044600F059F994F9455010E0606A08B9BD
:105AC000012000E0002038B904F1240001F050F971
:105AD00018B100F0E5FA00E003E0681E45B2002DC1
